{
  "_format": "hh-sol-artifact-1",
  "contractName": "ZNFT",
  "sourceName": "contracts/NFT/ZNFT.sol",
  "abi": [
    {
      "inputs": [
        {
          "internalType": "string",
          "name": "name",
          "type": "string"
        },
        {
          "internalType": "string",
          "name": "symbol",
          "type": "string"
        },
        {
          "internalType": "string",
          "name": "collectionURI_",
          "type": "string"
        }
      ],
      "stateMutability": "nonpayable",
      "type": "constructor"
    },
    {
      "anonymous": false,
      "inputs": [
        {
          "indexed": true,
          "internalType": "address",
          "name": "owner",
          "type": "address"
        },
        {
          "indexed": true,
          "internalType": "address",
          "name": "approved",
          "type": "address"
        },
        {
          "indexed": true,
          "internalType": "uint256",
          "name": "tokenId",
          "type": "uint256"
        }
      ],
      "name": "Approval",
      "type": "event"
    },
    {
      "anonymous": false,
      "inputs": [
        {
          "indexed": true,
          "internalType": "address",
          "name": "owner",
          "type": "address"
        },
        {
          "indexed": true,
          "internalType": "address",
          "name": "operator",
          "type": "address"
        },
        {
          "indexed": false,
          "internalType": "bool",
          "name": "approved",
          "type": "bool"
        }
      ],
      "name": "ApprovalForAll",
      "type": "event"
    },
    {
      "anonymous": false,
      "inputs": [
        {
          "indexed": true,
          "internalType": "address",
          "name": "from",
          "type": "address"
        },
        {
          "indexed": true,
          "internalType": "address",
          "name": "to",
          "type": "address"
        },
        {
          "indexed": true,
          "internalType": "uint256",
          "name": "tokenId",
          "type": "uint256"
        }
      ],
      "name": "Transfer",
      "type": "event"
    },
    {
      "inputs": [
        {
          "internalType": "address",
          "name": "to",
          "type": "address"
        },
        {
          "internalType": "uint256",
          "name": "tokenId",
          "type": "uint256"
        }
      ],
      "name": "approve",
      "outputs": [],
      "stateMutability": "nonpayable",
      "type": "function"
    },
    {
      "inputs": [
        {
          "internalType": "address",
          "name": "owner",
          "type": "address"
        }
      ],
      "name": "balanceOf",
      "outputs": [
        {
          "internalType": "uint256",
          "name": "",
          "type": "uint256"
        }
      ],
      "stateMutability": "view",
      "type": "function"
    },
    {
      "inputs": [],
      "name": "baseURI",
      "outputs": [
        {
          "internalType": "string",
          "name": "",
          "type": "string"
        }
      ],
      "stateMutability": "view",
      "type": "function"
    },
    {
      "inputs": [],
      "name": "collectionURI",
      "outputs": [
        {
          "internalType": "string",
          "name": "",
          "type": "string"
        }
      ],
      "stateMutability": "view",
      "type": "function"
    },
    {
      "inputs": [],
      "name": "creator",
      "outputs": [
        {
          "internalType": "address",
          "name": "",
          "type": "address"
        }
      ],
      "stateMutability": "view",
      "type": "function"
    },
    {
      "inputs": [
        {
          "internalType": "uint256",
          "name": "tokenId",
          "type": "uint256"
        }
      ],
      "name": "getApproved",
      "outputs": [
        {
          "internalType": "address",
          "name": "",
          "type": "address"
        }
      ],
      "stateMutability": "view",
      "type": "function"
    },
    {
      "inputs": [
        {
          "internalType": "address",
          "name": "owner",
          "type": "address"
        },
        {
          "internalType": "address",
          "name": "operator",
          "type": "address"
        }
      ],
      "name": "isApprovedForAll",
      "outputs": [
        {
          "internalType": "bool",
          "name": "",
          "type": "bool"
        }
      ],
      "stateMutability": "view",
      "type": "function"
    },
    {
      "inputs": [
        {
          "internalType": "string[]",
          "name": "uris",
          "type": "string[]"
        }
      ],
      "name": "mint",
      "outputs": [],
      "stateMutability": "nonpayable",
      "type": "function"
    },
    {
      "inputs": [
        {
          "internalType": "address",
          "name": "to",
          "type": "address"
        },
        {
          "internalType": "string",
          "name": "uri",
          "type": "string"
        }
      ],
      "name": "mint",
      "outputs": [],
      "stateMutability": "nonpayable",
      "type": "function"
    },
    {
      "inputs": [
        {
          "internalType": "string",
          "name": "uri",
          "type": "string"
        }
      ],
      "name": "mint",
      "outputs": [],
      "stateMutability": "nonpayable",
      "type": "function"
    },
    {
      "inputs": [
        {
          "internalType": "address",
          "name": "to",
          "type": "address"
        },
        {
          "internalType": "string[]",
          "name": "uris",
          "type": "string[]"
        }
      ],
      "name": "mint",
      "outputs": [],
      "stateMutability": "nonpayable",
      "type": "function"
    },
    {
      "inputs": [],
      "name": "name",
      "outputs": [
        {
          "internalType": "string",
          "name": "",
          "type": "string"
        }
      ],
      "stateMutability": "view",
      "type": "function"
    },
    {
      "inputs": [
        {
          "internalType": "uint256",
          "name": "tokenId",
          "type": "uint256"
        }
      ],
      "name": "ownerOf",
      "outputs": [
        {
          "internalType": "address",
          "name": "",
          "type": "address"
        }
      ],
      "stateMutability": "view",
      "type": "function"
    },
    {
      "inputs": [
        {
          "internalType": "address",
          "name": "from",
          "type": "address"
        },
        {
          "internalType": "address",
          "name": "to",
          "type": "address"
        },
        {
          "internalType": "uint256",
          "name": "tokenId",
          "type": "uint256"
        }
      ],
      "name": "safeTransferFrom",
      "outputs": [],
      "stateMutability": "nonpayable",
      "type": "function"
    },
    {
      "inputs": [
        {
          "internalType": "address",
          "name": "from",
          "type": "address"
        },
        {
          "internalType": "address",
          "name": "to",
          "type": "address"
        },
        {
          "internalType": "uint256",
          "name": "tokenId",
          "type": "uint256"
        },
        {
          "internalType": "bytes",
          "name": "_data",
          "type": "bytes"
        }
      ],
      "name": "safeTransferFrom",
      "outputs": [],
      "stateMutability": "nonpayable",
      "type": "function"
    },
    {
      "inputs": [
        {
          "internalType": "address",
          "name": "operator",
          "type": "address"
        },
        {
          "internalType": "bool",
          "name": "approved",
          "type": "bool"
        }
      ],
      "name": "setApprovalForAll",
      "outputs": [],
      "stateMutability": "nonpayable",
      "type": "function"
    },
    {
      "inputs": [
        {
          "internalType": "bytes4",
          "name": "interfaceId",
          "type": "bytes4"
        }
      ],
      "name": "supportsInterface",
      "outputs": [
        {
          "internalType": "bool",
          "name": "",
          "type": "bool"
        }
      ],
      "stateMutability": "view",
      "type": "function"
    },
    {
      "inputs": [],
      "name": "symbol",
      "outputs": [
        {
          "internalType": "string",
          "name": "",
          "type": "string"
        }
      ],
      "stateMutability": "view",
      "type": "function"
    },
    {
      "inputs": [
        {
          "internalType": "uint256",
          "name": "index",
          "type": "uint256"
        }
      ],
      "name": "tokenByIndex",
      "outputs": [
        {
          "internalType": "uint256",
          "name": "",
          "type": "uint256"
        }
      ],
      "stateMutability": "view",
      "type": "function"
    },
    {
      "inputs": [
        {
          "internalType": "address",
          "name": "owner",
          "type": "address"
        },
        {
          "internalType": "uint256",
          "name": "index",
          "type": "uint256"
        }
      ],
      "name": "tokenOfOwnerByIndex",
      "outputs": [
        {
          "internalType": "uint256",
          "name": "",
          "type": "uint256"
        }
      ],
      "stateMutability": "view",
      "type": "function"
    },
    {
      "inputs": [
        {
          "internalType": "uint256",
          "name": "tokenId",
          "type": "uint256"
        }
      ],
      "name": "tokenURI",
      "outputs": [
        {
          "internalType": "string",
          "name": "",
          "type": "string"
        }
      ],
      "stateMutability": "view",
      "type": "function"
    },
    {
      "inputs": [],
      "name": "totalSupply",
      "outputs": [
        {
          "internalType": "uint256",
          "name": "",
          "type": "uint256"
        }
      ],
      "stateMutability": "view",
      "type": "function"
    },
    {
      "inputs": [
        {
          "internalType": "address",
          "name": "from",
          "type": "address"
        },
        {
          "internalType": "address",
          "name": "to",
          "type": "address"
        },
        {
          "internalType": "uint256",
          "name": "tokenId",
          "type": "uint256"
        }
      ],
      "name": "transferFrom",
      "outputs": [],
      "stateMutability": "nonpayable",
      "type": "function"
    }
  ],
  "bytecode": "0x60806040523480156200001157600080fd5b5060405162002327380380620023278339810160408190526200003491620003dd565b8282620000486301ffc9a760e01b62000110565b81516200005d9060079060208501906200026a565b508051620000739060089060208401906200026a565b50620000866380ac58cd60e01b62000110565b62000098635b5e139f60e01b62000110565b620000aa63780e9d6360e01b62000110565b5050600b80546001600160a01b031916331790558051620000d390600c9060208401906200026a565b50620000f5732ee6480c6fd8b71f0a6877bae97991e8d6062f4d600162000195565b6200010763a199d5f560e01b62000110565b505050620004ab565b6001600160e01b03198082161415620001705760405162461bcd60e51b815260206004820152601c60248201527f544e543136353a20696e76616c696420696e746572666163652069640000000060448201526064015b60405180910390fd5b6001600160e01b0319166000908152602081905260409020805460ff19166001179055565b6001600160a01b038216331415620001f05760405162461bcd60e51b815260206004820152601960248201527f544e543732313a20617070726f766520746f2063616c6c657200000000000000604482015260640162000167565b3360008181526006602090815260408083206001600160a01b0387168085529252909120805460ff1916841515179055906001600160a01b03167f17307eab39ab6107e8899845ad3d59bd9653f200f220920489ca2b5937696c31836040516200025e911515815260200190565b60405180910390a35050565b82805462000278906200046e565b90600052602060002090601f0160209004810192826200029c5760008555620002e7565b82601f10620002b757805160ff1916838001178555620002e7565b82800160010185558215620002e7579182015b82811115620002e7578251825591602001919060010190620002ca565b50620002f5929150620002f9565b5090565b5b80821115620002f55760008155600101620002fa565b634e487b7160e01b600052604160045260246000fd5b600082601f8301126200033857600080fd5b81516001600160401b038082111562000355576200035562000310565b604051601f8301601f19908116603f0116810190828211818310171562000380576200038062000310565b816040528381526020925086838588010111156200039d57600080fd5b600091505b83821015620003c15785820183015181830184015290820190620003a2565b83821115620003d35760008385830101525b9695505050505050565b600080600060608486031215620003f357600080fd5b83516001600160401b03808211156200040b57600080fd5b620004198783880162000326565b945060208601519150808211156200043057600080fd5b6200043e8783880162000326565b935060408601519150808211156200045557600080fd5b50620004648682870162000326565b9150509250925092565b600181811c908216806200048357607f821691505b60208210811415620004a557634e487b7160e01b600052602260045260246000fd5b50919050565b611e6c80620004bb6000396000f3fe608060405234801561001057600080fd5b506004361061014d5760003560e01c80636352211e116100c3578063b88d4fde1161007c578063b88d4fde146102bc578063c87b56dd146102cf578063d0def521146102e2578063d85d3d27146102f5578063d90794cf14610308578063e985e9c51461031b57600080fd5b80636352211e1461026b5780636c0360eb1461027e57806370a082311461028657806395d89b4114610299578063a22cb465146102a1578063a5097ebf146102b457600080fd5b806318160ddd1161011557806318160ddd146101f657806323b872dd1461020c5780632f745c591461021f57806342842e0e146102325780634f6ccce7146102455780635768f2711461025857600080fd5b806301ffc9a71461015257806302d05d3f1461019457806306fdde03146101b9578063081812fc146101ce578063095ea7b3146101e1575b600080fd5b61017f610160366004611605565b6001600160e01b03191660009081526020819052604090205460ff1690565b60405190151581526020015b60405180910390f35b600b546001600160a01b03165b6040516001600160a01b03909116815260200161018b565b6101c1610357565b60405161018b9190611681565b6101a16101dc366004611694565b6103e9565b6101f46101ef3660046116c9565b610476565b005b6101fe61058c565b60405190815260200161018b565b6101f461021a3660046116f3565b61059d565b6101fe61022d3660046116c9565b6105ce565b6101f46102403660046116f3565b6105f9565b6101fe610253366004611694565b610614565b6101f461026636600461188d565b61062a565b6101a1610279366004611694565b610699565b6101c16106c1565b6101fe6102943660046118c2565b6106d0565b6101c161075c565b6101f46102af3660046118dd565b61076b565b6101c1610830565b6101f46102ca366004611919565b61083f565b6101c16102dd366004611694565b610877565b6101f46102f0366004611995565b6109e8565b6101f46103033660046119e3565b610a32565b6101f4610316366004611a18565b610a69565b61017f610329366004611a5c565b6001600160a01b03918216600090815260066020908152604080832093909416825291909152205460ff1690565b60606007805461036690611a8f565b80601f016020809104026020016040519081016040528092919081815260200182805461039290611a8f565b80156103df5780601f106103b4576101008083540402835291602001916103df565b820191906000526020600020905b8154815290600101906020018083116103c257829003601f168201915b5050505050905090565b60006103f482610ac7565b61045a5760405162461bcd60e51b815260206004820152602c60248201527f544e543732313a20617070726f76656420717565727920666f72206e6f6e657860448201526b34b9ba32b73a103a37b5b2b760a11b60648201526084015b60405180910390fd5b506000908152600560205260409020546001600160a01b031690565b600061048182610699565b9050806001600160a01b0316836001600160a01b031614156104ef5760405162461bcd60e51b815260206004820152602160248201527f544e543732313a20617070726f76616c20746f2063757272656e74206f776e656044820152603960f91b6064820152608401610451565b336001600160a01b038216148061050b575061050b8133610329565b61057d5760405162461bcd60e51b815260206004820152603860248201527f544e543732313a20617070726f76652063616c6c6572206973206e6f74206f7760448201527f6e6572206e6f7220617070726f76656420666f7220616c6c00000000000000006064820152608401610451565b6105878383610ad4565b505050565b60006105986002610b42565b905090565b6105a73382610b4d565b6105c35760405162461bcd60e51b815260040161045190611aca565b610587838383610c37565b6001600160a01b03821660009081526001602052604081206105f09083610db8565b90505b92915050565b6105878383836040518060200160405280600081525061083f565b600080610622600284610dc4565b509392505050565b600b546001600160a01b031633146106545760405162461bcd60e51b815260040161045190611b1b565b60005b8151811015610695576106833383838151811061067657610676611b6f565b60200260200101516109e8565b8061068d81611b9b565b915050610657565b5050565b60006105f382604051806060016040528060298152602001611ddc6029913960029190610de0565b6060600a805461036690611a8f565b60006001600160a01b03821661073b5760405162461bcd60e51b815260206004820152602a60248201527f544e543732313a2062616c616e636520717565727920666f7220746865207a65604482015269726f206164647265737360b01b6064820152608401610451565b6001600160a01b03821660009081526001602052604090206105f390610ded565b60606008805461036690611a8f565b6001600160a01b0382163314156107c45760405162461bcd60e51b815260206004820152601960248201527f544e543732313a20617070726f766520746f2063616c6c6572000000000000006044820152606401610451565b3360008181526006602090815260408083206001600160a01b03871680855290835292819020805460ff191686151590811790915590519081529192917f17307eab39ab6107e8899845ad3d59bd9653f200f220920489ca2b5937696c31910160405180910390a35050565b6060600c805461036690611a8f565b6108493383610b4d565b6108655760405162461bcd60e51b815260040161045190611aca565b61087184848484610df7565b50505050565b606061088282610ac7565b6108e65760405162461bcd60e51b815260206004820152602f60248201527f544e543732314d657461646174613a2055524920717565727920666f72206e6f60448201526e3732bc34b9ba32b73a103a37b5b2b760891b6064820152608401610451565b600082815260096020526040812080546108ff90611a8f565b80601f016020809104026020016040519081016040528092919081815260200182805461092b90611a8f565b80156109785780601f1061094d57610100808354040283529160200191610978565b820191906000526020600020905b81548152906001019060200180831161095b57829003601f168201915b50505050509050600a805461098c90611a8f565b1515905061099a5792915050565b8051156109cc57600a816040516020016109b5929190611bd2565b604051602081830303815290604052915050919050565b600a6109d784610e2a565b6040516020016109b5929190611bd2565b600b546001600160a01b03163314610a125760405162461bcd60e51b815260040161045190611b1b565b6000610a1c61058c565b9050610a288382610f41565b6105878183610f5b565b600b546001600160a01b03163314610a5c5760405162461bcd60e51b815260040161045190611b1b565b610a6633826109e8565b50565b600b546001600160a01b03163314610a935760405162461bcd60e51b815260040161045190611b1b565b60005b815181101561058757610ab58383838151811061067657610676611b6f565b80610abf81611b9b565b915050610a96565b60006105f3600283610fe4565b600081815260056020526040902080546001600160a01b0319166001600160a01b0384169081179091558190610b0982610699565b6001600160a01b03167f8c5be1e5ebec7d5bd14f71427d1e84f3dd0314c0f7b2291e5b200ac8c7c3b92560405160405180910390a45050565b60006105f382610ff0565b6000610b5882610ac7565b610bb95760405162461bcd60e51b815260206004820152602c60248201527f544e543732313a206f70657261746f7220717565727920666f72206e6f6e657860448201526b34b9ba32b73a103a37b5b2b760a11b6064820152608401610451565b6000610bc483610699565b9050806001600160a01b0316846001600160a01b03161480610bff5750836001600160a01b0316610bf4846103e9565b6001600160a01b0316145b80610c2f57506001600160a01b0380821660009081526006602090815260408083209388168352929052205460ff165b949350505050565b826001600160a01b0316610c4a82610699565b6001600160a01b031614610cb25760405162461bcd60e51b815260206004820152602960248201527f544e543732313a207472616e73666572206f6620746f6b656e2074686174206960448201526839903737ba1037bbb760b91b6064820152608401610451565b6001600160a01b038216610d145760405162461bcd60e51b8152602060048201526024808201527f544e543732313a207472616e7366657220746f20746865207a65726f206164646044820152637265737360e01b6064820152608401610451565b610d1f600082610ad4565b6001600160a01b0383166000908152600160205260409020610d419082610ffb565b506001600160a01b0382166000908152600160205260409020610d649082611007565b50610d7160028284611013565b5080826001600160a01b0316846001600160a01b03167fddf252ad1be2c89b69c2b068fc378daa952ba7f163c4a11628f55a4df523b3ef60405160405180910390a4505050565b60006105f08383611029565b6000808080610dd38686611053565b9097909650945050505050565b6000610c2f84848461107e565b60006105f3825490565b610e02848484610c37565b610e0e848484846110c1565b6108715760405162461bcd60e51b815260040161045190611c79565b606081610e4e5750506040805180820190915260018152600360fc1b602082015290565b8160005b8115610e785780610e6281611b9b565b9150610e719050600a83611ce1565b9150610e52565b60008167ffffffffffffffff811115610e9357610e9361172f565b6040519080825280601f01601f191660200182016040528015610ebd576020820181803683370190505b5090506000610ecd600184611cf5565b90508593505b8315610f3857610ee4600a85611d0c565b610eef906030611d20565b60f81b8282610efd81611d38565b935081518110610f0f57610f0f611b6f565b60200101906001600160f81b031916908160001a905350610f31600a85611ce1565b9350610ed3565b50949350505050565b610695828260405180602001604052806000815250611192565b610f6482610ac7565b610fc55760405162461bcd60e51b815260206004820152602c60248201527f544e543732314d657461646174613a2055524920736574206f66206e6f6e657860448201526b34b9ba32b73a103a37b5b2b760a11b6064820152608401610451565b6000828152600960209081526040909120825161058792840190611556565b60006105f083836111c5565b60006105f382610ded565b60006105f083836111e4565b60006105f083836112d7565b6000610c2f84846001600160a01b038516611326565b600082600001828154811061104057611040611b6f565b9060005260206000200154905092915050565b600080806110618585610db8565b600081815260029690960160205260409095205494959350505050565b6000828152600284016020526040812054801515806110a257506110a285856111c5565b8390610f385760405162461bcd60e51b81526004016104519190611681565b60006001600160a01b0384163b6110da57506001610c2f565b600061115b63df20cc6d60e01b338887876040516024016110fe9493929190611d4f565b604051602081830303815290604052906001600160e01b0319166020820180516001600160e01b038381831617835250505050604051806060016040528060328152602001611e05603291396001600160a01b0388169190611343565b90506000818060200190518101906111739190611d8c565b6001600160e01b031916630a85bd0160e11b1492505050949350505050565b61119c8383611352565b6111a960008484846110c1565b6105875760405162461bcd60e51b815260040161045190611c79565b60006105f08383600081815260018301602052604081205415156105f0565b600081815260018301602052604081205480156112cd576000611208600183611cf5565b855490915060009061121c90600190611cf5565b905081811461128157600086600001828154811061123c5761123c611b6f565b906000526020600020015490508087600001848154811061125f5761125f611b6f565b6000918252602080832090910192909255918252600188019052604090208390555b855486908061129257611292611da9565b6001900381819060005260206000200160009055905585600101600086815260200190815260200160002060009055600193505050506105f3565b60009150506105f3565b600081815260018301602052604081205461131e575081546001818101845560008481526020808220909301849055845484825282860190935260409020919091556105f3565b5060006105f3565b60008281526002840160205260408120829055610c2f8484611007565b6060610c2f848460008561146a565b6001600160a01b0382166113a85760405162461bcd60e51b815260206004820181905260248201527f544e543732313a206d696e7420746f20746865207a65726f20616464726573736044820152606401610451565b6113b181610ac7565b156113fe5760405162461bcd60e51b815260206004820152601c60248201527f544e543732313a20746f6b656e20616c7265616479206d696e746564000000006044820152606401610451565b6001600160a01b03821660009081526001602052604090206114209082611007565b5061142d60028284611013565b5060405181906001600160a01b038416906000907fddf252ad1be2c89b69c2b068fc378daa952ba7f163c4a11628f55a4df523b3ef908290a45050565b6060843b6114ba5760405162461bcd60e51b815260206004820152601d60248201527f416464726573733a2063616c6c20746f206e6f6e2d636f6e74726163740000006044820152606401610451565b600080866001600160a01b031685876040516114d69190611dbf565b60006040518083038185875af1925050503d8060008114611513576040519150601f19603f3d011682016040523d82523d6000602084013e611518565b606091505b5091509150811561152c579150610c2f9050565b80511561153c5780518082602001fd5b8360405162461bcd60e51b81526004016104519190611681565b82805461156290611a8f565b90600052602060002090601f01602090048101928261158457600085556115ca565b82601f1061159d57805160ff19168380011785556115ca565b828001600101855582156115ca579182015b828111156115ca5782518255916020019190600101906115af565b506115d69291506115da565b5090565b5b808211156115d657600081556001016115db565b6001600160e01b031981168114610a6657600080fd5b60006020828403121561161757600080fd5b8135611622816115ef565b9392505050565b60005b8381101561164457818101518382015260200161162c565b838111156108715750506000910152565b6000815180845261166d816020860160208601611629565b601f01601f19169290920160200192915050565b6020815260006105f06020830184611655565b6000602082840312156116a657600080fd5b5035919050565b80356001600160a01b03811681146116c457600080fd5b919050565b600080604083850312156116dc57600080fd5b6116e5836116ad565b946020939093013593505050565b60008060006060848603121561170857600080fd5b611711846116ad565b925061171f602085016116ad565b9150604084013590509250925092565b634e487b7160e01b600052604160045260246000fd5b604051601f8201601f1916810167ffffffffffffffff8111828210171561176e5761176e61172f565b604052919050565b600067ffffffffffffffff8311156117905761179061172f565b6117a3601f8401601f1916602001611745565b90508281528383830111156117b757600080fd5b828260208301376000602084830101529392505050565b600082601f8301126117df57600080fd5b6105f083833560208501611776565b600082601f8301126117ff57600080fd5b8135602067ffffffffffffffff8083111561181c5761181c61172f565b8260051b61182b838201611745565b938452858101830193838101908886111561184557600080fd5b84880192505b85831015611881578235848111156118635760008081fd5b6118718a87838c01016117ce565b835250918401919084019061184b565b98975050505050505050565b60006020828403121561189f57600080fd5b813567ffffffffffffffff8111156118b657600080fd5b610c2f848285016117ee565b6000602082840312156118d457600080fd5b6105f0826116ad565b600080604083850312156118f057600080fd5b6118f9836116ad565b91506020830135801515811461190e57600080fd5b809150509250929050565b6000806000806080858703121561192f57600080fd5b611938856116ad565b9350611946602086016116ad565b925060408501359150606085013567ffffffffffffffff81111561196957600080fd5b8501601f8101871361197a57600080fd5b61198987823560208401611776565b91505092959194509250565b600080604083850312156119a857600080fd5b6119b1836116ad565b9150602083013567ffffffffffffffff8111156119cd57600080fd5b6119d9858286016117ce565b9150509250929050565b6000602082840312156119f557600080fd5b813567ffffffffffffffff811115611a0c57600080fd5b610c2f848285016117ce565b60008060408385031215611a2b57600080fd5b611a34836116ad565b9150602083013567ffffffffffffffff811115611a5057600080fd5b6119d9858286016117ee565b60008060408385031215611a6f57600080fd5b611a78836116ad565b9150611a86602084016116ad565b90509250929050565b600181811c90821680611aa357607f821691505b60208210811415611ac457634e487b7160e01b600052602260045260246000fd5b50919050565b60208082526031908201527f544e543732313a207472616e736665722063616c6c6572206973206e6f74206f6040820152701ddb995c881b9bdc88185c1c1c9bdd9959607a1b606082015260800190565b60208082526034908201527f4f6e6c792063726561746f72206f662074686520636f6e74726163742063616e6040820152731031b0b636103a3434b990333ab731ba34b7b71760611b606082015260800190565b634e487b7160e01b600052603260045260246000fd5b634e487b7160e01b600052601160045260246000fd5b6000600019821415611baf57611baf611b85565b5060010190565b60008151611bc8818560208601611629565b9290920192915050565b600080845481600182811c915080831680611bee57607f831692505b6020808410821415611c0e57634e487b7160e01b86526022600452602486fd5b818015611c225760018114611c3357611c60565b60ff19861689528489019650611c60565b60008b81526020902060005b86811015611c585781548b820152908501908301611c3f565b505084890196505b505050505050611c708185611bb6565b95945050505050565b60208082526032908201527f544e543732313a207472616e7366657220746f206e6f6e20544e54373231526560408201527131b2b4bb32b91034b6b83632b6b2b73a32b960711b606082015260800190565b634e487b7160e01b600052601260045260246000fd5b600082611cf057611cf0611ccb565b500490565b600082821015611d0757611d07611b85565b500390565b600082611d1b57611d1b611ccb565b500690565b60008219821115611d3357611d33611b85565b500190565b600081611d4757611d47611b85565b506000190190565b6001600160a01b0385811682528416602082015260408101839052608060608201819052600090611d8290830184611655565b9695505050505050565b600060208284031215611d9e57600080fd5b8151611622816115ef565b634e487b7160e01b600052603160045260246000fd5b60008251611dd1818460208701611629565b919091019291505056fe544e543732313a206f776e657220717565727920666f72206e6f6e6578697374656e7420746f6b656e544e543732313a207472616e7366657220746f206e6f6e20544e54373231526563656976657220696d706c656d656e746572a2646970667358221220b7928e5e865d1997a9d63be4ab5245f6471448f427876b03a633aadc2bae1e3964736f6c634300080c0033",
  "linkReferences": {},
  "deployedLinkReferences": {}
}