{
  "_format": "hh-sol-artifact-1",
  "contractName": "ZNFT",
  "sourceName": "contracts/NFT/ZNFT.sol",
  "abi": [
    {
      "inputs": [
        {
          "internalType": "string",
          "name": "name",
          "type": "string"
        },
        {
          "internalType": "string",
          "name": "symbol",
          "type": "string"
        },
        {
          "internalType": "string",
          "name": "collectionURI_",
          "type": "string"
        }
      ],
      "stateMutability": "nonpayable",
      "type": "constructor"
    },
    {
      "anonymous": false,
      "inputs": [
        {
          "indexed": true,
          "internalType": "address",
          "name": "owner",
          "type": "address"
        },
        {
          "indexed": true,
          "internalType": "address",
          "name": "approved",
          "type": "address"
        },
        {
          "indexed": true,
          "internalType": "uint256",
          "name": "tokenId",
          "type": "uint256"
        }
      ],
      "name": "Approval",
      "type": "event"
    },
    {
      "anonymous": false,
      "inputs": [
        {
          "indexed": true,
          "internalType": "address",
          "name": "owner",
          "type": "address"
        },
        {
          "indexed": true,
          "internalType": "address",
          "name": "operator",
          "type": "address"
        },
        {
          "indexed": false,
          "internalType": "bool",
          "name": "approved",
          "type": "bool"
        }
      ],
      "name": "ApprovalForAll",
      "type": "event"
    },
    {
      "anonymous": false,
      "inputs": [
        {
          "indexed": true,
          "internalType": "address",
          "name": "from",
          "type": "address"
        },
        {
          "indexed": true,
          "internalType": "address",
          "name": "to",
          "type": "address"
        },
        {
          "indexed": true,
          "internalType": "uint256",
          "name": "tokenId",
          "type": "uint256"
        }
      ],
      "name": "Transfer",
      "type": "event"
    },
    {
      "inputs": [
        {
          "internalType": "address",
          "name": "to",
          "type": "address"
        },
        {
          "internalType": "uint256",
          "name": "tokenId",
          "type": "uint256"
        }
      ],
      "name": "approve",
      "outputs": [],
      "stateMutability": "nonpayable",
      "type": "function"
    },
    {
      "inputs": [
        {
          "internalType": "address",
          "name": "owner",
          "type": "address"
        }
      ],
      "name": "balanceOf",
      "outputs": [
        {
          "internalType": "uint256",
          "name": "",
          "type": "uint256"
        }
      ],
      "stateMutability": "view",
      "type": "function"
    },
    {
      "inputs": [],
      "name": "baseURI",
      "outputs": [
        {
          "internalType": "string",
          "name": "",
          "type": "string"
        }
      ],
      "stateMutability": "view",
      "type": "function"
    },
    {
      "inputs": [],
      "name": "collectionURI",
      "outputs": [
        {
          "internalType": "string",
          "name": "",
          "type": "string"
        }
      ],
      "stateMutability": "view",
      "type": "function"
    },
    {
      "inputs": [
        {
          "internalType": "uint256",
          "name": "tokenId",
          "type": "uint256"
        }
      ],
      "name": "getApproved",
      "outputs": [
        {
          "internalType": "address",
          "name": "",
          "type": "address"
        }
      ],
      "stateMutability": "view",
      "type": "function"
    },
    {
      "inputs": [],
      "name": "getCreator",
      "outputs": [
        {
          "internalType": "address",
          "name": "",
          "type": "address"
        }
      ],
      "stateMutability": "view",
      "type": "function"
    },
    {
      "inputs": [
        {
          "internalType": "address",
          "name": "owner",
          "type": "address"
        },
        {
          "internalType": "address",
          "name": "operator",
          "type": "address"
        }
      ],
      "name": "isApprovedForAll",
      "outputs": [
        {
          "internalType": "bool",
          "name": "",
          "type": "bool"
        }
      ],
      "stateMutability": "view",
      "type": "function"
    },
    {
      "inputs": [
        {
          "internalType": "address",
          "name": "to",
          "type": "address"
        },
        {
          "internalType": "string",
          "name": "uri",
          "type": "string"
        }
      ],
      "name": "mint",
      "outputs": [],
      "stateMutability": "nonpayable",
      "type": "function"
    },
    {
      "inputs": [
        {
          "internalType": "string",
          "name": "uri",
          "type": "string"
        }
      ],
      "name": "mint",
      "outputs": [],
      "stateMutability": "nonpayable",
      "type": "function"
    },
    {
      "inputs": [
        {
          "internalType": "address",
          "name": "to",
          "type": "address"
        },
        {
          "internalType": "string[]",
          "name": "uris",
          "type": "string[]"
        }
      ],
      "name": "mint",
      "outputs": [],
      "stateMutability": "nonpayable",
      "type": "function"
    },
    {
      "inputs": [],
      "name": "name",
      "outputs": [
        {
          "internalType": "string",
          "name": "",
          "type": "string"
        }
      ],
      "stateMutability": "view",
      "type": "function"
    },
    {
      "inputs": [
        {
          "internalType": "uint256",
          "name": "tokenId",
          "type": "uint256"
        }
      ],
      "name": "ownerOf",
      "outputs": [
        {
          "internalType": "address",
          "name": "",
          "type": "address"
        }
      ],
      "stateMutability": "view",
      "type": "function"
    },
    {
      "inputs": [
        {
          "internalType": "address",
          "name": "from",
          "type": "address"
        },
        {
          "internalType": "address",
          "name": "to",
          "type": "address"
        },
        {
          "internalType": "uint256",
          "name": "tokenId",
          "type": "uint256"
        }
      ],
      "name": "safeTransferFrom",
      "outputs": [],
      "stateMutability": "nonpayable",
      "type": "function"
    },
    {
      "inputs": [
        {
          "internalType": "address",
          "name": "from",
          "type": "address"
        },
        {
          "internalType": "address",
          "name": "to",
          "type": "address"
        },
        {
          "internalType": "uint256",
          "name": "tokenId",
          "type": "uint256"
        },
        {
          "internalType": "bytes",
          "name": "_data",
          "type": "bytes"
        }
      ],
      "name": "safeTransferFrom",
      "outputs": [],
      "stateMutability": "nonpayable",
      "type": "function"
    },
    {
      "inputs": [
        {
          "internalType": "address",
          "name": "operator",
          "type": "address"
        },
        {
          "internalType": "bool",
          "name": "approved",
          "type": "bool"
        }
      ],
      "name": "setApprovalForAll",
      "outputs": [],
      "stateMutability": "nonpayable",
      "type": "function"
    },
    {
      "inputs": [
        {
          "internalType": "bytes4",
          "name": "interfaceId",
          "type": "bytes4"
        }
      ],
      "name": "supportsInterface",
      "outputs": [
        {
          "internalType": "bool",
          "name": "",
          "type": "bool"
        }
      ],
      "stateMutability": "view",
      "type": "function"
    },
    {
      "inputs": [],
      "name": "symbol",
      "outputs": [
        {
          "internalType": "string",
          "name": "",
          "type": "string"
        }
      ],
      "stateMutability": "view",
      "type": "function"
    },
    {
      "inputs": [
        {
          "internalType": "uint256",
          "name": "index",
          "type": "uint256"
        }
      ],
      "name": "tokenByIndex",
      "outputs": [
        {
          "internalType": "uint256",
          "name": "",
          "type": "uint256"
        }
      ],
      "stateMutability": "view",
      "type": "function"
    },
    {
      "inputs": [
        {
          "internalType": "address",
          "name": "owner",
          "type": "address"
        },
        {
          "internalType": "uint256",
          "name": "index",
          "type": "uint256"
        }
      ],
      "name": "tokenOfOwnerByIndex",
      "outputs": [
        {
          "internalType": "uint256",
          "name": "",
          "type": "uint256"
        }
      ],
      "stateMutability": "view",
      "type": "function"
    },
    {
      "inputs": [
        {
          "internalType": "uint256",
          "name": "tokenId",
          "type": "uint256"
        }
      ],
      "name": "tokenURI",
      "outputs": [
        {
          "internalType": "string",
          "name": "",
          "type": "string"
        }
      ],
      "stateMutability": "view",
      "type": "function"
    },
    {
      "inputs": [],
      "name": "totalSupply",
      "outputs": [
        {
          "internalType": "uint256",
          "name": "",
          "type": "uint256"
        }
      ],
      "stateMutability": "view",
      "type": "function"
    },
    {
      "inputs": [
        {
          "internalType": "address",
          "name": "from",
          "type": "address"
        },
        {
          "internalType": "address",
          "name": "to",
          "type": "address"
        },
        {
          "internalType": "uint256",
          "name": "tokenId",
          "type": "uint256"
        }
      ],
      "name": "transferFrom",
      "outputs": [],
      "stateMutability": "nonpayable",
      "type": "function"
    }
  ],
  "bytecode": "0x60806040523480156200001157600080fd5b506040516200225b3803806200225b8339810160408190526200003491620003cb565b8282620000486301ffc9a760e01b620000fe565b81516200005d90600790602085019062000258565b5080516200007390600890602084019062000258565b50620000866380ac58cd60e01b620000fe565b62000098635b5e139f60e01b620000fe565b620000aa63780e9d6360e01b620000fe565b5050600b80546001600160a01b031916331790558051620000d390600c90602084019062000258565b50620000f5732ee6480c6fd8b71f0a6877bae97991e8d6062f4d600162000183565b50505062000499565b6001600160e01b031980821614156200015e5760405162461bcd60e51b815260206004820152601c60248201527f544e543136353a20696e76616c696420696e746572666163652069640000000060448201526064015b60405180910390fd5b6001600160e01b0319166000908152602081905260409020805460ff19166001179055565b6001600160a01b038216331415620001de5760405162461bcd60e51b815260206004820152601960248201527f544e543732313a20617070726f766520746f2063616c6c657200000000000000604482015260640162000155565b3360008181526006602090815260408083206001600160a01b0387168085529252909120805460ff1916841515179055906001600160a01b03167f17307eab39ab6107e8899845ad3d59bd9653f200f220920489ca2b5937696c31836040516200024c911515815260200190565b60405180910390a35050565b82805462000266906200045c565b90600052602060002090601f0160209004810192826200028a5760008555620002d5565b82601f10620002a557805160ff1916838001178555620002d5565b82800160010185558215620002d5579182015b82811115620002d5578251825591602001919060010190620002b8565b50620002e3929150620002e7565b5090565b5b80821115620002e35760008155600101620002e8565b634e487b7160e01b600052604160045260246000fd5b600082601f8301126200032657600080fd5b81516001600160401b0380821115620003435762000343620002fe565b604051601f8301601f19908116603f011681019082821181831017156200036e576200036e620002fe565b816040528381526020925086838588010111156200038b57600080fd5b600091505b83821015620003af578582018301518183018401529082019062000390565b83821115620003c15760008385830101525b9695505050505050565b600080600060608486031215620003e157600080fd5b83516001600160401b0380821115620003f957600080fd5b620004078783880162000314565b945060208601519150808211156200041e57600080fd5b6200042c8783880162000314565b935060408601519150808211156200044357600080fd5b50620004528682870162000314565b9150509250925092565b600181811c908216806200047157607f821691505b602082108114156200049357634e487b7160e01b600052602260045260246000fd5b50919050565b611db280620004a96000396000f3fe608060405234801561001057600080fd5b50600436106101425760003560e01c80636c0360eb116100b8578063b88d4fde1161007c578063b88d4fde146102a2578063c87b56dd146102b5578063d0def521146102c8578063d85d3d27146102db578063d90794cf146102ee578063e985e9c51461030157600080fd5b80636c0360eb1461026457806370a082311461026c57806395d89b411461027f578063a22cb46514610287578063a5097ebf1461029a57600080fd5b806318160ddd1161010a57806318160ddd146101ef57806323b872dd146102055780632f745c591461021857806342842e0e1461022b5780634f6ccce71461023e5780636352211e1461025157600080fd5b806301ffc9a71461014757806306fdde0314610189578063081812fc1461019e578063095ea7b3146101c95780630ee2cb10146101de575b600080fd5b61017461015536600461158d565b6001600160e01b03191660009081526020819052604090205460ff1690565b60405190151581526020015b60405180910390f35b61019161033d565b6040516101809190611609565b6101b16101ac36600461161c565b6103cf565b6040516001600160a01b039091168152602001610180565b6101dc6101d7366004611651565b61045c565b005b600b546001600160a01b03166101b1565b6101f7610572565b604051908152602001610180565b6101dc61021336600461167b565b610583565b6101f7610226366004611651565b6105b4565b6101dc61023936600461167b565b6105df565b6101f761024c36600461161c565b6105fa565b6101b161025f36600461161c565b610610565b610191610638565b6101f761027a3660046116b7565b610647565b6101916106d3565b6101dc6102953660046116d2565b6106e2565b6101916107a7565b6101dc6102b03660046117ad565b6107b6565b6101916102c336600461161c565b6107ee565b6101dc6102d6366004611849565b61095f565b6101dc6102e9366004611897565b6109a9565b6101dc6102fc3660046118cc565b6109e0565b61017461030f3660046119a2565b6001600160a01b03918216600090815260066020908152604080832093909416825291909152205460ff1690565b60606007805461034c906119d5565b80601f0160208091040260200160405190810160405280929190818152602001828054610378906119d5565b80156103c55780601f1061039a576101008083540402835291602001916103c5565b820191906000526020600020905b8154815290600101906020018083116103a857829003601f168201915b5050505050905090565b60006103da82610a4b565b6104405760405162461bcd60e51b815260206004820152602c60248201527f544e543732313a20617070726f76656420717565727920666f72206e6f6e657860448201526b34b9ba32b73a103a37b5b2b760a11b60648201526084015b60405180910390fd5b506000908152600560205260409020546001600160a01b031690565b600061046782610610565b9050806001600160a01b0316836001600160a01b031614156104d55760405162461bcd60e51b815260206004820152602160248201527f544e543732313a20617070726f76616c20746f2063757272656e74206f776e656044820152603960f91b6064820152608401610437565b336001600160a01b03821614806104f157506104f1813361030f565b6105635760405162461bcd60e51b815260206004820152603860248201527f544e543732313a20617070726f76652063616c6c6572206973206e6f74206f7760448201527f6e6572206e6f7220617070726f76656420666f7220616c6c00000000000000006064820152608401610437565b61056d8383610a58565b505050565b600061057e6002610ac6565b905090565b61058d3382610ad1565b6105a95760405162461bcd60e51b815260040161043790611a10565b61056d838383610bbb565b6001600160a01b03821660009081526001602052604081206105d69083610d3c565b90505b92915050565b61056d838383604051806020016040528060008152506107b6565b600080610608600284610d48565b509392505050565b60006105d982604051806060016040528060298152602001611d226029913960029190610d64565b6060600a805461034c906119d5565b60006001600160a01b0382166106b25760405162461bcd60e51b815260206004820152602a60248201527f544e543732313a2062616c616e636520717565727920666f7220746865207a65604482015269726f206164647265737360b01b6064820152608401610437565b6001600160a01b03821660009081526001602052604090206105d990610d71565b60606008805461034c906119d5565b6001600160a01b03821633141561073b5760405162461bcd60e51b815260206004820152601960248201527f544e543732313a20617070726f766520746f2063616c6c6572000000000000006044820152606401610437565b3360008181526006602090815260408083206001600160a01b03871680855290835292819020805460ff191686151590811790915590519081529192917f17307eab39ab6107e8899845ad3d59bd9653f200f220920489ca2b5937696c31910160405180910390a35050565b6060600c805461034c906119d5565b6107c03383610ad1565b6107dc5760405162461bcd60e51b815260040161043790611a10565b6107e884848484610d7b565b50505050565b60606107f982610a4b565b61085d5760405162461bcd60e51b815260206004820152602f60248201527f544e543732314d657461646174613a2055524920717565727920666f72206e6f60448201526e3732bc34b9ba32b73a103a37b5b2b760891b6064820152608401610437565b60008281526009602052604081208054610876906119d5565b80601f01602080910402602001604051908101604052809291908181526020018280546108a2906119d5565b80156108ef5780601f106108c4576101008083540402835291602001916108ef565b820191906000526020600020905b8154815290600101906020018083116108d257829003601f168201915b50505050509050600a8054610903906119d5565b151590506109115792915050565b80511561094357600a8160405160200161092c929190611a7d565b604051602081830303815290604052915050919050565b600a61094e84610dae565b60405160200161092c929190611a7d565b600b546001600160a01b031633146109895760405162461bcd60e51b815260040161043790611b24565b6000610993610572565b905061099f8382610ec5565b61056d8183610ee3565b600b546001600160a01b031633146109d35760405162461bcd60e51b815260040161043790611b24565b6109dd338261095f565b50565b600b546001600160a01b03163314610a0a5760405162461bcd60e51b815260040161043790611b24565b60005b815181101561056d57610a3983838381518110610a2c57610a2c611b78565b602002602001015161095f565b80610a4381611ba4565b915050610a0d565b60006105d9600283610f6c565b600081815260056020526040902080546001600160a01b0319166001600160a01b0384169081179091558190610a8d82610610565b6001600160a01b03167f8c5be1e5ebec7d5bd14f71427d1e84f3dd0314c0f7b2291e5b200ac8c7c3b92560405160405180910390a45050565b60006105d982610f78565b6000610adc82610a4b565b610b3d5760405162461bcd60e51b815260206004820152602c60248201527f544e543732313a206f70657261746f7220717565727920666f72206e6f6e657860448201526b34b9ba32b73a103a37b5b2b760a11b6064820152608401610437565b6000610b4883610610565b9050806001600160a01b0316846001600160a01b03161480610b835750836001600160a01b0316610b78846103cf565b6001600160a01b0316145b80610bb357506001600160a01b0380821660009081526006602090815260408083209388168352929052205460ff165b949350505050565b826001600160a01b0316610bce82610610565b6001600160a01b031614610c365760405162461bcd60e51b815260206004820152602960248201527f544e543732313a207472616e73666572206f6620746f6b656e2074686174206960448201526839903737ba1037bbb760b91b6064820152608401610437565b6001600160a01b038216610c985760405162461bcd60e51b8152602060048201526024808201527f544e543732313a207472616e7366657220746f20746865207a65726f206164646044820152637265737360e01b6064820152608401610437565b610ca3600082610a58565b6001600160a01b0383166000908152600160205260409020610cc59082610f83565b506001600160a01b0382166000908152600160205260409020610ce89082610f8f565b50610cf560028284610f9b565b5080826001600160a01b0316846001600160a01b03167fddf252ad1be2c89b69c2b068fc378daa952ba7f163c4a11628f55a4df523b3ef60405160405180910390a4505050565b60006105d68383610fb1565b6000808080610d578686610fdb565b9097909650945050505050565b6000610bb3848484611006565b60006105d9825490565b610d86848484610bbb565b610d9284848484611049565b6107e85760405162461bcd60e51b815260040161043790611bbf565b606081610dd25750506040805180820190915260018152600360fc1b602082015290565b8160005b8115610dfc5780610de681611ba4565b9150610df59050600a83611c27565b9150610dd6565b60008167ffffffffffffffff811115610e1757610e1761170e565b6040519080825280601f01601f191660200182016040528015610e41576020820181803683370190505b5090506000610e51600184611c3b565b90508593505b8315610ebc57610e68600a85611c52565b610e73906030611c66565b60f81b8282610e8181611c7e565b935081518110610e9357610e93611b78565b60200101906001600160f81b031916908160001a905350610eb5600a85611c27565b9350610e57565b50949350505050565b610edf82826040518060200160405280600081525061111a565b5050565b610eec82610a4b565b610f4d5760405162461bcd60e51b815260206004820152602c60248201527f544e543732314d657461646174613a2055524920736574206f66206e6f6e657860448201526b34b9ba32b73a103a37b5b2b760a11b6064820152608401610437565b6000828152600960209081526040909120825161056d928401906114de565b60006105d6838361114d565b60006105d982610d71565b60006105d6838361116c565b60006105d6838361125f565b6000610bb384846001600160a01b0385166112ae565b6000826000018281548110610fc857610fc8611b78565b9060005260206000200154905092915050565b60008080610fe98585610d3c565b600081815260029690960160205260409095205494959350505050565b60008281526002840160205260408120548015158061102a575061102a858561114d565b8390610ebc5760405162461bcd60e51b81526004016104379190611609565b60006001600160a01b0384163b61106257506001610bb3565b60006110e363df20cc6d60e01b338887876040516024016110869493929190611c95565b604051602081830303815290604052906001600160e01b0319166020820180516001600160e01b038381831617835250505050604051806060016040528060328152602001611d4b603291396001600160a01b03881691906112cb565b90506000818060200190518101906110fb9190611cd2565b6001600160e01b031916630a85bd0160e11b1492505050949350505050565b61112483836112da565b6111316000848484611049565b61056d5760405162461bcd60e51b815260040161043790611bbf565b60006105d68383600081815260018301602052604081205415156105d6565b60008181526001830160205260408120548015611255576000611190600183611c3b565b85549091506000906111a490600190611c3b565b90508181146112095760008660000182815481106111c4576111c4611b78565b90600052602060002001549050808760000184815481106111e7576111e7611b78565b6000918252602080832090910192909255918252600188019052604090208390555b855486908061121a5761121a611cef565b6001900381819060005260206000200160009055905585600101600086815260200190815260200160002060009055600193505050506105d9565b60009150506105d9565b60008181526001830160205260408120546112a6575081546001818101845560008481526020808220909301849055845484825282860190935260409020919091556105d9565b5060006105d9565b60008281526002840160205260408120829055610bb38484610f8f565b6060610bb384846000856113f2565b6001600160a01b0382166113305760405162461bcd60e51b815260206004820181905260248201527f544e543732313a206d696e7420746f20746865207a65726f20616464726573736044820152606401610437565b61133981610a4b565b156113865760405162461bcd60e51b815260206004820152601c60248201527f544e543732313a20746f6b656e20616c7265616479206d696e746564000000006044820152606401610437565b6001600160a01b03821660009081526001602052604090206113a89082610f8f565b506113b560028284610f9b565b5060405181906001600160a01b038416906000907fddf252ad1be2c89b69c2b068fc378daa952ba7f163c4a11628f55a4df523b3ef908290a45050565b6060843b6114425760405162461bcd60e51b815260206004820152601d60248201527f416464726573733a2063616c6c20746f206e6f6e2d636f6e74726163740000006044820152606401610437565b600080866001600160a01b0316858760405161145e9190611d05565b60006040518083038185875af1925050503d806000811461149b576040519150601f19603f3d011682016040523d82523d6000602084013e6114a0565b606091505b509150915081156114b4579150610bb39050565b8051156114c45780518082602001fd5b8360405162461bcd60e51b81526004016104379190611609565b8280546114ea906119d5565b90600052602060002090601f01602090048101928261150c5760008555611552565b82601f1061152557805160ff1916838001178555611552565b82800160010185558215611552579182015b82811115611552578251825591602001919060010190611537565b5061155e929150611562565b5090565b5b8082111561155e5760008155600101611563565b6001600160e01b0319811681146109dd57600080fd5b60006020828403121561159f57600080fd5b81356115aa81611577565b9392505050565b60005b838110156115cc5781810151838201526020016115b4565b838111156107e85750506000910152565b600081518084526115f58160208601602086016115b1565b601f01601f19169290920160200192915050565b6020815260006105d660208301846115dd565b60006020828403121561162e57600080fd5b5035919050565b80356001600160a01b038116811461164c57600080fd5b919050565b6000806040838503121561166457600080fd5b61166d83611635565b946020939093013593505050565b60008060006060848603121561169057600080fd5b61169984611635565b92506116a760208501611635565b9150604084013590509250925092565b6000602082840312156116c957600080fd5b6105d682611635565b600080604083850312156116e557600080fd5b6116ee83611635565b91506020830135801515811461170357600080fd5b809150509250929050565b634e487b7160e01b600052604160045260246000fd5b604051601f8201601f1916810167ffffffffffffffff8111828210171561174d5761174d61170e565b604052919050565b600067ffffffffffffffff83111561176f5761176f61170e565b611782601f8401601f1916602001611724565b905082815283838301111561179657600080fd5b828260208301376000602084830101529392505050565b600080600080608085870312156117c357600080fd5b6117cc85611635565b93506117da60208601611635565b925060408501359150606085013567ffffffffffffffff8111156117fd57600080fd5b8501601f8101871361180e57600080fd5b61181d87823560208401611755565b91505092959194509250565b600082601f83011261183a57600080fd5b6105d683833560208501611755565b6000806040838503121561185c57600080fd5b61186583611635565b9150602083013567ffffffffffffffff81111561188157600080fd5b61188d85828601611829565b9150509250929050565b6000602082840312156118a957600080fd5b813567ffffffffffffffff8111156118c057600080fd5b610bb384828501611829565b600080604083850312156118df57600080fd5b6118e883611635565b915060208084013567ffffffffffffffff8082111561190657600080fd5b818601915086601f83011261191a57600080fd5b81358181111561192c5761192c61170e565b8060051b61193b858201611724565b918252838101850191858101908a84111561195557600080fd5b86860192505b83831015611991578235858111156119735760008081fd5b6119818c89838a0101611829565b835250918601919086019061195b565b809750505050505050509250929050565b600080604083850312156119b557600080fd5b6119be83611635565b91506119cc60208401611635565b90509250929050565b600181811c908216806119e957607f821691505b60208210811415611a0a57634e487b7160e01b600052602260045260246000fd5b50919050565b60208082526031908201527f544e543732313a207472616e736665722063616c6c6572206973206e6f74206f6040820152701ddb995c881b9bdc88185c1c1c9bdd9959607a1b606082015260800190565b60008151611a738185602086016115b1565b9290920192915050565b600080845481600182811c915080831680611a9957607f831692505b6020808410821415611ab957634e487b7160e01b86526022600452602486fd5b818015611acd5760018114611ade57611b0b565b60ff19861689528489019650611b0b565b60008b81526020902060005b86811015611b035781548b820152908501908301611aea565b505084890196505b505050505050611b1b8185611a61565b95945050505050565b60208082526034908201527f4f6e6c792063726561746f72206f662074686520636f6e74726163742063616e6040820152731031b0b636103a3434b990333ab731ba34b7b71760611b606082015260800190565b634e487b7160e01b600052603260045260246000fd5b634e487b7160e01b600052601160045260246000fd5b6000600019821415611bb857611bb8611b8e565b5060010190565b60208082526032908201527f544e543732313a207472616e7366657220746f206e6f6e20544e54373231526560408201527131b2b4bb32b91034b6b83632b6b2b73a32b960711b606082015260800190565b634e487b7160e01b600052601260045260246000fd5b600082611c3657611c36611c11565b500490565b600082821015611c4d57611c4d611b8e565b500390565b600082611c6157611c61611c11565b500690565b60008219821115611c7957611c79611b8e565b500190565b600081611c8d57611c8d611b8e565b506000190190565b6001600160a01b0385811682528416602082015260408101839052608060608201819052600090611cc8908301846115dd565b9695505050505050565b600060208284031215611ce457600080fd5b81516115aa81611577565b634e487b7160e01b600052603160045260246000fd5b60008251611d178184602087016115b1565b919091019291505056fe544e543732313a206f776e657220717565727920666f72206e6f6e6578697374656e7420746f6b656e544e543732313a207472616e7366657220746f206e6f6e20544e54373231526563656976657220696d706c656d656e746572a264697066735822122051b35936a9fc9547dcb52e269fad9a81c47380338f937c0854c7092adedcd0cd64736f6c634300080c0033",
  "linkReferences": {},
  "deployedLinkReferences": {}
}