{
  "_format": "hh-sol-artifact-1",
  "contractName": "ZNFT",
  "sourceName": "contracts/NFT/ZNFT.sol",
  "abi": [
    {
      "inputs": [
        {
          "internalType": "string",
          "name": "name",
          "type": "string"
        },
        {
          "internalType": "string",
          "name": "symbol",
          "type": "string"
        },
        {
          "internalType": "string",
          "name": "collectionURI_",
          "type": "string"
        }
      ],
      "stateMutability": "nonpayable",
      "type": "constructor"
    },
    {
      "anonymous": false,
      "inputs": [
        {
          "indexed": true,
          "internalType": "address",
          "name": "owner",
          "type": "address"
        },
        {
          "indexed": true,
          "internalType": "address",
          "name": "approved",
          "type": "address"
        },
        {
          "indexed": true,
          "internalType": "uint256",
          "name": "tokenId",
          "type": "uint256"
        }
      ],
      "name": "Approval",
      "type": "event"
    },
    {
      "anonymous": false,
      "inputs": [
        {
          "indexed": true,
          "internalType": "address",
          "name": "owner",
          "type": "address"
        },
        {
          "indexed": true,
          "internalType": "address",
          "name": "operator",
          "type": "address"
        },
        {
          "indexed": false,
          "internalType": "bool",
          "name": "approved",
          "type": "bool"
        }
      ],
      "name": "ApprovalForAll",
      "type": "event"
    },
    {
      "anonymous": false,
      "inputs": [
        {
          "indexed": true,
          "internalType": "address",
          "name": "from",
          "type": "address"
        },
        {
          "indexed": true,
          "internalType": "address",
          "name": "to",
          "type": "address"
        },
        {
          "indexed": true,
          "internalType": "uint256",
          "name": "tokenId",
          "type": "uint256"
        }
      ],
      "name": "Transfer",
      "type": "event"
    },
    {
      "inputs": [
        {
          "internalType": "address",
          "name": "to",
          "type": "address"
        },
        {
          "internalType": "uint256",
          "name": "tokenId",
          "type": "uint256"
        }
      ],
      "name": "approve",
      "outputs": [],
      "stateMutability": "nonpayable",
      "type": "function"
    },
    {
      "inputs": [
        {
          "internalType": "address",
          "name": "owner",
          "type": "address"
        }
      ],
      "name": "balanceOf",
      "outputs": [
        {
          "internalType": "uint256",
          "name": "",
          "type": "uint256"
        }
      ],
      "stateMutability": "view",
      "type": "function"
    },
    {
      "inputs": [],
      "name": "baseURI",
      "outputs": [
        {
          "internalType": "string",
          "name": "",
          "type": "string"
        }
      ],
      "stateMutability": "view",
      "type": "function"
    },
    {
      "inputs": [],
      "name": "collectionURI",
      "outputs": [
        {
          "internalType": "string",
          "name": "",
          "type": "string"
        }
      ],
      "stateMutability": "view",
      "type": "function"
    },
    {
      "inputs": [],
      "name": "creator",
      "outputs": [
        {
          "internalType": "address",
          "name": "",
          "type": "address"
        }
      ],
      "stateMutability": "view",
      "type": "function"
    },
    {
      "inputs": [
        {
          "internalType": "uint256",
          "name": "tokenId",
          "type": "uint256"
        }
      ],
      "name": "getApproved",
      "outputs": [
        {
          "internalType": "address",
          "name": "",
          "type": "address"
        }
      ],
      "stateMutability": "view",
      "type": "function"
    },
    {
      "inputs": [
        {
          "internalType": "address",
          "name": "owner",
          "type": "address"
        },
        {
          "internalType": "address",
          "name": "operator",
          "type": "address"
        }
      ],
      "name": "isApprovedForAll",
      "outputs": [
        {
          "internalType": "bool",
          "name": "",
          "type": "bool"
        }
      ],
      "stateMutability": "view",
      "type": "function"
    },
    {
      "inputs": [
        {
          "internalType": "address",
          "name": "to",
          "type": "address"
        },
        {
          "internalType": "string",
          "name": "uri",
          "type": "string"
        }
      ],
      "name": "mint",
      "outputs": [],
      "stateMutability": "nonpayable",
      "type": "function"
    },
    {
      "inputs": [],
      "name": "name",
      "outputs": [
        {
          "internalType": "string",
          "name": "",
          "type": "string"
        }
      ],
      "stateMutability": "view",
      "type": "function"
    },
    {
      "inputs": [
        {
          "internalType": "uint256",
          "name": "tokenId",
          "type": "uint256"
        }
      ],
      "name": "ownerOf",
      "outputs": [
        {
          "internalType": "address",
          "name": "",
          "type": "address"
        }
      ],
      "stateMutability": "view",
      "type": "function"
    },
    {
      "inputs": [
        {
          "internalType": "address",
          "name": "from",
          "type": "address"
        },
        {
          "internalType": "address",
          "name": "to",
          "type": "address"
        },
        {
          "internalType": "uint256",
          "name": "tokenId",
          "type": "uint256"
        }
      ],
      "name": "safeTransferFrom",
      "outputs": [],
      "stateMutability": "nonpayable",
      "type": "function"
    },
    {
      "inputs": [
        {
          "internalType": "address",
          "name": "from",
          "type": "address"
        },
        {
          "internalType": "address",
          "name": "to",
          "type": "address"
        },
        {
          "internalType": "uint256",
          "name": "tokenId",
          "type": "uint256"
        },
        {
          "internalType": "bytes",
          "name": "_data",
          "type": "bytes"
        }
      ],
      "name": "safeTransferFrom",
      "outputs": [],
      "stateMutability": "nonpayable",
      "type": "function"
    },
    {
      "inputs": [
        {
          "internalType": "address",
          "name": "operator",
          "type": "address"
        },
        {
          "internalType": "bool",
          "name": "approved",
          "type": "bool"
        }
      ],
      "name": "setApprovalForAll",
      "outputs": [],
      "stateMutability": "nonpayable",
      "type": "function"
    },
    {
      "inputs": [
        {
          "internalType": "bytes4",
          "name": "interfaceId",
          "type": "bytes4"
        }
      ],
      "name": "supportsInterface",
      "outputs": [
        {
          "internalType": "bool",
          "name": "",
          "type": "bool"
        }
      ],
      "stateMutability": "view",
      "type": "function"
    },
    {
      "inputs": [],
      "name": "symbol",
      "outputs": [
        {
          "internalType": "string",
          "name": "",
          "type": "string"
        }
      ],
      "stateMutability": "view",
      "type": "function"
    },
    {
      "inputs": [
        {
          "internalType": "uint256",
          "name": "index",
          "type": "uint256"
        }
      ],
      "name": "tokenByIndex",
      "outputs": [
        {
          "internalType": "uint256",
          "name": "",
          "type": "uint256"
        }
      ],
      "stateMutability": "view",
      "type": "function"
    },
    {
      "inputs": [
        {
          "internalType": "address",
          "name": "owner",
          "type": "address"
        },
        {
          "internalType": "uint256",
          "name": "index",
          "type": "uint256"
        }
      ],
      "name": "tokenOfOwnerByIndex",
      "outputs": [
        {
          "internalType": "uint256",
          "name": "",
          "type": "uint256"
        }
      ],
      "stateMutability": "view",
      "type": "function"
    },
    {
      "inputs": [
        {
          "internalType": "uint256",
          "name": "tokenId",
          "type": "uint256"
        }
      ],
      "name": "tokenURI",
      "outputs": [
        {
          "internalType": "string",
          "name": "",
          "type": "string"
        }
      ],
      "stateMutability": "view",
      "type": "function"
    },
    {
      "inputs": [],
      "name": "totalSupply",
      "outputs": [
        {
          "internalType": "uint256",
          "name": "",
          "type": "uint256"
        }
      ],
      "stateMutability": "view",
      "type": "function"
    },
    {
      "inputs": [
        {
          "internalType": "address",
          "name": "from",
          "type": "address"
        },
        {
          "internalType": "address",
          "name": "to",
          "type": "address"
        },
        {
          "internalType": "uint256",
          "name": "tokenId",
          "type": "uint256"
        }
      ],
      "name": "transferFrom",
      "outputs": [],
      "stateMutability": "nonpayable",
      "type": "function"
    },
    {
      "inputs": [
        {
          "internalType": "string",
          "name": "collectionURI_",
          "type": "string"
        }
      ],
      "name": "updateCollectionURI",
      "outputs": [],
      "stateMutability": "nonpayable",
      "type": "function"
    }
  ],
  "bytecode": "0x60806040523480156200001157600080fd5b5060405162002009380380620020098339810160408190526200003491620002e6565b8282620000486301ffc9a760e01b620000ef565b81516200005d90600790602085019062000173565b5080516200007390600890602084019062000173565b50620000866380ac58cd60e01b620000ef565b62000098635b5e139f60e01b620000ef565b620000aa63780e9d6360e01b620000ef565b5050600b80546001600160a01b031916331790558051620000d390600c90602084019062000173565b50620000e663a199d5f560e01b620000ef565b505050620003b4565b6001600160e01b031980821614156200014e5760405162461bcd60e51b815260206004820152601c60248201527f544e543136353a20696e76616c696420696e7465726661636520696400000000604482015260640160405180910390fd5b6001600160e01b0319166000908152602081905260409020805460ff19166001179055565b828054620001819062000377565b90600052602060002090601f016020900481019282620001a55760008555620001f0565b82601f10620001c057805160ff1916838001178555620001f0565b82800160010185558215620001f0579182015b82811115620001f0578251825591602001919060010190620001d3565b50620001fe92915062000202565b5090565b5b80821115620001fe576000815560010162000203565b634e487b7160e01b600052604160045260246000fd5b600082601f8301126200024157600080fd5b81516001600160401b03808211156200025e576200025e62000219565b604051601f8301601f19908116603f0116810190828211818310171562000289576200028962000219565b81604052838152602092508683858801011115620002a657600080fd5b600091505b83821015620002ca5785820183015181830184015290820190620002ab565b83821115620002dc5760008385830101525b9695505050505050565b600080600060608486031215620002fc57600080fd5b83516001600160401b03808211156200031457600080fd5b62000322878388016200022f565b945060208601519150808211156200033957600080fd5b62000347878388016200022f565b935060408601519150808211156200035e57600080fd5b506200036d868287016200022f565b9150509250925092565b600181811c908216806200038c57607f821691505b60208210811415620003ae57634e487b7160e01b600052602260045260246000fd5b50919050565b611c4580620003c46000396000f3fe608060405234801561001057600080fd5b50600436106101375760003560e01c80636352211e116100b8578063a22cb4651161007c578063a22cb4651461028b578063a5097ebf1461029e578063b88d4fde146102a6578063c87b56dd146102b9578063d0def521146102cc578063e985e9c5146102df57600080fd5b80636352211e146102425780636c0360eb1461025557806370a082311461025d5780637910af6f1461027057806395d89b411461028357600080fd5b806318160ddd116100ff57806318160ddd146101e057806323b872dd146101f65780632f745c591461020957806342842e0e1461021c5780634f6ccce71461022f57600080fd5b806301ffc9a71461013c57806302d05d3f1461017e57806306fdde03146101a3578063081812fc146101b8578063095ea7b3146101cb575b600080fd5b61016961014a366004611509565b6001600160e01b03191660009081526020819052604090205460ff1690565b60405190151581526020015b60405180910390f35b600b546001600160a01b03165b6040516001600160a01b039091168152602001610175565b6101ab61031b565b6040516101759190611585565b61018b6101c6366004611598565b6103ad565b6101de6101d93660046115cd565b61043a565b005b6101e8610550565b604051908152602001610175565b6101de6102043660046115f7565b610561565b6101e86102173660046115cd565b610592565b6101de61022a3660046115f7565b6105bd565b6101e861023d366004611598565b6105d8565b61018b610250366004611598565b6105ee565b6101ab610616565b6101e861026b366004611633565b610625565b6101de61027e3660046116fa565b6106b1565b6101ab6106f2565b6101de61029936600461172f565b610701565b6101ab6107c6565b6101de6102b436600461176b565b6107d5565b6101ab6102c7366004611598565b61080d565b6101de6102da3660046117e7565b61097e565b6101696102ed366004611835565b6001600160a01b03918216600090815260066020908152604080832093909416825291909152205460ff1690565b60606007805461032a90611868565b80601f016020809104026020016040519081016040528092919081815260200182805461035690611868565b80156103a35780601f10610378576101008083540402835291602001916103a3565b820191906000526020600020905b81548152906001019060200180831161038657829003601f168201915b5050505050905090565b60006103b8826109c8565b61041e5760405162461bcd60e51b815260206004820152602c60248201527f544e543732313a20617070726f76656420717565727920666f72206e6f6e657860448201526b34b9ba32b73a103a37b5b2b760a11b60648201526084015b60405180910390fd5b506000908152600560205260409020546001600160a01b031690565b6000610445826105ee565b9050806001600160a01b0316836001600160a01b031614156104b35760405162461bcd60e51b815260206004820152602160248201527f544e543732313a20617070726f76616c20746f2063757272656e74206f776e656044820152603960f91b6064820152608401610415565b336001600160a01b03821614806104cf57506104cf81336102ed565b6105415760405162461bcd60e51b815260206004820152603860248201527f544e543732313a20617070726f76652063616c6c6572206973206e6f74206f7760448201527f6e6572206e6f7220617070726f76656420666f7220616c6c00000000000000006064820152608401610415565b61054b83836109d5565b505050565b600061055c6002610a43565b905090565b61056b3382610a4e565b6105875760405162461bcd60e51b8152600401610415906118a3565b61054b838383610b38565b6001600160a01b03821660009081526001602052604081206105b49083610cb9565b90505b92915050565b61054b838383604051806020016040528060008152506107d5565b6000806105e6600284610cc5565b509392505050565b60006105b782604051806060016040528060298152602001611bb56029913960029190610ce1565b6060600a805461032a90611868565b60006001600160a01b0382166106905760405162461bcd60e51b815260206004820152602a60248201527f544e543732313a2062616c616e636520717565727920666f7220746865207a65604482015269726f206164647265737360b01b6064820152608401610415565b6001600160a01b03821660009081526001602052604090206105b790610cee565b600b546001600160a01b031633146106db5760405162461bcd60e51b8152600401610415906118f4565b80516106ee90600c906020840190611457565b5050565b60606008805461032a90611868565b6001600160a01b03821633141561075a5760405162461bcd60e51b815260206004820152601960248201527f544e543732313a20617070726f766520746f2063616c6c6572000000000000006044820152606401610415565b3360008181526006602090815260408083206001600160a01b03871680855290835292819020805460ff191686151590811790915590519081529192917f17307eab39ab6107e8899845ad3d59bd9653f200f220920489ca2b5937696c31910160405180910390a35050565b6060600c805461032a90611868565b6107df3383610a4e565b6107fb5760405162461bcd60e51b8152600401610415906118a3565b61080784848484610cf8565b50505050565b6060610818826109c8565b61087c5760405162461bcd60e51b815260206004820152602f60248201527f544e543732314d657461646174613a2055524920717565727920666f72206e6f60448201526e3732bc34b9ba32b73a103a37b5b2b760891b6064820152608401610415565b6000828152600960205260408120805461089590611868565b80601f01602080910402602001604051908101604052809291908181526020018280546108c190611868565b801561090e5780601f106108e35761010080835404028352916020019161090e565b820191906000526020600020905b8154815290600101906020018083116108f157829003601f168201915b50505050509050600a805461092290611868565b151590506109305792915050565b80511561096257600a8160405160200161094b929190611964565b604051602081830303815290604052915050919050565b600a61096d84610d2b565b60405160200161094b929190611964565b600b546001600160a01b031633146109a85760405162461bcd60e51b8152600401610415906118f4565b60006109b2610550565b90506109be8382610e42565b61054b8183610e5c565b60006105b7600283610ee5565b600081815260056020526040902080546001600160a01b0319166001600160a01b0384169081179091558190610a0a826105ee565b6001600160a01b03167f8c5be1e5ebec7d5bd14f71427d1e84f3dd0314c0f7b2291e5b200ac8c7c3b92560405160405180910390a45050565b60006105b782610ef1565b6000610a59826109c8565b610aba5760405162461bcd60e51b815260206004820152602c60248201527f544e543732313a206f70657261746f7220717565727920666f72206e6f6e657860448201526b34b9ba32b73a103a37b5b2b760a11b6064820152608401610415565b6000610ac5836105ee565b9050806001600160a01b0316846001600160a01b03161480610b005750836001600160a01b0316610af5846103ad565b6001600160a01b0316145b80610b3057506001600160a01b0380821660009081526006602090815260408083209388168352929052205460ff165b949350505050565b826001600160a01b0316610b4b826105ee565b6001600160a01b031614610bb35760405162461bcd60e51b815260206004820152602960248201527f544e543732313a207472616e73666572206f6620746f6b656e2074686174206960448201526839903737ba1037bbb760b91b6064820152608401610415565b6001600160a01b038216610c155760405162461bcd60e51b8152602060048201526024808201527f544e543732313a207472616e7366657220746f20746865207a65726f206164646044820152637265737360e01b6064820152608401610415565b610c206000826109d5565b6001600160a01b0383166000908152600160205260409020610c429082610efc565b506001600160a01b0382166000908152600160205260409020610c659082610f08565b50610c7260028284610f14565b5080826001600160a01b0316846001600160a01b03167fddf252ad1be2c89b69c2b068fc378daa952ba7f163c4a11628f55a4df523b3ef60405160405180910390a4505050565b60006105b48383610f2a565b6000808080610cd48686610f54565b9097909650945050505050565b6000610b30848484610f7f565b60006105b7825490565b610d03848484610b38565b610d0f84848484610fc2565b6108075760405162461bcd60e51b815260040161041590611a0b565b606081610d4f5750506040805180820190915260018152600360fc1b602082015290565b8160005b8115610d795780610d6381611a73565b9150610d729050600a83611aa4565b9150610d53565b60008167ffffffffffffffff811115610d9457610d9461164e565b6040519080825280601f01601f191660200182016040528015610dbe576020820181803683370190505b5090506000610dce600184611ab8565b90508593505b8315610e3957610de5600a85611acf565b610df0906030611ae3565b60f81b8282610dfe81611afb565b935081518110610e1057610e10611b12565b60200101906001600160f81b031916908160001a905350610e32600a85611aa4565b9350610dd4565b50949350505050565b6106ee828260405180602001604052806000815250611093565b610e65826109c8565b610ec65760405162461bcd60e51b815260206004820152602c60248201527f544e543732314d657461646174613a2055524920736574206f66206e6f6e657860448201526b34b9ba32b73a103a37b5b2b760a11b6064820152608401610415565b6000828152600960209081526040909120825161054b92840190611457565b60006105b483836110c6565b60006105b782610cee565b60006105b483836110e5565b60006105b483836111d8565b6000610b3084846001600160a01b038516611227565b6000826000018281548110610f4157610f41611b12565b9060005260206000200154905092915050565b60008080610f628585610cb9565b600081815260029690960160205260409095205494959350505050565b600082815260028401602052604081205480151580610fa35750610fa385856110c6565b8390610e395760405162461bcd60e51b81526004016104159190611585565b60006001600160a01b0384163b610fdb57506001610b30565b600061105c63df20cc6d60e01b33888787604051602401610fff9493929190611b28565b604051602081830303815290604052906001600160e01b0319166020820180516001600160e01b038381831617835250505050604051806060016040528060328152602001611bde603291396001600160a01b0388169190611244565b90506000818060200190518101906110749190611b65565b6001600160e01b031916630a85bd0160e11b1492505050949350505050565b61109d8383611253565b6110aa6000848484610fc2565b61054b5760405162461bcd60e51b815260040161041590611a0b565b60006105b48383600081815260018301602052604081205415156105b4565b600081815260018301602052604081205480156111ce576000611109600183611ab8565b855490915060009061111d90600190611ab8565b905081811461118257600086600001828154811061113d5761113d611b12565b906000526020600020015490508087600001848154811061116057611160611b12565b6000918252602080832090910192909255918252600188019052604090208390555b855486908061119357611193611b82565b6001900381819060005260206000200160009055905585600101600086815260200190815260200160002060009055600193505050506105b7565b60009150506105b7565b600081815260018301602052604081205461121f575081546001818101845560008481526020808220909301849055845484825282860190935260409020919091556105b7565b5060006105b7565b60008281526002840160205260408120829055610b308484610f08565b6060610b30848460008561136b565b6001600160a01b0382166112a95760405162461bcd60e51b815260206004820181905260248201527f544e543732313a206d696e7420746f20746865207a65726f20616464726573736044820152606401610415565b6112b2816109c8565b156112ff5760405162461bcd60e51b815260206004820152601c60248201527f544e543732313a20746f6b656e20616c7265616479206d696e746564000000006044820152606401610415565b6001600160a01b03821660009081526001602052604090206113219082610f08565b5061132e60028284610f14565b5060405181906001600160a01b038416906000907fddf252ad1be2c89b69c2b068fc378daa952ba7f163c4a11628f55a4df523b3ef908290a45050565b6060843b6113bb5760405162461bcd60e51b815260206004820152601d60248201527f416464726573733a2063616c6c20746f206e6f6e2d636f6e74726163740000006044820152606401610415565b600080866001600160a01b031685876040516113d79190611b98565b60006040518083038185875af1925050503d8060008114611414576040519150601f19603f3d011682016040523d82523d6000602084013e611419565b606091505b5091509150811561142d579150610b309050565b80511561143d5780518082602001fd5b8360405162461bcd60e51b81526004016104159190611585565b82805461146390611868565b90600052602060002090601f01602090048101928261148557600085556114cb565b82601f1061149e57805160ff19168380011785556114cb565b828001600101855582156114cb579182015b828111156114cb5782518255916020019190600101906114b0565b506114d79291506114db565b5090565b5b808211156114d757600081556001016114dc565b6001600160e01b03198116811461150657600080fd5b50565b60006020828403121561151b57600080fd5b8135611526816114f0565b9392505050565b60005b83811015611548578181015183820152602001611530565b838111156108075750506000910152565b6000815180845261157181602086016020860161152d565b601f01601f19169290920160200192915050565b6020815260006105b46020830184611559565b6000602082840312156115aa57600080fd5b5035919050565b80356001600160a01b03811681146115c857600080fd5b919050565b600080604083850312156115e057600080fd5b6115e9836115b1565b946020939093013593505050565b60008060006060848603121561160c57600080fd5b611615846115b1565b9250611623602085016115b1565b9150604084013590509250925092565b60006020828403121561164557600080fd5b6105b4826115b1565b634e487b7160e01b600052604160045260246000fd5b600067ffffffffffffffff8084111561167f5761167f61164e565b604051601f8501601f19908116603f011681019082821181831017156116a7576116a761164e565b816040528093508581528686860111156116c057600080fd5b858560208301376000602087830101525050509392505050565b600082601f8301126116eb57600080fd5b6105b483833560208501611664565b60006020828403121561170c57600080fd5b813567ffffffffffffffff81111561172357600080fd5b610b30848285016116da565b6000806040838503121561174257600080fd5b61174b836115b1565b91506020830135801515811461176057600080fd5b809150509250929050565b6000806000806080858703121561178157600080fd5b61178a856115b1565b9350611798602086016115b1565b925060408501359150606085013567ffffffffffffffff8111156117bb57600080fd5b8501601f810187136117cc57600080fd5b6117db87823560208401611664565b91505092959194509250565b600080604083850312156117fa57600080fd5b611803836115b1565b9150602083013567ffffffffffffffff81111561181f57600080fd5b61182b858286016116da565b9150509250929050565b6000806040838503121561184857600080fd5b611851836115b1565b915061185f602084016115b1565b90509250929050565b600181811c9082168061187c57607f821691505b6020821081141561189d57634e487b7160e01b600052602260045260246000fd5b50919050565b60208082526031908201527f544e543732313a207472616e736665722063616c6c6572206973206e6f74206f6040820152701ddb995c881b9bdc88185c1c1c9bdd9959607a1b606082015260800190565b60208082526034908201527f4f6e6c792063726561746f72206f662074686520636f6e74726163742063616e6040820152731031b0b636103a3434b990333ab731ba34b7b71760611b606082015260800190565b6000815161195a81856020860161152d565b9290920192915050565b600080845481600182811c91508083168061198057607f831692505b60208084108214156119a057634e487b7160e01b86526022600452602486fd5b8180156119b457600181146119c5576119f2565b60ff198616895284890196506119f2565b60008b81526020902060005b868110156119ea5781548b8201529085019083016119d1565b505084890196505b505050505050611a028185611948565b95945050505050565b60208082526032908201527f544e543732313a207472616e7366657220746f206e6f6e20544e54373231526560408201527131b2b4bb32b91034b6b83632b6b2b73a32b960711b606082015260800190565b634e487b7160e01b600052601160045260246000fd5b6000600019821415611a8757611a87611a5d565b5060010190565b634e487b7160e01b600052601260045260246000fd5b600082611ab357611ab3611a8e565b500490565b600082821015611aca57611aca611a5d565b500390565b600082611ade57611ade611a8e565b500690565b60008219821115611af657611af6611a5d565b500190565b600081611b0a57611b0a611a5d565b506000190190565b634e487b7160e01b600052603260045260246000fd5b6001600160a01b0385811682528416602082015260408101839052608060608201819052600090611b5b90830184611559565b9695505050505050565b600060208284031215611b7757600080fd5b8151611526816114f0565b634e487b7160e01b600052603160045260246000fd5b60008251611baa81846020870161152d565b919091019291505056fe544e543732313a206f776e657220717565727920666f72206e6f6e6578697374656e7420746f6b656e544e543732313a207472616e7366657220746f206e6f6e20544e54373231526563656976657220696d706c656d656e746572a2646970667358221220ec95e5b28a893b050c6e5af22ab82e1f2b9c805b60fa2159a1304e9dc0edef6164736f6c634300080c0033",
  "linkReferences": {},
  "deployedLinkReferences": {}
}