{
  "_format": "hh-sol-artifact-1",
  "contractName": "ZNFT",
  "sourceName": "contracts/NFT/ZNFT.sol",
  "abi": [
    {
      "inputs": [
        {
          "internalType": "string",
          "name": "name",
          "type": "string"
        },
        {
          "internalType": "string",
          "name": "symbol",
          "type": "string"
        }
      ],
      "stateMutability": "nonpayable",
      "type": "constructor"
    },
    {
      "anonymous": false,
      "inputs": [
        {
          "indexed": true,
          "internalType": "address",
          "name": "owner",
          "type": "address"
        },
        {
          "indexed": true,
          "internalType": "address",
          "name": "approved",
          "type": "address"
        },
        {
          "indexed": true,
          "internalType": "uint256",
          "name": "tokenId",
          "type": "uint256"
        }
      ],
      "name": "Approval",
      "type": "event"
    },
    {
      "anonymous": false,
      "inputs": [
        {
          "indexed": true,
          "internalType": "address",
          "name": "owner",
          "type": "address"
        },
        {
          "indexed": true,
          "internalType": "address",
          "name": "operator",
          "type": "address"
        },
        {
          "indexed": false,
          "internalType": "bool",
          "name": "approved",
          "type": "bool"
        }
      ],
      "name": "ApprovalForAll",
      "type": "event"
    },
    {
      "anonymous": false,
      "inputs": [
        {
          "indexed": true,
          "internalType": "address",
          "name": "from",
          "type": "address"
        },
        {
          "indexed": true,
          "internalType": "address",
          "name": "to",
          "type": "address"
        },
        {
          "indexed": true,
          "internalType": "uint256",
          "name": "tokenId",
          "type": "uint256"
        }
      ],
      "name": "Transfer",
      "type": "event"
    },
    {
      "inputs": [
        {
          "internalType": "address",
          "name": "to",
          "type": "address"
        },
        {
          "internalType": "uint256",
          "name": "tokenId",
          "type": "uint256"
        }
      ],
      "name": "approve",
      "outputs": [],
      "stateMutability": "nonpayable",
      "type": "function"
    },
    {
      "inputs": [
        {
          "internalType": "address",
          "name": "owner",
          "type": "address"
        }
      ],
      "name": "balanceOf",
      "outputs": [
        {
          "internalType": "uint256",
          "name": "",
          "type": "uint256"
        }
      ],
      "stateMutability": "view",
      "type": "function"
    },
    {
      "inputs": [],
      "name": "baseURI",
      "outputs": [
        {
          "internalType": "string",
          "name": "",
          "type": "string"
        }
      ],
      "stateMutability": "view",
      "type": "function"
    },
    {
      "inputs": [
        {
          "internalType": "uint256",
          "name": "tokenId",
          "type": "uint256"
        }
      ],
      "name": "getApproved",
      "outputs": [
        {
          "internalType": "address",
          "name": "",
          "type": "address"
        }
      ],
      "stateMutability": "view",
      "type": "function"
    },
    {
      "inputs": [],
      "name": "getCreator",
      "outputs": [
        {
          "internalType": "address",
          "name": "",
          "type": "address"
        }
      ],
      "stateMutability": "view",
      "type": "function"
    },
    {
      "inputs": [
        {
          "internalType": "address",
          "name": "owner",
          "type": "address"
        },
        {
          "internalType": "address",
          "name": "operator",
          "type": "address"
        }
      ],
      "name": "isApprovedForAll",
      "outputs": [
        {
          "internalType": "bool",
          "name": "",
          "type": "bool"
        }
      ],
      "stateMutability": "view",
      "type": "function"
    },
    {
      "inputs": [
        {
          "internalType": "address",
          "name": "to",
          "type": "address"
        },
        {
          "internalType": "string",
          "name": "uri",
          "type": "string"
        }
      ],
      "name": "mint",
      "outputs": [],
      "stateMutability": "nonpayable",
      "type": "function"
    },
    {
      "inputs": [
        {
          "internalType": "string",
          "name": "uri",
          "type": "string"
        }
      ],
      "name": "mint",
      "outputs": [],
      "stateMutability": "nonpayable",
      "type": "function"
    },
    {
      "inputs": [
        {
          "internalType": "address",
          "name": "to",
          "type": "address"
        },
        {
          "internalType": "string[]",
          "name": "uris",
          "type": "string[]"
        }
      ],
      "name": "mint",
      "outputs": [],
      "stateMutability": "nonpayable",
      "type": "function"
    },
    {
      "inputs": [],
      "name": "name",
      "outputs": [
        {
          "internalType": "string",
          "name": "",
          "type": "string"
        }
      ],
      "stateMutability": "view",
      "type": "function"
    },
    {
      "inputs": [
        {
          "internalType": "uint256",
          "name": "tokenId",
          "type": "uint256"
        }
      ],
      "name": "ownerOf",
      "outputs": [
        {
          "internalType": "address",
          "name": "",
          "type": "address"
        }
      ],
      "stateMutability": "view",
      "type": "function"
    },
    {
      "inputs": [
        {
          "internalType": "address",
          "name": "from",
          "type": "address"
        },
        {
          "internalType": "address",
          "name": "to",
          "type": "address"
        },
        {
          "internalType": "uint256",
          "name": "tokenId",
          "type": "uint256"
        }
      ],
      "name": "safeTransferFrom",
      "outputs": [],
      "stateMutability": "nonpayable",
      "type": "function"
    },
    {
      "inputs": [
        {
          "internalType": "address",
          "name": "from",
          "type": "address"
        },
        {
          "internalType": "address",
          "name": "to",
          "type": "address"
        },
        {
          "internalType": "uint256",
          "name": "tokenId",
          "type": "uint256"
        },
        {
          "internalType": "bytes",
          "name": "_data",
          "type": "bytes"
        }
      ],
      "name": "safeTransferFrom",
      "outputs": [],
      "stateMutability": "nonpayable",
      "type": "function"
    },
    {
      "inputs": [
        {
          "internalType": "address",
          "name": "operator",
          "type": "address"
        },
        {
          "internalType": "bool",
          "name": "approved",
          "type": "bool"
        }
      ],
      "name": "setApprovalForAll",
      "outputs": [],
      "stateMutability": "nonpayable",
      "type": "function"
    },
    {
      "inputs": [
        {
          "internalType": "bytes4",
          "name": "interfaceId",
          "type": "bytes4"
        }
      ],
      "name": "supportsInterface",
      "outputs": [
        {
          "internalType": "bool",
          "name": "",
          "type": "bool"
        }
      ],
      "stateMutability": "view",
      "type": "function"
    },
    {
      "inputs": [],
      "name": "symbol",
      "outputs": [
        {
          "internalType": "string",
          "name": "",
          "type": "string"
        }
      ],
      "stateMutability": "view",
      "type": "function"
    },
    {
      "inputs": [
        {
          "internalType": "uint256",
          "name": "index",
          "type": "uint256"
        }
      ],
      "name": "tokenByIndex",
      "outputs": [
        {
          "internalType": "uint256",
          "name": "",
          "type": "uint256"
        }
      ],
      "stateMutability": "view",
      "type": "function"
    },
    {
      "inputs": [
        {
          "internalType": "address",
          "name": "owner",
          "type": "address"
        },
        {
          "internalType": "uint256",
          "name": "index",
          "type": "uint256"
        }
      ],
      "name": "tokenOfOwnerByIndex",
      "outputs": [
        {
          "internalType": "uint256",
          "name": "",
          "type": "uint256"
        }
      ],
      "stateMutability": "view",
      "type": "function"
    },
    {
      "inputs": [
        {
          "internalType": "uint256",
          "name": "tokenId",
          "type": "uint256"
        }
      ],
      "name": "tokenURI",
      "outputs": [
        {
          "internalType": "string",
          "name": "",
          "type": "string"
        }
      ],
      "stateMutability": "view",
      "type": "function"
    },
    {
      "inputs": [],
      "name": "totalSupply",
      "outputs": [
        {
          "internalType": "uint256",
          "name": "",
          "type": "uint256"
        }
      ],
      "stateMutability": "view",
      "type": "function"
    },
    {
      "inputs": [
        {
          "internalType": "address",
          "name": "from",
          "type": "address"
        },
        {
          "internalType": "address",
          "name": "to",
          "type": "address"
        },
        {
          "internalType": "uint256",
          "name": "tokenId",
          "type": "uint256"
        }
      ],
      "name": "transferFrom",
      "outputs": [],
      "stateMutability": "nonpayable",
      "type": "function"
    }
  ],
  "bytecode": "0x60806040523480156200001157600080fd5b50604051620021fb380380620021fb8339810160408190526200003491620003b4565b8181620000486301ffc9a760e01b620000e7565b81516200005d90600790602085019062000241565b5080516200007390600890602084019062000241565b50620000866380ac58cd60e01b620000e7565b62000098635b5e139f60e01b620000e7565b620000aa63780e9d6360e01b620000e7565b5050600b80546001600160a01b03191633179055620000df732ee6480c6fd8b71f0a6877bae97991e8d6062f4d60016200016c565b50506200045b565b6001600160e01b03198082161415620001475760405162461bcd60e51b815260206004820152601c60248201527f544e543136353a20696e76616c696420696e746572666163652069640000000060448201526064015b60405180910390fd5b6001600160e01b0319166000908152602081905260409020805460ff19166001179055565b6001600160a01b038216331415620001c75760405162461bcd60e51b815260206004820152601960248201527f544e543732313a20617070726f766520746f2063616c6c65720000000000000060448201526064016200013e565b3360008181526006602090815260408083206001600160a01b0387168085529252909120805460ff1916841515179055906001600160a01b03167f17307eab39ab6107e8899845ad3d59bd9653f200f220920489ca2b5937696c318360405162000235911515815260200190565b60405180910390a35050565b8280546200024f906200041e565b90600052602060002090601f016020900481019282620002735760008555620002be565b82601f106200028e57805160ff1916838001178555620002be565b82800160010185558215620002be579182015b82811115620002be578251825591602001919060010190620002a1565b50620002cc929150620002d0565b5090565b5b80821115620002cc5760008155600101620002d1565b634e487b7160e01b600052604160045260246000fd5b600082601f8301126200030f57600080fd5b81516001600160401b03808211156200032c576200032c620002e7565b604051601f8301601f19908116603f01168101908282118183101715620003575762000357620002e7565b816040528381526020925086838588010111156200037457600080fd5b600091505b8382101562000398578582018301518183018401529082019062000379565b83821115620003aa5760008385830101525b9695505050505050565b60008060408385031215620003c857600080fd5b82516001600160401b0380821115620003e057600080fd5b620003ee86838701620002fd565b935060208501519150808211156200040557600080fd5b506200041485828601620002fd565b9150509250929050565b600181811c908216806200043357607f821691505b602082108114156200045557634e487b7160e01b600052602260045260246000fd5b50919050565b611d90806200046b6000396000f3fe608060405234801561001057600080fd5b50600436106101375760003560e01c80636352211e116100b8578063b88d4fde1161007c578063b88d4fde1461028f578063c87b56dd146102a2578063d0def521146102b5578063d85d3d27146102c8578063d90794cf146102db578063e985e9c5146102ee57600080fd5b80636352211e146102465780636c0360eb1461025957806370a082311461026157806395d89b4114610274578063a22cb4651461027c57600080fd5b806318160ddd116100ff57806318160ddd146101e457806323b872dd146101fa5780632f745c591461020d57806342842e0e146102205780634f6ccce71461023357600080fd5b806301ffc9a71461013c57806306fdde031461017e578063081812fc14610193578063095ea7b3146101be5780630ee2cb10146101d3575b600080fd5b61016961014a36600461156b565b6001600160e01b03191660009081526020819052604090205460ff1690565b60405190151581526020015b60405180910390f35b61018661032a565b60405161017591906115e7565b6101a66101a13660046115fa565b6103bc565b6040516001600160a01b039091168152602001610175565b6101d16101cc36600461162f565b610449565b005b600b546001600160a01b03166101a6565b6101ec61055f565b604051908152602001610175565b6101d1610208366004611659565b610570565b6101ec61021b36600461162f565b6105a1565b6101d161022e366004611659565b6105cc565b6101ec6102413660046115fa565b6105e7565b6101a66102543660046115fa565b6105fd565b610186610625565b6101ec61026f366004611695565b610634565b6101866106c0565b6101d161028a3660046116b0565b6106cf565b6101d161029d36600461178b565b610794565b6101866102b03660046115fa565b6107cc565b6101d16102c3366004611827565b61093d565b6101d16102d6366004611875565b610987565b6101d16102e93660046118aa565b6109be565b6101696102fc366004611980565b6001600160a01b03918216600090815260066020908152604080832093909416825291909152205460ff1690565b606060078054610339906119b3565b80601f0160208091040260200160405190810160405280929190818152602001828054610365906119b3565b80156103b25780601f10610387576101008083540402835291602001916103b2565b820191906000526020600020905b81548152906001019060200180831161039557829003601f168201915b5050505050905090565b60006103c782610a29565b61042d5760405162461bcd60e51b815260206004820152602c60248201527f544e543732313a20617070726f76656420717565727920666f72206e6f6e657860448201526b34b9ba32b73a103a37b5b2b760a11b60648201526084015b60405180910390fd5b506000908152600560205260409020546001600160a01b031690565b6000610454826105fd565b9050806001600160a01b0316836001600160a01b031614156104c25760405162461bcd60e51b815260206004820152602160248201527f544e543732313a20617070726f76616c20746f2063757272656e74206f776e656044820152603960f91b6064820152608401610424565b336001600160a01b03821614806104de57506104de81336102fc565b6105505760405162461bcd60e51b815260206004820152603860248201527f544e543732313a20617070726f76652063616c6c6572206973206e6f74206f7760448201527f6e6572206e6f7220617070726f76656420666f7220616c6c00000000000000006064820152608401610424565b61055a8383610a36565b505050565b600061056b6002610aa4565b905090565b61057a3382610aaf565b6105965760405162461bcd60e51b8152600401610424906119ee565b61055a838383610b99565b6001600160a01b03821660009081526001602052604081206105c39083610d1a565b90505b92915050565b61055a83838360405180602001604052806000815250610794565b6000806105f5600284610d26565b509392505050565b60006105c682604051806060016040528060298152602001611d006029913960029190610d42565b6060600a8054610339906119b3565b60006001600160a01b03821661069f5760405162461bcd60e51b815260206004820152602a60248201527f544e543732313a2062616c616e636520717565727920666f7220746865207a65604482015269726f206164647265737360b01b6064820152608401610424565b6001600160a01b03821660009081526001602052604090206105c690610d4f565b606060088054610339906119b3565b6001600160a01b0382163314156107285760405162461bcd60e51b815260206004820152601960248201527f544e543732313a20617070726f766520746f2063616c6c6572000000000000006044820152606401610424565b3360008181526006602090815260408083206001600160a01b03871680855290835292819020805460ff191686151590811790915590519081529192917f17307eab39ab6107e8899845ad3d59bd9653f200f220920489ca2b5937696c31910160405180910390a35050565b61079e3383610aaf565b6107ba5760405162461bcd60e51b8152600401610424906119ee565b6107c684848484610d59565b50505050565b60606107d782610a29565b61083b5760405162461bcd60e51b815260206004820152602f60248201527f544e543732314d657461646174613a2055524920717565727920666f72206e6f60448201526e3732bc34b9ba32b73a103a37b5b2b760891b6064820152608401610424565b60008281526009602052604081208054610854906119b3565b80601f0160208091040260200160405190810160405280929190818152602001828054610880906119b3565b80156108cd5780601f106108a2576101008083540402835291602001916108cd565b820191906000526020600020905b8154815290600101906020018083116108b057829003601f168201915b50505050509050600a80546108e1906119b3565b151590506108ef5792915050565b80511561092157600a8160405160200161090a929190611a5b565b604051602081830303815290604052915050919050565b600a61092c84610d8c565b60405160200161090a929190611a5b565b600b546001600160a01b031633146109675760405162461bcd60e51b815260040161042490611b02565b600061097161055f565b905061097d8382610ea3565b61055a8183610ec1565b600b546001600160a01b031633146109b15760405162461bcd60e51b815260040161042490611b02565b6109bb338261093d565b50565b600b546001600160a01b031633146109e85760405162461bcd60e51b815260040161042490611b02565b60005b815181101561055a57610a1783838381518110610a0a57610a0a611b56565b602002602001015161093d565b80610a2181611b82565b9150506109eb565b60006105c6600283610f4a565b600081815260056020526040902080546001600160a01b0319166001600160a01b0384169081179091558190610a6b826105fd565b6001600160a01b03167f8c5be1e5ebec7d5bd14f71427d1e84f3dd0314c0f7b2291e5b200ac8c7c3b92560405160405180910390a45050565b60006105c682610f56565b6000610aba82610a29565b610b1b5760405162461bcd60e51b815260206004820152602c60248201527f544e543732313a206f70657261746f7220717565727920666f72206e6f6e657860448201526b34b9ba32b73a103a37b5b2b760a11b6064820152608401610424565b6000610b26836105fd565b9050806001600160a01b0316846001600160a01b03161480610b615750836001600160a01b0316610b56846103bc565b6001600160a01b0316145b80610b9157506001600160a01b0380821660009081526006602090815260408083209388168352929052205460ff165b949350505050565b826001600160a01b0316610bac826105fd565b6001600160a01b031614610c145760405162461bcd60e51b815260206004820152602960248201527f544e543732313a207472616e73666572206f6620746f6b656e2074686174206960448201526839903737ba1037bbb760b91b6064820152608401610424565b6001600160a01b038216610c765760405162461bcd60e51b8152602060048201526024808201527f544e543732313a207472616e7366657220746f20746865207a65726f206164646044820152637265737360e01b6064820152608401610424565b610c81600082610a36565b6001600160a01b0383166000908152600160205260409020610ca39082610f61565b506001600160a01b0382166000908152600160205260409020610cc69082610f6d565b50610cd360028284610f79565b5080826001600160a01b0316846001600160a01b03167fddf252ad1be2c89b69c2b068fc378daa952ba7f163c4a11628f55a4df523b3ef60405160405180910390a4505050565b60006105c38383610f8f565b6000808080610d358686610fb9565b9097909650945050505050565b6000610b91848484610fe4565b60006105c6825490565b610d64848484610b99565b610d7084848484611027565b6107c65760405162461bcd60e51b815260040161042490611b9d565b606081610db05750506040805180820190915260018152600360fc1b602082015290565b8160005b8115610dda5780610dc481611b82565b9150610dd39050600a83611c05565b9150610db4565b60008167ffffffffffffffff811115610df557610df56116ec565b6040519080825280601f01601f191660200182016040528015610e1f576020820181803683370190505b5090506000610e2f600184611c19565b90508593505b8315610e9a57610e46600a85611c30565b610e51906030611c44565b60f81b8282610e5f81611c5c565b935081518110610e7157610e71611b56565b60200101906001600160f81b031916908160001a905350610e93600a85611c05565b9350610e35565b50949350505050565b610ebd8282604051806020016040528060008152506110f8565b5050565b610eca82610a29565b610f2b5760405162461bcd60e51b815260206004820152602c60248201527f544e543732314d657461646174613a2055524920736574206f66206e6f6e657860448201526b34b9ba32b73a103a37b5b2b760a11b6064820152608401610424565b6000828152600960209081526040909120825161055a928401906114bc565b60006105c3838361112b565b60006105c682610d4f565b60006105c3838361114a565b60006105c3838361123d565b6000610b9184846001600160a01b03851661128c565b6000826000018281548110610fa657610fa6611b56565b9060005260206000200154905092915050565b60008080610fc78585610d1a565b600081815260029690960160205260409095205494959350505050565b6000828152600284016020526040812054801515806110085750611008858561112b565b8390610e9a5760405162461bcd60e51b815260040161042491906115e7565b60006001600160a01b0384163b61104057506001610b91565b60006110c163df20cc6d60e01b338887876040516024016110649493929190611c73565b604051602081830303815290604052906001600160e01b0319166020820180516001600160e01b038381831617835250505050604051806060016040528060328152602001611d29603291396001600160a01b03881691906112a9565b90506000818060200190518101906110d99190611cb0565b6001600160e01b031916630a85bd0160e11b1492505050949350505050565b61110283836112b8565b61110f6000848484611027565b61055a5760405162461bcd60e51b815260040161042490611b9d565b60006105c38383600081815260018301602052604081205415156105c3565b6000818152600183016020526040812054801561123357600061116e600183611c19565b855490915060009061118290600190611c19565b90508181146111e75760008660000182815481106111a2576111a2611b56565b90600052602060002001549050808760000184815481106111c5576111c5611b56565b6000918252602080832090910192909255918252600188019052604090208390555b85548690806111f8576111f8611ccd565b6001900381819060005260206000200160009055905585600101600086815260200190815260200160002060009055600193505050506105c6565b60009150506105c6565b6000818152600183016020526040812054611284575081546001818101845560008481526020808220909301849055845484825282860190935260409020919091556105c6565b5060006105c6565b60008281526002840160205260408120829055610b918484610f6d565b6060610b9184846000856113d0565b6001600160a01b03821661130e5760405162461bcd60e51b815260206004820181905260248201527f544e543732313a206d696e7420746f20746865207a65726f20616464726573736044820152606401610424565b61131781610a29565b156113645760405162461bcd60e51b815260206004820152601c60248201527f544e543732313a20746f6b656e20616c7265616479206d696e746564000000006044820152606401610424565b6001600160a01b03821660009081526001602052604090206113869082610f6d565b5061139360028284610f79565b5060405181906001600160a01b038416906000907fddf252ad1be2c89b69c2b068fc378daa952ba7f163c4a11628f55a4df523b3ef908290a45050565b6060843b6114205760405162461bcd60e51b815260206004820152601d60248201527f416464726573733a2063616c6c20746f206e6f6e2d636f6e74726163740000006044820152606401610424565b600080866001600160a01b0316858760405161143c9190611ce3565b60006040518083038185875af1925050503d8060008114611479576040519150601f19603f3d011682016040523d82523d6000602084013e61147e565b606091505b50915091508115611492579150610b919050565b8051156114a25780518082602001fd5b8360405162461bcd60e51b815260040161042491906115e7565b8280546114c8906119b3565b90600052602060002090601f0160209004810192826114ea5760008555611530565b82601f1061150357805160ff1916838001178555611530565b82800160010185558215611530579182015b82811115611530578251825591602001919060010190611515565b5061153c929150611540565b5090565b5b8082111561153c5760008155600101611541565b6001600160e01b0319811681146109bb57600080fd5b60006020828403121561157d57600080fd5b813561158881611555565b9392505050565b60005b838110156115aa578181015183820152602001611592565b838111156107c65750506000910152565b600081518084526115d381602086016020860161158f565b601f01601f19169290920160200192915050565b6020815260006105c360208301846115bb565b60006020828403121561160c57600080fd5b5035919050565b80356001600160a01b038116811461162a57600080fd5b919050565b6000806040838503121561164257600080fd5b61164b83611613565b946020939093013593505050565b60008060006060848603121561166e57600080fd5b61167784611613565b925061168560208501611613565b9150604084013590509250925092565b6000602082840312156116a757600080fd5b6105c382611613565b600080604083850312156116c357600080fd5b6116cc83611613565b9150602083013580151581146116e157600080fd5b809150509250929050565b634e487b7160e01b600052604160045260246000fd5b604051601f8201601f1916810167ffffffffffffffff8111828210171561172b5761172b6116ec565b604052919050565b600067ffffffffffffffff83111561174d5761174d6116ec565b611760601f8401601f1916602001611702565b905082815283838301111561177457600080fd5b828260208301376000602084830101529392505050565b600080600080608085870312156117a157600080fd5b6117aa85611613565b93506117b860208601611613565b925060408501359150606085013567ffffffffffffffff8111156117db57600080fd5b8501601f810187136117ec57600080fd5b6117fb87823560208401611733565b91505092959194509250565b600082601f83011261181857600080fd5b6105c383833560208501611733565b6000806040838503121561183a57600080fd5b61184383611613565b9150602083013567ffffffffffffffff81111561185f57600080fd5b61186b85828601611807565b9150509250929050565b60006020828403121561188757600080fd5b813567ffffffffffffffff81111561189e57600080fd5b610b9184828501611807565b600080604083850312156118bd57600080fd5b6118c683611613565b915060208084013567ffffffffffffffff808211156118e457600080fd5b818601915086601f8301126118f857600080fd5b81358181111561190a5761190a6116ec565b8060051b611919858201611702565b918252838101850191858101908a84111561193357600080fd5b86860192505b8383101561196f578235858111156119515760008081fd5b61195f8c89838a0101611807565b8352509186019190860190611939565b809750505050505050509250929050565b6000806040838503121561199357600080fd5b61199c83611613565b91506119aa60208401611613565b90509250929050565b600181811c908216806119c757607f821691505b602082108114156119e857634e487b7160e01b600052602260045260246000fd5b50919050565b60208082526031908201527f544e543732313a207472616e736665722063616c6c6572206973206e6f74206f6040820152701ddb995c881b9bdc88185c1c1c9bdd9959607a1b606082015260800190565b60008151611a5181856020860161158f565b9290920192915050565b600080845481600182811c915080831680611a7757607f831692505b6020808410821415611a9757634e487b7160e01b86526022600452602486fd5b818015611aab5760018114611abc57611ae9565b60ff19861689528489019650611ae9565b60008b81526020902060005b86811015611ae15781548b820152908501908301611ac8565b505084890196505b505050505050611af98185611a3f565b95945050505050565b60208082526034908201527f4f6e6c792063726561746f72206f662074686520636f6e74726163742063616e6040820152731031b0b636103a3434b990333ab731ba34b7b71760611b606082015260800190565b634e487b7160e01b600052603260045260246000fd5b634e487b7160e01b600052601160045260246000fd5b6000600019821415611b9657611b96611b6c565b5060010190565b60208082526032908201527f544e543732313a207472616e7366657220746f206e6f6e20544e54373231526560408201527131b2b4bb32b91034b6b83632b6b2b73a32b960711b606082015260800190565b634e487b7160e01b600052601260045260246000fd5b600082611c1457611c14611bef565b500490565b600082821015611c2b57611c2b611b6c565b500390565b600082611c3f57611c3f611bef565b500690565b60008219821115611c5757611c57611b6c565b500190565b600081611c6b57611c6b611b6c565b506000190190565b6001600160a01b0385811682528416602082015260408101839052608060608201819052600090611ca6908301846115bb565b9695505050505050565b600060208284031215611cc257600080fd5b815161158881611555565b634e487b7160e01b600052603160045260246000fd5b60008251611cf581846020870161158f565b919091019291505056fe544e543732313a206f776e657220717565727920666f72206e6f6e6578697374656e7420746f6b656e544e543732313a207472616e7366657220746f206e6f6e20544e54373231526563656976657220696d706c656d656e746572a2646970667358221220484086560cfae5a1e3fb805f666dd5cf3dba9eb852f71b1294855614cb4fc9d564736f6c634300080c0033",
  "linkReferences": {},
  "deployedLinkReferences": {}
}