{
  "_format": "hh-sol-artifact-1",
  "contractName": "ZNFT",
  "sourceName": "contracts/NFT/ZNFT.sol",
  "abi": [
    {
      "inputs": [
        {
          "internalType": "string",
          "name": "name",
          "type": "string"
        },
        {
          "internalType": "string",
          "name": "symbol",
          "type": "string"
        },
        {
          "internalType": "string",
          "name": "collectionURI_",
          "type": "string"
        }
      ],
      "stateMutability": "nonpayable",
      "type": "constructor"
    },
    {
      "anonymous": false,
      "inputs": [
        {
          "indexed": true,
          "internalType": "address",
          "name": "owner",
          "type": "address"
        },
        {
          "indexed": true,
          "internalType": "address",
          "name": "approved",
          "type": "address"
        },
        {
          "indexed": true,
          "internalType": "uint256",
          "name": "tokenId",
          "type": "uint256"
        }
      ],
      "name": "Approval",
      "type": "event"
    },
    {
      "anonymous": false,
      "inputs": [
        {
          "indexed": true,
          "internalType": "address",
          "name": "owner",
          "type": "address"
        },
        {
          "indexed": true,
          "internalType": "address",
          "name": "operator",
          "type": "address"
        },
        {
          "indexed": false,
          "internalType": "bool",
          "name": "approved",
          "type": "bool"
        }
      ],
      "name": "ApprovalForAll",
      "type": "event"
    },
    {
      "anonymous": false,
      "inputs": [
        {
          "indexed": true,
          "internalType": "address",
          "name": "from",
          "type": "address"
        },
        {
          "indexed": true,
          "internalType": "address",
          "name": "to",
          "type": "address"
        },
        {
          "indexed": true,
          "internalType": "uint256",
          "name": "tokenId",
          "type": "uint256"
        }
      ],
      "name": "Transfer",
      "type": "event"
    },
    {
      "inputs": [
        {
          "internalType": "address",
          "name": "to",
          "type": "address"
        },
        {
          "internalType": "uint256",
          "name": "tokenId",
          "type": "uint256"
        }
      ],
      "name": "approve",
      "outputs": [],
      "stateMutability": "nonpayable",
      "type": "function"
    },
    {
      "inputs": [
        {
          "internalType": "address",
          "name": "owner",
          "type": "address"
        }
      ],
      "name": "balanceOf",
      "outputs": [
        {
          "internalType": "uint256",
          "name": "",
          "type": "uint256"
        }
      ],
      "stateMutability": "view",
      "type": "function"
    },
    {
      "inputs": [],
      "name": "baseURI",
      "outputs": [
        {
          "internalType": "string",
          "name": "",
          "type": "string"
        }
      ],
      "stateMutability": "view",
      "type": "function"
    },
    {
      "inputs": [],
      "name": "collectionURI",
      "outputs": [
        {
          "internalType": "string",
          "name": "",
          "type": "string"
        }
      ],
      "stateMutability": "view",
      "type": "function"
    },
    {
      "inputs": [],
      "name": "creator",
      "outputs": [
        {
          "internalType": "address",
          "name": "",
          "type": "address"
        }
      ],
      "stateMutability": "view",
      "type": "function"
    },
    {
      "inputs": [
        {
          "internalType": "uint256",
          "name": "tokenId",
          "type": "uint256"
        }
      ],
      "name": "getApproved",
      "outputs": [
        {
          "internalType": "address",
          "name": "",
          "type": "address"
        }
      ],
      "stateMutability": "view",
      "type": "function"
    },
    {
      "inputs": [
        {
          "internalType": "address",
          "name": "owner",
          "type": "address"
        },
        {
          "internalType": "address",
          "name": "operator",
          "type": "address"
        }
      ],
      "name": "isApprovedForAll",
      "outputs": [
        {
          "internalType": "bool",
          "name": "",
          "type": "bool"
        }
      ],
      "stateMutability": "view",
      "type": "function"
    },
    {
      "inputs": [
        {
          "internalType": "address",
          "name": "to",
          "type": "address"
        },
        {
          "internalType": "string",
          "name": "uri",
          "type": "string"
        }
      ],
      "name": "mint",
      "outputs": [],
      "stateMutability": "nonpayable",
      "type": "function"
    },
    {
      "inputs": [
        {
          "internalType": "string",
          "name": "uri",
          "type": "string"
        }
      ],
      "name": "mint",
      "outputs": [],
      "stateMutability": "nonpayable",
      "type": "function"
    },
    {
      "inputs": [
        {
          "internalType": "address",
          "name": "to",
          "type": "address"
        },
        {
          "internalType": "string[]",
          "name": "uris",
          "type": "string[]"
        }
      ],
      "name": "mint",
      "outputs": [],
      "stateMutability": "nonpayable",
      "type": "function"
    },
    {
      "inputs": [],
      "name": "name",
      "outputs": [
        {
          "internalType": "string",
          "name": "",
          "type": "string"
        }
      ],
      "stateMutability": "view",
      "type": "function"
    },
    {
      "inputs": [
        {
          "internalType": "uint256",
          "name": "tokenId",
          "type": "uint256"
        }
      ],
      "name": "ownerOf",
      "outputs": [
        {
          "internalType": "address",
          "name": "",
          "type": "address"
        }
      ],
      "stateMutability": "view",
      "type": "function"
    },
    {
      "inputs": [
        {
          "internalType": "address",
          "name": "from",
          "type": "address"
        },
        {
          "internalType": "address",
          "name": "to",
          "type": "address"
        },
        {
          "internalType": "uint256",
          "name": "tokenId",
          "type": "uint256"
        }
      ],
      "name": "safeTransferFrom",
      "outputs": [],
      "stateMutability": "nonpayable",
      "type": "function"
    },
    {
      "inputs": [
        {
          "internalType": "address",
          "name": "from",
          "type": "address"
        },
        {
          "internalType": "address",
          "name": "to",
          "type": "address"
        },
        {
          "internalType": "uint256",
          "name": "tokenId",
          "type": "uint256"
        },
        {
          "internalType": "bytes",
          "name": "_data",
          "type": "bytes"
        }
      ],
      "name": "safeTransferFrom",
      "outputs": [],
      "stateMutability": "nonpayable",
      "type": "function"
    },
    {
      "inputs": [
        {
          "internalType": "address",
          "name": "operator",
          "type": "address"
        },
        {
          "internalType": "bool",
          "name": "approved",
          "type": "bool"
        }
      ],
      "name": "setApprovalForAll",
      "outputs": [],
      "stateMutability": "nonpayable",
      "type": "function"
    },
    {
      "inputs": [
        {
          "internalType": "bytes4",
          "name": "interfaceId",
          "type": "bytes4"
        }
      ],
      "name": "supportsInterface",
      "outputs": [
        {
          "internalType": "bool",
          "name": "",
          "type": "bool"
        }
      ],
      "stateMutability": "view",
      "type": "function"
    },
    {
      "inputs": [],
      "name": "symbol",
      "outputs": [
        {
          "internalType": "string",
          "name": "",
          "type": "string"
        }
      ],
      "stateMutability": "view",
      "type": "function"
    },
    {
      "inputs": [
        {
          "internalType": "uint256",
          "name": "index",
          "type": "uint256"
        }
      ],
      "name": "tokenByIndex",
      "outputs": [
        {
          "internalType": "uint256",
          "name": "",
          "type": "uint256"
        }
      ],
      "stateMutability": "view",
      "type": "function"
    },
    {
      "inputs": [
        {
          "internalType": "address",
          "name": "owner",
          "type": "address"
        },
        {
          "internalType": "uint256",
          "name": "index",
          "type": "uint256"
        }
      ],
      "name": "tokenOfOwnerByIndex",
      "outputs": [
        {
          "internalType": "uint256",
          "name": "",
          "type": "uint256"
        }
      ],
      "stateMutability": "view",
      "type": "function"
    },
    {
      "inputs": [
        {
          "internalType": "uint256",
          "name": "tokenId",
          "type": "uint256"
        }
      ],
      "name": "tokenURI",
      "outputs": [
        {
          "internalType": "string",
          "name": "",
          "type": "string"
        }
      ],
      "stateMutability": "view",
      "type": "function"
    },
    {
      "inputs": [],
      "name": "totalSupply",
      "outputs": [
        {
          "internalType": "uint256",
          "name": "",
          "type": "uint256"
        }
      ],
      "stateMutability": "view",
      "type": "function"
    },
    {
      "inputs": [
        {
          "internalType": "address",
          "name": "from",
          "type": "address"
        },
        {
          "internalType": "address",
          "name": "to",
          "type": "address"
        },
        {
          "internalType": "uint256",
          "name": "tokenId",
          "type": "uint256"
        }
      ],
      "name": "transferFrom",
      "outputs": [],
      "stateMutability": "nonpayable",
      "type": "function"
    }
  ],
  "bytecode": "0x60806040523480156200001157600080fd5b5060405162002269380380620022698339810160408190526200003491620003dd565b8282620000486301ffc9a760e01b62000110565b81516200005d9060079060208501906200026a565b508051620000739060089060208401906200026a565b50620000866380ac58cd60e01b62000110565b62000098635b5e139f60e01b62000110565b620000aa63780e9d6360e01b62000110565b5050600b80546001600160a01b031916331790558051620000d390600c9060208401906200026a565b50620000f5732ee6480c6fd8b71f0a6877bae97991e8d6062f4d600162000195565b62000107631693919560e21b62000110565b505050620004ab565b6001600160e01b03198082161415620001705760405162461bcd60e51b815260206004820152601c60248201527f544e543136353a20696e76616c696420696e746572666163652069640000000060448201526064015b60405180910390fd5b6001600160e01b0319166000908152602081905260409020805460ff19166001179055565b6001600160a01b038216331415620001f05760405162461bcd60e51b815260206004820152601960248201527f544e543732313a20617070726f766520746f2063616c6c657200000000000000604482015260640162000167565b3360008181526006602090815260408083206001600160a01b0387168085529252909120805460ff1916841515179055906001600160a01b03167f17307eab39ab6107e8899845ad3d59bd9653f200f220920489ca2b5937696c31836040516200025e911515815260200190565b60405180910390a35050565b82805462000278906200046e565b90600052602060002090601f0160209004810192826200029c5760008555620002e7565b82601f10620002b757805160ff1916838001178555620002e7565b82800160010185558215620002e7579182015b82811115620002e7578251825591602001919060010190620002ca565b50620002f5929150620002f9565b5090565b5b80821115620002f55760008155600101620002fa565b634e487b7160e01b600052604160045260246000fd5b600082601f8301126200033857600080fd5b81516001600160401b038082111562000355576200035562000310565b604051601f8301601f19908116603f0116810190828211818310171562000380576200038062000310565b816040528381526020925086838588010111156200039d57600080fd5b600091505b83821015620003c15785820183015181830184015290820190620003a2565b83821115620003d35760008385830101525b9695505050505050565b600080600060608486031215620003f357600080fd5b83516001600160401b03808211156200040b57600080fd5b620004198783880162000326565b945060208601519150808211156200043057600080fd5b6200043e8783880162000326565b935060408601519150808211156200045557600080fd5b50620004648682870162000326565b9150509250925092565b600181811c908216806200048357607f821691505b60208210811415620004a557634e487b7160e01b600052602260045260246000fd5b50919050565b611dae80620004bb6000396000f3fe608060405234801561001057600080fd5b50600436106101425760003560e01c80636c0360eb116100b8578063b88d4fde1161007c578063b88d4fde1461029e578063c87b56dd146102b1578063d0def521146102c4578063d85d3d27146102d7578063d90794cf146102ea578063e985e9c5146102fd57600080fd5b80636c0360eb1461026057806370a082311461026857806395d89b411461027b578063a22cb46514610283578063a5097ebf1461029657600080fd5b806318160ddd1161010a57806318160ddd146101eb57806323b872dd146102015780632f745c591461021457806342842e0e146102275780634f6ccce71461023a5780636352211e1461024d57600080fd5b806301ffc9a71461014757806302d05d3f1461018957806306fdde03146101ae578063081812fc146101c3578063095ea7b3146101d6575b600080fd5b610174610155366004611589565b6001600160e01b03191660009081526020819052604090205460ff1690565b60405190151581526020015b60405180910390f35b600b546001600160a01b03165b6040516001600160a01b039091168152602001610180565b6101b6610339565b6040516101809190611605565b6101966101d1366004611618565b6103cb565b6101e96101e436600461164d565b610458565b005b6101f361056e565b604051908152602001610180565b6101e961020f366004611677565b61057f565b6101f361022236600461164d565b6105b0565b6101e9610235366004611677565b6105db565b6101f3610248366004611618565b6105f6565b61019661025b366004611618565b61060c565b6101b6610634565b6101f36102763660046116b3565b610643565b6101b66106cf565b6101e96102913660046116ce565b6106de565b6101b66107a3565b6101e96102ac3660046117a9565b6107b2565b6101b66102bf366004611618565b6107ea565b6101e96102d2366004611845565b61095b565b6101e96102e5366004611893565b6109a5565b6101e96102f83660046118c8565b6109dc565b61017461030b36600461199e565b6001600160a01b03918216600090815260066020908152604080832093909416825291909152205460ff1690565b606060078054610348906119d1565b80601f0160208091040260200160405190810160405280929190818152602001828054610374906119d1565b80156103c15780601f10610396576101008083540402835291602001916103c1565b820191906000526020600020905b8154815290600101906020018083116103a457829003601f168201915b5050505050905090565b60006103d682610a47565b61043c5760405162461bcd60e51b815260206004820152602c60248201527f544e543732313a20617070726f76656420717565727920666f72206e6f6e657860448201526b34b9ba32b73a103a37b5b2b760a11b60648201526084015b60405180910390fd5b506000908152600560205260409020546001600160a01b031690565b60006104638261060c565b9050806001600160a01b0316836001600160a01b031614156104d15760405162461bcd60e51b815260206004820152602160248201527f544e543732313a20617070726f76616c20746f2063757272656e74206f776e656044820152603960f91b6064820152608401610433565b336001600160a01b03821614806104ed57506104ed813361030b565b61055f5760405162461bcd60e51b815260206004820152603860248201527f544e543732313a20617070726f76652063616c6c6572206973206e6f74206f7760448201527f6e6572206e6f7220617070726f76656420666f7220616c6c00000000000000006064820152608401610433565b6105698383610a54565b505050565b600061057a6002610ac2565b905090565b6105893382610acd565b6105a55760405162461bcd60e51b815260040161043390611a0c565b610569838383610bb7565b6001600160a01b03821660009081526001602052604081206105d29083610d38565b90505b92915050565b610569838383604051806020016040528060008152506107b2565b600080610604600284610d44565b509392505050565b60006105d582604051806060016040528060298152602001611d1e6029913960029190610d60565b6060600a8054610348906119d1565b60006001600160a01b0382166106ae5760405162461bcd60e51b815260206004820152602a60248201527f544e543732313a2062616c616e636520717565727920666f7220746865207a65604482015269726f206164647265737360b01b6064820152608401610433565b6001600160a01b03821660009081526001602052604090206105d590610d6d565b606060088054610348906119d1565b6001600160a01b0382163314156107375760405162461bcd60e51b815260206004820152601960248201527f544e543732313a20617070726f766520746f2063616c6c6572000000000000006044820152606401610433565b3360008181526006602090815260408083206001600160a01b03871680855290835292819020805460ff191686151590811790915590519081529192917f17307eab39ab6107e8899845ad3d59bd9653f200f220920489ca2b5937696c31910160405180910390a35050565b6060600c8054610348906119d1565b6107bc3383610acd565b6107d85760405162461bcd60e51b815260040161043390611a0c565b6107e484848484610d77565b50505050565b60606107f582610a47565b6108595760405162461bcd60e51b815260206004820152602f60248201527f544e543732314d657461646174613a2055524920717565727920666f72206e6f60448201526e3732bc34b9ba32b73a103a37b5b2b760891b6064820152608401610433565b60008281526009602052604081208054610872906119d1565b80601f016020809104026020016040519081016040528092919081815260200182805461089e906119d1565b80156108eb5780601f106108c0576101008083540402835291602001916108eb565b820191906000526020600020905b8154815290600101906020018083116108ce57829003601f168201915b50505050509050600a80546108ff906119d1565b1515905061090d5792915050565b80511561093f57600a81604051602001610928929190611a79565b604051602081830303815290604052915050919050565b600a61094a84610daa565b604051602001610928929190611a79565b600b546001600160a01b031633146109855760405162461bcd60e51b815260040161043390611b20565b600061098f61056e565b905061099b8382610ec1565b6105698183610edf565b600b546001600160a01b031633146109cf5760405162461bcd60e51b815260040161043390611b20565b6109d9338261095b565b50565b600b546001600160a01b03163314610a065760405162461bcd60e51b815260040161043390611b20565b60005b815181101561056957610a3583838381518110610a2857610a28611b74565b602002602001015161095b565b80610a3f81611ba0565b915050610a09565b60006105d5600283610f68565b600081815260056020526040902080546001600160a01b0319166001600160a01b0384169081179091558190610a898261060c565b6001600160a01b03167f8c5be1e5ebec7d5bd14f71427d1e84f3dd0314c0f7b2291e5b200ac8c7c3b92560405160405180910390a45050565b60006105d582610f74565b6000610ad882610a47565b610b395760405162461bcd60e51b815260206004820152602c60248201527f544e543732313a206f70657261746f7220717565727920666f72206e6f6e657860448201526b34b9ba32b73a103a37b5b2b760a11b6064820152608401610433565b6000610b448361060c565b9050806001600160a01b0316846001600160a01b03161480610b7f5750836001600160a01b0316610b74846103cb565b6001600160a01b0316145b80610baf57506001600160a01b0380821660009081526006602090815260408083209388168352929052205460ff165b949350505050565b826001600160a01b0316610bca8261060c565b6001600160a01b031614610c325760405162461bcd60e51b815260206004820152602960248201527f544e543732313a207472616e73666572206f6620746f6b656e2074686174206960448201526839903737ba1037bbb760b91b6064820152608401610433565b6001600160a01b038216610c945760405162461bcd60e51b8152602060048201526024808201527f544e543732313a207472616e7366657220746f20746865207a65726f206164646044820152637265737360e01b6064820152608401610433565b610c9f600082610a54565b6001600160a01b0383166000908152600160205260409020610cc19082610f7f565b506001600160a01b0382166000908152600160205260409020610ce49082610f8b565b50610cf160028284610f97565b5080826001600160a01b0316846001600160a01b03167fddf252ad1be2c89b69c2b068fc378daa952ba7f163c4a11628f55a4df523b3ef60405160405180910390a4505050565b60006105d28383610fad565b6000808080610d538686610fd7565b9097909650945050505050565b6000610baf848484611002565b60006105d5825490565b610d82848484610bb7565b610d8e84848484611045565b6107e45760405162461bcd60e51b815260040161043390611bbb565b606081610dce5750506040805180820190915260018152600360fc1b602082015290565b8160005b8115610df85780610de281611ba0565b9150610df19050600a83611c23565b9150610dd2565b60008167ffffffffffffffff811115610e1357610e1361170a565b6040519080825280601f01601f191660200182016040528015610e3d576020820181803683370190505b5090506000610e4d600184611c37565b90508593505b8315610eb857610e64600a85611c4e565b610e6f906030611c62565b60f81b8282610e7d81611c7a565b935081518110610e8f57610e8f611b74565b60200101906001600160f81b031916908160001a905350610eb1600a85611c23565b9350610e53565b50949350505050565b610edb828260405180602001604052806000815250611116565b5050565b610ee882610a47565b610f495760405162461bcd60e51b815260206004820152602c60248201527f544e543732314d657461646174613a2055524920736574206f66206e6f6e657860448201526b34b9ba32b73a103a37b5b2b760a11b6064820152608401610433565b60008281526009602090815260409091208251610569928401906114da565b60006105d28383611149565b60006105d582610d6d565b60006105d28383611168565b60006105d2838361125b565b6000610baf84846001600160a01b0385166112aa565b6000826000018281548110610fc457610fc4611b74565b9060005260206000200154905092915050565b60008080610fe58585610d38565b600081815260029690960160205260409095205494959350505050565b60008281526002840160205260408120548015158061102657506110268585611149565b8390610eb85760405162461bcd60e51b81526004016104339190611605565b60006001600160a01b0384163b61105e57506001610baf565b60006110df63df20cc6d60e01b338887876040516024016110829493929190611c91565b604051602081830303815290604052906001600160e01b0319166020820180516001600160e01b038381831617835250505050604051806060016040528060328152602001611d47603291396001600160a01b03881691906112c7565b90506000818060200190518101906110f79190611cce565b6001600160e01b031916630a85bd0160e11b1492505050949350505050565b61112083836112d6565b61112d6000848484611045565b6105695760405162461bcd60e51b815260040161043390611bbb565b60006105d28383600081815260018301602052604081205415156105d2565b6000818152600183016020526040812054801561125157600061118c600183611c37565b85549091506000906111a090600190611c37565b90508181146112055760008660000182815481106111c0576111c0611b74565b90600052602060002001549050808760000184815481106111e3576111e3611b74565b6000918252602080832090910192909255918252600188019052604090208390555b855486908061121657611216611ceb565b6001900381819060005260206000200160009055905585600101600086815260200190815260200160002060009055600193505050506105d5565b60009150506105d5565b60008181526001830160205260408120546112a2575081546001818101845560008481526020808220909301849055845484825282860190935260409020919091556105d5565b5060006105d5565b60008281526002840160205260408120829055610baf8484610f8b565b6060610baf84846000856113ee565b6001600160a01b03821661132c5760405162461bcd60e51b815260206004820181905260248201527f544e543732313a206d696e7420746f20746865207a65726f20616464726573736044820152606401610433565b61133581610a47565b156113825760405162461bcd60e51b815260206004820152601c60248201527f544e543732313a20746f6b656e20616c7265616479206d696e746564000000006044820152606401610433565b6001600160a01b03821660009081526001602052604090206113a49082610f8b565b506113b160028284610f97565b5060405181906001600160a01b038416906000907fddf252ad1be2c89b69c2b068fc378daa952ba7f163c4a11628f55a4df523b3ef908290a45050565b6060843b61143e5760405162461bcd60e51b815260206004820152601d60248201527f416464726573733a2063616c6c20746f206e6f6e2d636f6e74726163740000006044820152606401610433565b600080866001600160a01b0316858760405161145a9190611d01565b60006040518083038185875af1925050503d8060008114611497576040519150601f19603f3d011682016040523d82523d6000602084013e61149c565b606091505b509150915081156114b0579150610baf9050565b8051156114c05780518082602001fd5b8360405162461bcd60e51b81526004016104339190611605565b8280546114e6906119d1565b90600052602060002090601f016020900481019282611508576000855561154e565b82601f1061152157805160ff191683800117855561154e565b8280016001018555821561154e579182015b8281111561154e578251825591602001919060010190611533565b5061155a92915061155e565b5090565b5b8082111561155a576000815560010161155f565b6001600160e01b0319811681146109d957600080fd5b60006020828403121561159b57600080fd5b81356115a681611573565b9392505050565b60005b838110156115c85781810151838201526020016115b0565b838111156107e45750506000910152565b600081518084526115f18160208601602086016115ad565b601f01601f19169290920160200192915050565b6020815260006105d260208301846115d9565b60006020828403121561162a57600080fd5b5035919050565b80356001600160a01b038116811461164857600080fd5b919050565b6000806040838503121561166057600080fd5b61166983611631565b946020939093013593505050565b60008060006060848603121561168c57600080fd5b61169584611631565b92506116a360208501611631565b9150604084013590509250925092565b6000602082840312156116c557600080fd5b6105d282611631565b600080604083850312156116e157600080fd5b6116ea83611631565b9150602083013580151581146116ff57600080fd5b809150509250929050565b634e487b7160e01b600052604160045260246000fd5b604051601f8201601f1916810167ffffffffffffffff811182821017156117495761174961170a565b604052919050565b600067ffffffffffffffff83111561176b5761176b61170a565b61177e601f8401601f1916602001611720565b905082815283838301111561179257600080fd5b828260208301376000602084830101529392505050565b600080600080608085870312156117bf57600080fd5b6117c885611631565b93506117d660208601611631565b925060408501359150606085013567ffffffffffffffff8111156117f957600080fd5b8501601f8101871361180a57600080fd5b61181987823560208401611751565b91505092959194509250565b600082601f83011261183657600080fd5b6105d283833560208501611751565b6000806040838503121561185857600080fd5b61186183611631565b9150602083013567ffffffffffffffff81111561187d57600080fd5b61188985828601611825565b9150509250929050565b6000602082840312156118a557600080fd5b813567ffffffffffffffff8111156118bc57600080fd5b610baf84828501611825565b600080604083850312156118db57600080fd5b6118e483611631565b915060208084013567ffffffffffffffff8082111561190257600080fd5b818601915086601f83011261191657600080fd5b8135818111156119285761192861170a565b8060051b611937858201611720565b918252838101850191858101908a84111561195157600080fd5b86860192505b8383101561198d5782358581111561196f5760008081fd5b61197d8c89838a0101611825565b8352509186019190860190611957565b809750505050505050509250929050565b600080604083850312156119b157600080fd5b6119ba83611631565b91506119c860208401611631565b90509250929050565b600181811c908216806119e557607f821691505b60208210811415611a0657634e487b7160e01b600052602260045260246000fd5b50919050565b60208082526031908201527f544e543732313a207472616e736665722063616c6c6572206973206e6f74206f6040820152701ddb995c881b9bdc88185c1c1c9bdd9959607a1b606082015260800190565b60008151611a6f8185602086016115ad565b9290920192915050565b600080845481600182811c915080831680611a9557607f831692505b6020808410821415611ab557634e487b7160e01b86526022600452602486fd5b818015611ac95760018114611ada57611b07565b60ff19861689528489019650611b07565b60008b81526020902060005b86811015611aff5781548b820152908501908301611ae6565b505084890196505b505050505050611b178185611a5d565b95945050505050565b60208082526034908201527f4f6e6c792063726561746f72206f662074686520636f6e74726163742063616e6040820152731031b0b636103a3434b990333ab731ba34b7b71760611b606082015260800190565b634e487b7160e01b600052603260045260246000fd5b634e487b7160e01b600052601160045260246000fd5b6000600019821415611bb457611bb4611b8a565b5060010190565b60208082526032908201527f544e543732313a207472616e7366657220746f206e6f6e20544e54373231526560408201527131b2b4bb32b91034b6b83632b6b2b73a32b960711b606082015260800190565b634e487b7160e01b600052601260045260246000fd5b600082611c3257611c32611c0d565b500490565b600082821015611c4957611c49611b8a565b500390565b600082611c5d57611c5d611c0d565b500690565b60008219821115611c7557611c75611b8a565b500190565b600081611c8957611c89611b8a565b506000190190565b6001600160a01b0385811682528416602082015260408101839052608060608201819052600090611cc4908301846115d9565b9695505050505050565b600060208284031215611ce057600080fd5b81516115a681611573565b634e487b7160e01b600052603160045260246000fd5b60008251611d138184602087016115ad565b919091019291505056fe544e543732313a206f776e657220717565727920666f72206e6f6e6578697374656e7420746f6b656e544e543732313a207472616e7366657220746f206e6f6e20544e54373231526563656976657220696d706c656d656e746572a2646970667358221220b9f62c2155efab256a2e51202a82a1f2765df0a194965ad4472e4b22178970c664736f6c634300080c0033",
  "linkReferences": {},
  "deployedLinkReferences": {}
}