{
  "_format": "hh-sol-artifact-1",
  "contractName": "ZNFT",
  "sourceName": "contracts/NFT/ZNFT.sol",
  "abi": [
    {
      "inputs": [
        {
          "internalType": "string",
          "name": "name",
          "type": "string"
        },
        {
          "internalType": "string",
          "name": "symbol",
          "type": "string"
        },
        {
          "internalType": "string",
          "name": "collectionURI_",
          "type": "string"
        }
      ],
      "stateMutability": "nonpayable",
      "type": "constructor"
    },
    {
      "anonymous": false,
      "inputs": [
        {
          "indexed": true,
          "internalType": "address",
          "name": "owner",
          "type": "address"
        },
        {
          "indexed": true,
          "internalType": "address",
          "name": "approved",
          "type": "address"
        },
        {
          "indexed": true,
          "internalType": "uint256",
          "name": "tokenId",
          "type": "uint256"
        }
      ],
      "name": "Approval",
      "type": "event"
    },
    {
      "anonymous": false,
      "inputs": [
        {
          "indexed": true,
          "internalType": "address",
          "name": "owner",
          "type": "address"
        },
        {
          "indexed": true,
          "internalType": "address",
          "name": "operator",
          "type": "address"
        },
        {
          "indexed": false,
          "internalType": "bool",
          "name": "approved",
          "type": "bool"
        }
      ],
      "name": "ApprovalForAll",
      "type": "event"
    },
    {
      "anonymous": false,
      "inputs": [
        {
          "indexed": true,
          "internalType": "address",
          "name": "from",
          "type": "address"
        },
        {
          "indexed": true,
          "internalType": "address",
          "name": "to",
          "type": "address"
        },
        {
          "indexed": true,
          "internalType": "uint256",
          "name": "tokenId",
          "type": "uint256"
        }
      ],
      "name": "Transfer",
      "type": "event"
    },
    {
      "inputs": [
        {
          "internalType": "address",
          "name": "to",
          "type": "address"
        },
        {
          "internalType": "uint256",
          "name": "tokenId",
          "type": "uint256"
        }
      ],
      "name": "approve",
      "outputs": [],
      "stateMutability": "nonpayable",
      "type": "function"
    },
    {
      "inputs": [
        {
          "internalType": "address",
          "name": "owner",
          "type": "address"
        }
      ],
      "name": "balanceOf",
      "outputs": [
        {
          "internalType": "uint256",
          "name": "",
          "type": "uint256"
        }
      ],
      "stateMutability": "view",
      "type": "function"
    },
    {
      "inputs": [],
      "name": "baseURI",
      "outputs": [
        {
          "internalType": "string",
          "name": "",
          "type": "string"
        }
      ],
      "stateMutability": "view",
      "type": "function"
    },
    {
      "inputs": [],
      "name": "collectionURI",
      "outputs": [
        {
          "internalType": "string",
          "name": "",
          "type": "string"
        }
      ],
      "stateMutability": "view",
      "type": "function"
    },
    {
      "inputs": [],
      "name": "creator",
      "outputs": [
        {
          "internalType": "address",
          "name": "",
          "type": "address"
        }
      ],
      "stateMutability": "view",
      "type": "function"
    },
    {
      "inputs": [
        {
          "internalType": "uint256",
          "name": "tokenId",
          "type": "uint256"
        }
      ],
      "name": "getApproved",
      "outputs": [
        {
          "internalType": "address",
          "name": "",
          "type": "address"
        }
      ],
      "stateMutability": "view",
      "type": "function"
    },
    {
      "inputs": [],
      "name": "getInterfaceID",
      "outputs": [
        {
          "internalType": "bytes4",
          "name": "",
          "type": "bytes4"
        }
      ],
      "stateMutability": "pure",
      "type": "function"
    },
    {
      "inputs": [
        {
          "internalType": "address",
          "name": "owner",
          "type": "address"
        },
        {
          "internalType": "address",
          "name": "operator",
          "type": "address"
        }
      ],
      "name": "isApprovedForAll",
      "outputs": [
        {
          "internalType": "bool",
          "name": "",
          "type": "bool"
        }
      ],
      "stateMutability": "view",
      "type": "function"
    },
    {
      "inputs": [
        {
          "internalType": "string[]",
          "name": "uris",
          "type": "string[]"
        }
      ],
      "name": "mint",
      "outputs": [],
      "stateMutability": "nonpayable",
      "type": "function"
    },
    {
      "inputs": [
        {
          "internalType": "address",
          "name": "to",
          "type": "address"
        },
        {
          "internalType": "string",
          "name": "uri",
          "type": "string"
        }
      ],
      "name": "mint",
      "outputs": [],
      "stateMutability": "nonpayable",
      "type": "function"
    },
    {
      "inputs": [
        {
          "internalType": "string",
          "name": "uri",
          "type": "string"
        }
      ],
      "name": "mint",
      "outputs": [],
      "stateMutability": "nonpayable",
      "type": "function"
    },
    {
      "inputs": [
        {
          "internalType": "address",
          "name": "to",
          "type": "address"
        },
        {
          "internalType": "string[]",
          "name": "uris",
          "type": "string[]"
        }
      ],
      "name": "mint",
      "outputs": [],
      "stateMutability": "nonpayable",
      "type": "function"
    },
    {
      "inputs": [],
      "name": "name",
      "outputs": [
        {
          "internalType": "string",
          "name": "",
          "type": "string"
        }
      ],
      "stateMutability": "view",
      "type": "function"
    },
    {
      "inputs": [
        {
          "internalType": "uint256",
          "name": "tokenId",
          "type": "uint256"
        }
      ],
      "name": "ownerOf",
      "outputs": [
        {
          "internalType": "address",
          "name": "",
          "type": "address"
        }
      ],
      "stateMutability": "view",
      "type": "function"
    },
    {
      "inputs": [
        {
          "internalType": "address",
          "name": "from",
          "type": "address"
        },
        {
          "internalType": "address",
          "name": "to",
          "type": "address"
        },
        {
          "internalType": "uint256",
          "name": "tokenId",
          "type": "uint256"
        }
      ],
      "name": "safeTransferFrom",
      "outputs": [],
      "stateMutability": "nonpayable",
      "type": "function"
    },
    {
      "inputs": [
        {
          "internalType": "address",
          "name": "from",
          "type": "address"
        },
        {
          "internalType": "address",
          "name": "to",
          "type": "address"
        },
        {
          "internalType": "uint256",
          "name": "tokenId",
          "type": "uint256"
        },
        {
          "internalType": "bytes",
          "name": "_data",
          "type": "bytes"
        }
      ],
      "name": "safeTransferFrom",
      "outputs": [],
      "stateMutability": "nonpayable",
      "type": "function"
    },
    {
      "inputs": [
        {
          "internalType": "address",
          "name": "operator",
          "type": "address"
        },
        {
          "internalType": "bool",
          "name": "approved",
          "type": "bool"
        }
      ],
      "name": "setApprovalForAll",
      "outputs": [],
      "stateMutability": "nonpayable",
      "type": "function"
    },
    {
      "inputs": [
        {
          "internalType": "bytes4",
          "name": "interfaceId",
          "type": "bytes4"
        }
      ],
      "name": "supportsInterface",
      "outputs": [
        {
          "internalType": "bool",
          "name": "",
          "type": "bool"
        }
      ],
      "stateMutability": "view",
      "type": "function"
    },
    {
      "inputs": [],
      "name": "symbol",
      "outputs": [
        {
          "internalType": "string",
          "name": "",
          "type": "string"
        }
      ],
      "stateMutability": "view",
      "type": "function"
    },
    {
      "inputs": [
        {
          "internalType": "uint256",
          "name": "index",
          "type": "uint256"
        }
      ],
      "name": "tokenByIndex",
      "outputs": [
        {
          "internalType": "uint256",
          "name": "",
          "type": "uint256"
        }
      ],
      "stateMutability": "view",
      "type": "function"
    },
    {
      "inputs": [
        {
          "internalType": "address",
          "name": "owner",
          "type": "address"
        },
        {
          "internalType": "uint256",
          "name": "index",
          "type": "uint256"
        }
      ],
      "name": "tokenOfOwnerByIndex",
      "outputs": [
        {
          "internalType": "uint256",
          "name": "",
          "type": "uint256"
        }
      ],
      "stateMutability": "view",
      "type": "function"
    },
    {
      "inputs": [
        {
          "internalType": "uint256",
          "name": "tokenId",
          "type": "uint256"
        }
      ],
      "name": "tokenURI",
      "outputs": [
        {
          "internalType": "string",
          "name": "",
          "type": "string"
        }
      ],
      "stateMutability": "view",
      "type": "function"
    },
    {
      "inputs": [],
      "name": "totalSupply",
      "outputs": [
        {
          "internalType": "uint256",
          "name": "",
          "type": "uint256"
        }
      ],
      "stateMutability": "view",
      "type": "function"
    },
    {
      "inputs": [
        {
          "internalType": "address",
          "name": "from",
          "type": "address"
        },
        {
          "internalType": "address",
          "name": "to",
          "type": "address"
        },
        {
          "internalType": "uint256",
          "name": "tokenId",
          "type": "uint256"
        }
      ],
      "name": "transferFrom",
      "outputs": [],
      "stateMutability": "nonpayable",
      "type": "function"
    }
  ],
  "bytecode": "0x60806040523480156200001157600080fd5b50604051620023d8380380620023d88339810160408190526200003491620003dd565b8282620000486301ffc9a760e01b62000110565b81516200005d9060079060208501906200026a565b508051620000739060089060208401906200026a565b50620000866380ac58cd60e01b62000110565b62000098635b5e139f60e01b62000110565b620000aa63780e9d6360e01b62000110565b5050600b80546001600160a01b031916331790558051620000d390600c9060208401906200026a565b50620000f5732ee6480c6fd8b71f0a6877bae97991e8d6062f4d600162000195565b62000107631693919560e21b62000110565b505050620004ab565b6001600160e01b03198082161415620001705760405162461bcd60e51b815260206004820152601c60248201527f544e543136353a20696e76616c696420696e746572666163652069640000000060448201526064015b60405180910390fd5b6001600160e01b0319166000908152602081905260409020805460ff19166001179055565b6001600160a01b038216331415620001f05760405162461bcd60e51b815260206004820152601960248201527f544e543732313a20617070726f766520746f2063616c6c657200000000000000604482015260640162000167565b3360008181526006602090815260408083206001600160a01b0387168085529252909120805460ff1916841515179055906001600160a01b03167f17307eab39ab6107e8899845ad3d59bd9653f200f220920489ca2b5937696c31836040516200025e911515815260200190565b60405180910390a35050565b82805462000278906200046e565b90600052602060002090601f0160209004810192826200029c5760008555620002e7565b82601f10620002b757805160ff1916838001178555620002e7565b82800160010185558215620002e7579182015b82811115620002e7578251825591602001919060010190620002ca565b50620002f5929150620002f9565b5090565b5b80821115620002f55760008155600101620002fa565b634e487b7160e01b600052604160045260246000fd5b600082601f8301126200033857600080fd5b81516001600160401b038082111562000355576200035562000310565b604051601f8301601f19908116603f0116810190828211818310171562000380576200038062000310565b816040528381526020925086838588010111156200039d57600080fd5b600091505b83821015620003c15785820183015181830184015290820190620003a2565b83821115620003d35760008385830101525b9695505050505050565b600080600060608486031215620003f357600080fd5b83516001600160401b03808211156200040b57600080fd5b620004198783880162000326565b945060208601519150808211156200043057600080fd5b6200043e8783880162000326565b935060408601519150808211156200045557600080fd5b50620004648682870162000326565b9150509250925092565b600181811c908216806200048357607f821691505b60208210811415620004a557634e487b7160e01b600052602260045260246000fd5b50919050565b611f1d80620004bb6000396000f3fe608060405234801561001057600080fd5b50600436106101585760003560e01c80636c0360eb116100c3578063c87b56dd1161007c578063c87b56dd146102da578063d0def521146102ed578063d85d3d2714610300578063d90794cf14610313578063e699e75914610326578063e985e9c5146103cc57600080fd5b80636c0360eb1461028957806370a082311461029157806395d89b41146102a4578063a22cb465146102ac578063a5097ebf146102bf578063b88d4fde146102c757600080fd5b806323b872dd1161011557806323b872dd146102175780632f745c591461022a57806342842e0e1461023d5780634f6ccce7146102505780635768f271146102635780636352211e1461027657600080fd5b806301ffc9a71461015d57806302d05d3f1461019f57806306fdde03146101c4578063081812fc146101d9578063095ea7b3146101ec57806318160ddd14610201575b600080fd5b61018a61016b3660046116b6565b6001600160e01b03191660009081526020819052604090205460ff1690565b60405190151581526020015b60405180910390f35b600b546001600160a01b03165b6040516001600160a01b039091168152602001610196565b6101cc610408565b6040516101969190611732565b6101ac6101e7366004611745565b61049a565b6101ff6101fa36600461177a565b610527565b005b61020961063d565b604051908152602001610196565b6101ff6102253660046117a4565b61064e565b61020961023836600461177a565b61067f565b6101ff61024b3660046117a4565b6106aa565b61020961025e366004611745565b6106c5565b6101ff61027136600461193e565b6106db565b6101ac610284366004611745565b61074a565b6101cc610772565b61020961029f366004611973565b610781565b6101cc61080d565b6101ff6102ba36600461198e565b61081c565b6101cc6108e1565b6101ff6102d53660046119ca565b6108f0565b6101cc6102e8366004611745565b610928565b6101ff6102fb366004611a46565b610a99565b6101ff61030e366004611a94565b610ae3565b6101ff610321366004611ac9565b610b1a565b604080518082018252600e81526d6d696e7428737472696e675b5d2960901b6020918201528151808301835260168152756d696e7428616464726573732c737472696e675b5d2960501b908201528151808301835260148152736d696e7428616464726573732c737472696e672960601b9082015281518083018352600c81526b6d696e7428737472696e672960a01b90820152905163a199d5f560e01b815201610196565b61018a6103da366004611b0d565b6001600160a01b03918216600090815260066020908152604080832093909416825291909152205460ff1690565b60606007805461041790611b40565b80601f016020809104026020016040519081016040528092919081815260200182805461044390611b40565b80156104905780601f1061046557610100808354040283529160200191610490565b820191906000526020600020905b81548152906001019060200180831161047357829003601f168201915b5050505050905090565b60006104a582610b78565b61050b5760405162461bcd60e51b815260206004820152602c60248201527f544e543732313a20617070726f76656420717565727920666f72206e6f6e657860448201526b34b9ba32b73a103a37b5b2b760a11b60648201526084015b60405180910390fd5b506000908152600560205260409020546001600160a01b031690565b60006105328261074a565b9050806001600160a01b0316836001600160a01b031614156105a05760405162461bcd60e51b815260206004820152602160248201527f544e543732313a20617070726f76616c20746f2063757272656e74206f776e656044820152603960f91b6064820152608401610502565b336001600160a01b03821614806105bc57506105bc81336103da565b61062e5760405162461bcd60e51b815260206004820152603860248201527f544e543732313a20617070726f76652063616c6c6572206973206e6f74206f7760448201527f6e6572206e6f7220617070726f76656420666f7220616c6c00000000000000006064820152608401610502565b6106388383610b85565b505050565b60006106496002610bf3565b905090565b6106583382610bfe565b6106745760405162461bcd60e51b815260040161050290611b7b565b610638838383610ce8565b6001600160a01b03821660009081526001602052604081206106a19083610e69565b90505b92915050565b610638838383604051806020016040528060008152506108f0565b6000806106d3600284610e75565b509392505050565b600b546001600160a01b031633146107055760405162461bcd60e51b815260040161050290611bcc565b60005b8151811015610746576107343383838151811061072757610727611c20565b6020026020010151610a99565b8061073e81611c4c565b915050610708565b5050565b60006106a482604051806060016040528060298152602001611e8d6029913960029190610e91565b6060600a805461041790611b40565b60006001600160a01b0382166107ec5760405162461bcd60e51b815260206004820152602a60248201527f544e543732313a2062616c616e636520717565727920666f7220746865207a65604482015269726f206164647265737360b01b6064820152608401610502565b6001600160a01b03821660009081526001602052604090206106a490610e9e565b60606008805461041790611b40565b6001600160a01b0382163314156108755760405162461bcd60e51b815260206004820152601960248201527f544e543732313a20617070726f766520746f2063616c6c6572000000000000006044820152606401610502565b3360008181526006602090815260408083206001600160a01b03871680855290835292819020805460ff191686151590811790915590519081529192917f17307eab39ab6107e8899845ad3d59bd9653f200f220920489ca2b5937696c31910160405180910390a35050565b6060600c805461041790611b40565b6108fa3383610bfe565b6109165760405162461bcd60e51b815260040161050290611b7b565b61092284848484610ea8565b50505050565b606061093382610b78565b6109975760405162461bcd60e51b815260206004820152602f60248201527f544e543732314d657461646174613a2055524920717565727920666f72206e6f60448201526e3732bc34b9ba32b73a103a37b5b2b760891b6064820152608401610502565b600082815260096020526040812080546109b090611b40565b80601f01602080910402602001604051908101604052809291908181526020018280546109dc90611b40565b8015610a295780601f106109fe57610100808354040283529160200191610a29565b820191906000526020600020905b815481529060010190602001808311610a0c57829003601f168201915b50505050509050600a8054610a3d90611b40565b15159050610a4b5792915050565b805115610a7d57600a81604051602001610a66929190611c83565b604051602081830303815290604052915050919050565b600a610a8884610edb565b604051602001610a66929190611c83565b600b546001600160a01b03163314610ac35760405162461bcd60e51b815260040161050290611bcc565b6000610acd61063d565b9050610ad98382610ff2565b610638818361100c565b600b546001600160a01b03163314610b0d5760405162461bcd60e51b815260040161050290611bcc565b610b173382610a99565b50565b600b546001600160a01b03163314610b445760405162461bcd60e51b815260040161050290611bcc565b60005b815181101561063857610b668383838151811061072757610727611c20565b80610b7081611c4c565b915050610b47565b60006106a4600283611095565b600081815260056020526040902080546001600160a01b0319166001600160a01b0384169081179091558190610bba8261074a565b6001600160a01b03167f8c5be1e5ebec7d5bd14f71427d1e84f3dd0314c0f7b2291e5b200ac8c7c3b92560405160405180910390a45050565b60006106a4826110a1565b6000610c0982610b78565b610c6a5760405162461bcd60e51b815260206004820152602c60248201527f544e543732313a206f70657261746f7220717565727920666f72206e6f6e657860448201526b34b9ba32b73a103a37b5b2b760a11b6064820152608401610502565b6000610c758361074a565b9050806001600160a01b0316846001600160a01b03161480610cb05750836001600160a01b0316610ca58461049a565b6001600160a01b0316145b80610ce057506001600160a01b0380821660009081526006602090815260408083209388168352929052205460ff165b949350505050565b826001600160a01b0316610cfb8261074a565b6001600160a01b031614610d635760405162461bcd60e51b815260206004820152602960248201527f544e543732313a207472616e73666572206f6620746f6b656e2074686174206960448201526839903737ba1037bbb760b91b6064820152608401610502565b6001600160a01b038216610dc55760405162461bcd60e51b8152602060048201526024808201527f544e543732313a207472616e7366657220746f20746865207a65726f206164646044820152637265737360e01b6064820152608401610502565b610dd0600082610b85565b6001600160a01b0383166000908152600160205260409020610df290826110ac565b506001600160a01b0382166000908152600160205260409020610e1590826110b8565b50610e22600282846110c4565b5080826001600160a01b0316846001600160a01b03167fddf252ad1be2c89b69c2b068fc378daa952ba7f163c4a11628f55a4df523b3ef60405160405180910390a4505050565b60006106a183836110da565b6000808080610e848686611104565b9097909650945050505050565b6000610ce084848461112f565b60006106a4825490565b610eb3848484610ce8565b610ebf84848484611172565b6109225760405162461bcd60e51b815260040161050290611d2a565b606081610eff5750506040805180820190915260018152600360fc1b602082015290565b8160005b8115610f295780610f1381611c4c565b9150610f229050600a83611d92565b9150610f03565b60008167ffffffffffffffff811115610f4457610f446117e0565b6040519080825280601f01601f191660200182016040528015610f6e576020820181803683370190505b5090506000610f7e600184611da6565b90508593505b8315610fe957610f95600a85611dbd565b610fa0906030611dd1565b60f81b8282610fae81611de9565b935081518110610fc057610fc0611c20565b60200101906001600160f81b031916908160001a905350610fe2600a85611d92565b9350610f84565b50949350505050565b610746828260405180602001604052806000815250611243565b61101582610b78565b6110765760405162461bcd60e51b815260206004820152602c60248201527f544e543732314d657461646174613a2055524920736574206f66206e6f6e657860448201526b34b9ba32b73a103a37b5b2b760a11b6064820152608401610502565b6000828152600960209081526040909120825161063892840190611607565b60006106a18383611276565b60006106a482610e9e565b60006106a18383611295565b60006106a18383611388565b6000610ce084846001600160a01b0385166113d7565b60008260000182815481106110f1576110f1611c20565b9060005260206000200154905092915050565b600080806111128585610e69565b600081815260029690960160205260409095205494959350505050565b60008281526002840160205260408120548015158061115357506111538585611276565b8390610fe95760405162461bcd60e51b81526004016105029190611732565b60006001600160a01b0384163b61118b57506001610ce0565b600061120c63df20cc6d60e01b338887876040516024016111af9493929190611e00565b604051602081830303815290604052906001600160e01b0319166020820180516001600160e01b038381831617835250505050604051806060016040528060328152602001611eb6603291396001600160a01b03881691906113f4565b90506000818060200190518101906112249190611e3d565b6001600160e01b031916630a85bd0160e11b1492505050949350505050565b61124d8383611403565b61125a6000848484611172565b6106385760405162461bcd60e51b815260040161050290611d2a565b60006106a18383600081815260018301602052604081205415156106a1565b6000818152600183016020526040812054801561137e5760006112b9600183611da6565b85549091506000906112cd90600190611da6565b90508181146113325760008660000182815481106112ed576112ed611c20565b906000526020600020015490508087600001848154811061131057611310611c20565b6000918252602080832090910192909255918252600188019052604090208390555b855486908061134357611343611e5a565b6001900381819060005260206000200160009055905585600101600086815260200190815260200160002060009055600193505050506106a4565b60009150506106a4565b60008181526001830160205260408120546113cf575081546001818101845560008481526020808220909301849055845484825282860190935260409020919091556106a4565b5060006106a4565b60008281526002840160205260408120829055610ce084846110b8565b6060610ce0848460008561151b565b6001600160a01b0382166114595760405162461bcd60e51b815260206004820181905260248201527f544e543732313a206d696e7420746f20746865207a65726f20616464726573736044820152606401610502565b61146281610b78565b156114af5760405162461bcd60e51b815260206004820152601c60248201527f544e543732313a20746f6b656e20616c7265616479206d696e746564000000006044820152606401610502565b6001600160a01b03821660009081526001602052604090206114d190826110b8565b506114de600282846110c4565b5060405181906001600160a01b038416906000907fddf252ad1be2c89b69c2b068fc378daa952ba7f163c4a11628f55a4df523b3ef908290a45050565b6060843b61156b5760405162461bcd60e51b815260206004820152601d60248201527f416464726573733a2063616c6c20746f206e6f6e2d636f6e74726163740000006044820152606401610502565b600080866001600160a01b031685876040516115879190611e70565b60006040518083038185875af1925050503d80600081146115c4576040519150601f19603f3d011682016040523d82523d6000602084013e6115c9565b606091505b509150915081156115dd579150610ce09050565b8051156115ed5780518082602001fd5b8360405162461bcd60e51b81526004016105029190611732565b82805461161390611b40565b90600052602060002090601f016020900481019282611635576000855561167b565b82601f1061164e57805160ff191683800117855561167b565b8280016001018555821561167b579182015b8281111561167b578251825591602001919060010190611660565b5061168792915061168b565b5090565b5b80821115611687576000815560010161168c565b6001600160e01b031981168114610b1757600080fd5b6000602082840312156116c857600080fd5b81356116d3816116a0565b9392505050565b60005b838110156116f55781810151838201526020016116dd565b838111156109225750506000910152565b6000815180845261171e8160208601602086016116da565b601f01601f19169290920160200192915050565b6020815260006106a16020830184611706565b60006020828403121561175757600080fd5b5035919050565b80356001600160a01b038116811461177557600080fd5b919050565b6000806040838503121561178d57600080fd5b6117968361175e565b946020939093013593505050565b6000806000606084860312156117b957600080fd5b6117c28461175e565b92506117d06020850161175e565b9150604084013590509250925092565b634e487b7160e01b600052604160045260246000fd5b604051601f8201601f1916810167ffffffffffffffff8111828210171561181f5761181f6117e0565b604052919050565b600067ffffffffffffffff831115611841576118416117e0565b611854601f8401601f19166020016117f6565b905082815283838301111561186857600080fd5b828260208301376000602084830101529392505050565b600082601f83011261189057600080fd5b6106a183833560208501611827565b600082601f8301126118b057600080fd5b8135602067ffffffffffffffff808311156118cd576118cd6117e0565b8260051b6118dc8382016117f6565b93845285810183019383810190888611156118f657600080fd5b84880192505b85831015611932578235848111156119145760008081fd5b6119228a87838c010161187f565b83525091840191908401906118fc565b98975050505050505050565b60006020828403121561195057600080fd5b813567ffffffffffffffff81111561196757600080fd5b610ce08482850161189f565b60006020828403121561198557600080fd5b6106a18261175e565b600080604083850312156119a157600080fd5b6119aa8361175e565b9150602083013580151581146119bf57600080fd5b809150509250929050565b600080600080608085870312156119e057600080fd5b6119e98561175e565b93506119f76020860161175e565b925060408501359150606085013567ffffffffffffffff811115611a1a57600080fd5b8501601f81018713611a2b57600080fd5b611a3a87823560208401611827565b91505092959194509250565b60008060408385031215611a5957600080fd5b611a628361175e565b9150602083013567ffffffffffffffff811115611a7e57600080fd5b611a8a8582860161187f565b9150509250929050565b600060208284031215611aa657600080fd5b813567ffffffffffffffff811115611abd57600080fd5b610ce08482850161187f565b60008060408385031215611adc57600080fd5b611ae58361175e565b9150602083013567ffffffffffffffff811115611b0157600080fd5b611a8a8582860161189f565b60008060408385031215611b2057600080fd5b611b298361175e565b9150611b376020840161175e565b90509250929050565b600181811c90821680611b5457607f821691505b60208210811415611b7557634e487b7160e01b600052602260045260246000fd5b50919050565b60208082526031908201527f544e543732313a207472616e736665722063616c6c6572206973206e6f74206f6040820152701ddb995c881b9bdc88185c1c1c9bdd9959607a1b606082015260800190565b60208082526034908201527f4f6e6c792063726561746f72206f662074686520636f6e74726163742063616e6040820152731031b0b636103a3434b990333ab731ba34b7b71760611b606082015260800190565b634e487b7160e01b600052603260045260246000fd5b634e487b7160e01b600052601160045260246000fd5b6000600019821415611c6057611c60611c36565b5060010190565b60008151611c798185602086016116da565b9290920192915050565b600080845481600182811c915080831680611c9f57607f831692505b6020808410821415611cbf57634e487b7160e01b86526022600452602486fd5b818015611cd35760018114611ce457611d11565b60ff19861689528489019650611d11565b60008b81526020902060005b86811015611d095781548b820152908501908301611cf0565b505084890196505b505050505050611d218185611c67565b95945050505050565b60208082526032908201527f544e543732313a207472616e7366657220746f206e6f6e20544e54373231526560408201527131b2b4bb32b91034b6b83632b6b2b73a32b960711b606082015260800190565b634e487b7160e01b600052601260045260246000fd5b600082611da157611da1611d7c565b500490565b600082821015611db857611db8611c36565b500390565b600082611dcc57611dcc611d7c565b500690565b60008219821115611de457611de4611c36565b500190565b600081611df857611df8611c36565b506000190190565b6001600160a01b0385811682528416602082015260408101839052608060608201819052600090611e3390830184611706565b9695505050505050565b600060208284031215611e4f57600080fd5b81516116d3816116a0565b634e487b7160e01b600052603160045260246000fd5b60008251611e828184602087016116da565b919091019291505056fe544e543732313a206f776e657220717565727920666f72206e6f6e6578697374656e7420746f6b656e544e543732313a207472616e7366657220746f206e6f6e20544e54373231526563656976657220696d706c656d656e746572a26469706673582212208de69839760c9bd3d5ff7cad2fc44df0f7670eb0eeae07ef04b4c0e9ce33136f64736f6c634300080c0033",
  "linkReferences": {},
  "deployedLinkReferences": {}
}