{
  "_format": "hh-sol-artifact-1",
  "contractName": "ZMarket",
  "sourceName": "contracts/Market/ZMarket.sol",
  "abi": [
    {
      "inputs": [],
      "stateMutability": "nonpayable",
      "type": "constructor"
    },
    {
      "anonymous": false,
      "inputs": [
        {
          "indexed": false,
          "internalType": "uint256",
          "name": "id",
          "type": "uint256"
        },
        {
          "indexed": false,
          "internalType": "address",
          "name": "seller",
          "type": "address"
        },
        {
          "indexed": false,
          "internalType": "address",
          "name": "tokenContract",
          "type": "address"
        },
        {
          "indexed": false,
          "internalType": "uint256",
          "name": "tokenId",
          "type": "uint256"
        },
        {
          "indexed": false,
          "internalType": "uint256",
          "name": "price",
          "type": "uint256"
        },
        {
          "indexed": false,
          "internalType": "bytes32",
          "name": "status",
          "type": "bytes32"
        }
      ],
      "name": "MarketChange",
      "type": "event"
    },
    {
      "anonymous": false,
      "inputs": [
        {
          "indexed": true,
          "internalType": "address",
          "name": "previousOwner",
          "type": "address"
        },
        {
          "indexed": true,
          "internalType": "address",
          "name": "newOwner",
          "type": "address"
        }
      ],
      "name": "OwnershipTransferred",
      "type": "event"
    },
    {
      "anonymous": false,
      "inputs": [
        {
          "indexed": false,
          "internalType": "address",
          "name": "account",
          "type": "address"
        }
      ],
      "name": "Paused",
      "type": "event"
    },
    {
      "anonymous": false,
      "inputs": [
        {
          "indexed": false,
          "internalType": "address",
          "name": "account",
          "type": "address"
        }
      ],
      "name": "Unpaused",
      "type": "event"
    },
    {
      "inputs": [
        {
          "internalType": "address payable",
          "name": "to",
          "type": "address"
        },
        {
          "internalType": "uint256",
          "name": "amount",
          "type": "uint256"
        }
      ],
      "name": "_payout",
      "outputs": [],
      "stateMutability": "nonpayable",
      "type": "function"
    },
    {
      "inputs": [
        {
          "internalType": "uint256",
          "name": "_id",
          "type": "uint256"
        }
      ],
      "name": "buy",
      "outputs": [],
      "stateMutability": "payable",
      "type": "function"
    },
    {
      "inputs": [
        {
          "internalType": "uint256",
          "name": "_id",
          "type": "uint256"
        }
      ],
      "name": "cancel",
      "outputs": [],
      "stateMutability": "nonpayable",
      "type": "function"
    },
    {
      "inputs": [
        {
          "internalType": "uint256",
          "name": "_id",
          "type": "uint256"
        }
      ],
      "name": "getItem",
      "outputs": [
        {
          "components": [
            {
              "internalType": "address payable",
              "name": "seller",
              "type": "address"
            },
            {
              "internalType": "address",
              "name": "tokenContract",
              "type": "address"
            },
            {
              "internalType": "uint256",
              "name": "tokenId",
              "type": "uint256"
            },
            {
              "internalType": "uint256",
              "name": "price",
              "type": "uint256"
            },
            {
              "internalType": "bytes32",
              "name": "status",
              "type": "bytes32"
            }
          ],
          "internalType": "struct ZMarket.Item",
          "name": "",
          "type": "tuple"
        }
      ],
      "stateMutability": "view",
      "type": "function"
    },
    {
      "inputs": [
        {
          "internalType": "address",
          "name": "_addr",
          "type": "address"
        }
      ],
      "name": "getItemsOfAddress",
      "outputs": [
        {
          "internalType": "uint256[]",
          "name": "",
          "type": "uint256[]"
        }
      ],
      "stateMutability": "view",
      "type": "function"
    },
    {
      "inputs": [
        {
          "internalType": "address",
          "name": "_addr",
          "type": "address"
        }
      ],
      "name": "getItemsOfContract",
      "outputs": [
        {
          "internalType": "uint256[]",
          "name": "",
          "type": "uint256[]"
        }
      ],
      "stateMutability": "view",
      "type": "function"
    },
    {
      "inputs": [],
      "name": "itemsCounter",
      "outputs": [
        {
          "internalType": "uint256",
          "name": "",
          "type": "uint256"
        }
      ],
      "stateMutability": "view",
      "type": "function"
    },
    {
      "inputs": [],
      "name": "marketFee",
      "outputs": [
        {
          "internalType": "uint8",
          "name": "",
          "type": "uint8"
        }
      ],
      "stateMutability": "view",
      "type": "function"
    },
    {
      "inputs": [],
      "name": "minPrice",
      "outputs": [
        {
          "internalType": "uint256",
          "name": "",
          "type": "uint256"
        }
      ],
      "stateMutability": "view",
      "type": "function"
    },
    {
      "inputs": [],
      "name": "owner",
      "outputs": [
        {
          "internalType": "address",
          "name": "",
          "type": "address"
        }
      ],
      "stateMutability": "view",
      "type": "function"
    },
    {
      "inputs": [],
      "name": "paused",
      "outputs": [
        {
          "internalType": "bool",
          "name": "",
          "type": "bool"
        }
      ],
      "stateMutability": "view",
      "type": "function"
    },
    {
      "inputs": [],
      "name": "renounceOwnership",
      "outputs": [],
      "stateMutability": "nonpayable",
      "type": "function"
    },
    {
      "inputs": [
        {
          "internalType": "address",
          "name": "tokenContract",
          "type": "address"
        },
        {
          "internalType": "uint256",
          "name": "tokenId",
          "type": "uint256"
        },
        {
          "internalType": "uint256",
          "name": "price",
          "type": "uint256"
        }
      ],
      "name": "sell",
      "outputs": [],
      "stateMutability": "nonpayable",
      "type": "function"
    },
    {
      "inputs": [
        {
          "internalType": "bytes4",
          "name": "interfaceID",
          "type": "bytes4"
        }
      ],
      "name": "supportsInterface",
      "outputs": [
        {
          "internalType": "bool",
          "name": "",
          "type": "bool"
        }
      ],
      "stateMutability": "pure",
      "type": "function"
    },
    {
      "inputs": [
        {
          "internalType": "address",
          "name": "newOwner",
          "type": "address"
        }
      ],
      "name": "transferOwnership",
      "outputs": [],
      "stateMutability": "nonpayable",
      "type": "function"
    },
    {
      "inputs": [
        {
          "internalType": "uint256",
          "name": "_id",
          "type": "uint256"
        },
        {
          "internalType": "uint256",
          "name": "_price",
          "type": "uint256"
        }
      ],
      "name": "update",
      "outputs": [],
      "stateMutability": "nonpayable",
      "type": "function"
    }
  ],
  "bytecode": "0x608060405234801561001057600080fd5b50600160005561001f3361004f565b6001805460ff60a01b191690556000600755678ac7230489e800006002556003805460ff191660041790556100a1565b600180546001600160a01b038381166001600160a01b0319831681179093556040519116919082907f8be0079c531659141344cd1fd0a4f28419497f9722a3daafe3b4186f6b6457e090600090a35050565b611317806100b06000396000f3fe6080604052600436106100f35760003560e01c8063715018a61161008a5780639b836d1a116100595780639b836d1a14610371578063d96a094a14610391578063e45be8eb146103a4578063f2fde38b146103ba57600080fd5b8063715018a6146102f05780638c1f6886146103055780638da5cb5b146103295780639613201f1461035157600080fd5b80633129e773116100c65780633129e773146101a857806340e58ee5146102915780635c975abb146102b15780636a272462146102d057600080fd5b806301ffc9a7146100f85780630ccf21561461012d57806321837738146101595780632fb565e814610186575b600080fd5b34801561010457600080fd5b50610118610113366004610fe5565b6103da565b60405190151581526020015b60405180910390f35b34801561013957600080fd5b506003546101479060ff1681565b60405160ff9091168152602001610124565b34801561016557600080fd5b5061017961017436600461102b565b610411565b6040516101249190611048565b34801561019257600080fd5b506101a66101a136600461108c565b61047d565b005b3480156101b457600080fd5b506102466101c33660046110ae565b6040805160a08101825260008082526020820181905291810182905260608101829052608081019190915250600090815260046020818152604092839020835160a08101855281546001600160a01b0390811682526001830154169281019290925260028101549382019390935260038301546060820152910154608082015290565b604051610124919081516001600160a01b0390811682526020808401519091169082015260408083015190820152606080830151908201526080918201519181019190915260a00190565b34801561029d57600080fd5b506101a66102ac3660046110ae565b61060b565b3480156102bd57600080fd5b50600154600160a01b900460ff16610118565b3480156102dc57600080fd5b506101a66102eb3660046110c7565b610838565b3480156102fc57600080fd5b506101a6610a58565b34801561031157600080fd5b5061031b60075481565b604051908152602001610124565b34801561033557600080fd5b506001546040516001600160a01b039091168152602001610124565b34801561035d57600080fd5b5061017961036c36600461102b565b610a8e565b34801561037d57600080fd5b506101a661038c3660046110fc565b610af8565b6101a661039f3660046110ae565b610bb8565b3480156103b057600080fd5b5061031b60025481565b3480156103c657600080fd5b506101a66103d536600461102b565b610e9a565b60006001600160e01b031982166301ffc9a760e01b148061040b57506001600160e01b03198216636140a25f60e11b145b92915050565b6001600160a01b03811660009081526005602090815260409182902080548351818402810184019094528084526060939283018282801561047157602002820191906000526020600020905b81548152602001906001019080831161045d575b50505050509050919050565b600260005414156104a95760405162461bcd60e51b81526004016104a090611128565b60405180910390fd5b6002600055600154600160a01b900460ff16156104d85760405162461bcd60e51b81526004016104a09061115f565b600082815260046020818152604092839020835160a08101855281546001600160a01b039081168083526001840154909116938201939093526002820154948101949094526003810154606085015290910154608083015233146105895760405162461bcd60e51b815260206004820152602260248201527f4974656d2063616e206f6e6c79206265206368616e6765642062792073656c6c60448201526132b960f11b60648201526084016104a0565b80608001516327b832b760e11b146105b35760405162461bcd60e51b81526004016104a090611189565b6000838152600460209081526040918290206003018490558251908301518383015192516000805160206112c2833981519152936105f9938893909290919088906111ca565b60405180910390a15050600160005550565b6002600054141561062e5760405162461bcd60e51b81526004016104a090611128565b6002600055600154600160a01b900460ff161561065d5760405162461bcd60e51b81526004016104a09061115f565b600081815260046020818152604092839020835160a08101855281546001600160a01b0390811680835260018401549091169382019390935260028201549481019490945260038101546060850152909101546080830152331461070f5760405162461bcd60e51b8152602060048201526024808201527f4974656d2063616e206f6e6c792062652063616e63656c6c6564206279207365604482015263363632b960e11b60648201526084016104a0565b80608001516327b832b760e11b146107395760405162461bcd60e51b81526004016104a090611189565b6020810151815160408084015190516323b872dd60e01b81523060048201526001600160a01b03928316602482015260448101919091529116906323b872dd90606401600060405180830381600087803b15801561079657600080fd5b505af11580156107aa573d6000803e3d6000fd5b50505060008381526004602081815260408084206810d85b98d95b1b195960ba1b9381018490556003018490558551868301518783015183518a81526001600160a01b03938416958101959095529116918301919091526060820152608081019290925260a08201526000805160206112c2833981519152915060c00160405180910390a150506001600055565b6002600054141561085b5760405162461bcd60e51b81526004016104a090611128565b6002600055600154600160a01b900460ff161561088a5760405162461bcd60e51b81526004016104a09061115f565b6002548110156108dc5760405162461bcd60e51b815260206004820152601f60248201527f5072696365206d757374206265206174206c6561737420313020746675656c0060448201526064016104a0565b6040516323b872dd60e01b8152336004820152306024820152604481018390526001600160a01b038416906323b872dd90606401600060405180830381600087803b15801561092a57600080fd5b505af115801561093e573d6000803e3d6000fd5b50506040805160a081018252338082526001600160a01b0388811660208085018281528587018b8152606087018b81526327b832b760e11b6080890190815260078054600090815260048088528c82209b518c54908b166001600160a01b0319918216178d5596516001808e01805492909c169190981617909955935160028b0155915160038a01555197909501969096559385526005815285852083548154808701835591875282872090910155908452600681529383208154815480850183559185529484200193909355825490945091925090610a1f90849061121c565b90915550506007546000805160206112c283398151915290610a4390600190611234565b338585856040516105f99594939291906111ca565b6001546001600160a01b03163314610a825760405162461bcd60e51b81526004016104a09061124b565b610a8c6000610f35565b565b6001600160a01b038116600090815260066020908152604091829020805483518184028101840190945280845260609392830182828015610471576020028201919060005260206000209081548152602001906001019080831161045d5750505050509050919050565b6001546001600160a01b03163314610b225760405162461bcd60e51b81526004016104a09061124b565b600154600160a01b900460ff1615610b4c5760405162461bcd60e51b81526004016104a09061115f565b6000610b588383610f87565b905080610bb35760405162461bcd60e51b815260206004820152602360248201527f4661696c656420746f2073656e6420746675656c20746f20746865206164647260448201526265737360e81b60648201526084016104a0565b505050565b60026000541415610bdb5760405162461bcd60e51b81526004016104a090611128565b6002600055600154600160a01b900460ff1615610c0a5760405162461bcd60e51b81526004016104a09061115f565b600081815260046020818152604092839020835160a08101855281546001600160a01b0390811682526001830154169281019290925260028101549382019390935260038301546060820152910154608082018190526327b832b760e11b14610cad5760405162461bcd60e51b815260206004820152601560248201527424ba32b69034b9903737ba103337b91039b0b6329760591b60448201526064016104a0565b8060600151341015610d015760405162461bcd60e51b815260206004820152601e60248201527f596f752073686f756c6420706179207468652061736b6564207072696365000060448201526064016104a0565b600354606082015160009160ff1690610d1c90606490611280565b610d2691906112a2565b90506000610d478360000151838560600151610d429190611234565b610f87565b905080610da15760405162461bcd60e51b815260206004820152602260248201527f4661696c656420746f2073656e6420746675656c20746f207468652073656c6c60448201526132b960f11b60648201526084016104a0565b602083015160408085015190516323b872dd60e01b815230600482015233602482015260448101919091526001600160a01b03909116906323b872dd90606401600060405180830381600087803b158015610dfb57600080fd5b505af1158015610e0f573d6000803e3d6000fd5b50505060008581526004602081815260408084206314dbdb1960e21b9381018490556003018490558751888301518983015183518c81526001600160a01b03938416958101959095529116918301919091526060820152608081019290925260a08201526000805160206112c2833981519152915060c00160405180910390a1505060016000555050565b6001546001600160a01b03163314610ec45760405162461bcd60e51b81526004016104a09061124b565b6001600160a01b038116610f295760405162461bcd60e51b815260206004820152602660248201527f4f776e61626c653a206e6577206f776e657220697320746865207a65726f206160448201526564647265737360d01b60648201526084016104a0565b610f3281610f35565b50565b600180546001600160a01b038381166001600160a01b0319831681179093556040519116919082907f8be0079c531659141344cd1fd0a4f28419497f9722a3daafe3b4186f6b6457e090600090a35050565b600080836001600160a01b03168360405160006040518083038185875af1925050503d8060008114610fd5576040519150601f19603f3d011682016040523d82523d6000602084013e610fda565b606091505b509095945050505050565b600060208284031215610ff757600080fd5b81356001600160e01b03198116811461100f57600080fd5b9392505050565b6001600160a01b0381168114610f3257600080fd5b60006020828403121561103d57600080fd5b813561100f81611016565b6020808252825182820181905260009190848201906040850190845b8181101561108057835183529284019291840191600101611064565b50909695505050505050565b6000806040838503121561109f57600080fd5b50508035926020909101359150565b6000602082840312156110c057600080fd5b5035919050565b6000806000606084860312156110dc57600080fd5b83356110e781611016565b95602085013595506040909401359392505050565b6000806040838503121561110f57600080fd5b823561111a81611016565b946020939093013593505050565b6020808252601f908201527f5265656e7472616e637947756172643a207265656e7472616e742063616c6c00604082015260600190565b60208082526010908201526f14185d5cd8589b194e881c185d5cd95960821b604082015260600190565b60208082526021908201527f4974656d20697320616c726561647920736f6c64206f722063616e63656c6c656040820152601960fa1b606082015260800190565b9485526001600160a01b039384166020860152919092166040840152606083019190915260808201526327b832b760e11b60a082015260c00190565b634e487b7160e01b600052601160045260246000fd5b6000821982111561122f5761122f611206565b500190565b60008282101561124657611246611206565b500390565b6020808252818101527f4f776e61626c653a2063616c6c6572206973206e6f7420746865206f776e6572604082015260600190565b60008261129d57634e487b7160e01b600052601260045260246000fd5b500490565b60008160001904831182151516156112bc576112bc611206565b50029056fed0f4d031e712ceec0c5e8985bbf48c6836a73615de99511edf050fc447d249a6a2646970667358221220f9d3be33e798a537e83b2efdedbd364ad0db468a0515634a518de1741d531d7c64736f6c634300080c0033",
  "linkReferences": {},
  "deployedLinkReferences": {}
}