{
  "_format": "hh-sol-artifact-1",
  "contractName": "ZMarket",
  "sourceName": "contracts/Market/ZMarket.sol",
  "abi": [
    {
      "inputs": [],
      "stateMutability": "nonpayable",
      "type": "constructor"
    },
    {
      "anonymous": false,
      "inputs": [
        {
          "indexed": false,
          "internalType": "uint256",
          "name": "id",
          "type": "uint256"
        },
        {
          "indexed": false,
          "internalType": "address",
          "name": "seller",
          "type": "address"
        },
        {
          "indexed": false,
          "internalType": "address",
          "name": "tokenContract",
          "type": "address"
        },
        {
          "indexed": false,
          "internalType": "uint256",
          "name": "tokenId",
          "type": "uint256"
        },
        {
          "indexed": false,
          "internalType": "uint256",
          "name": "price",
          "type": "uint256"
        },
        {
          "indexed": false,
          "internalType": "bytes32",
          "name": "status",
          "type": "bytes32"
        }
      ],
      "name": "MarketChange",
      "type": "event"
    },
    {
      "anonymous": false,
      "inputs": [
        {
          "indexed": true,
          "internalType": "address",
          "name": "previousOwner",
          "type": "address"
        },
        {
          "indexed": true,
          "internalType": "address",
          "name": "newOwner",
          "type": "address"
        }
      ],
      "name": "OwnershipTransferred",
      "type": "event"
    },
    {
      "anonymous": false,
      "inputs": [
        {
          "indexed": false,
          "internalType": "address",
          "name": "account",
          "type": "address"
        }
      ],
      "name": "Paused",
      "type": "event"
    },
    {
      "anonymous": false,
      "inputs": [
        {
          "indexed": false,
          "internalType": "address",
          "name": "account",
          "type": "address"
        }
      ],
      "name": "Unpaused",
      "type": "event"
    },
    {
      "inputs": [
        {
          "internalType": "address payable",
          "name": "to",
          "type": "address"
        },
        {
          "internalType": "uint256",
          "name": "amount",
          "type": "uint256"
        }
      ],
      "name": "_payout",
      "outputs": [],
      "stateMutability": "nonpayable",
      "type": "function"
    },
    {
      "inputs": [
        {
          "internalType": "uint256",
          "name": "_id",
          "type": "uint256"
        }
      ],
      "name": "buy",
      "outputs": [],
      "stateMutability": "payable",
      "type": "function"
    },
    {
      "inputs": [
        {
          "internalType": "uint256",
          "name": "_id",
          "type": "uint256"
        }
      ],
      "name": "cancel",
      "outputs": [],
      "stateMutability": "nonpayable",
      "type": "function"
    },
    {
      "inputs": [
        {
          "internalType": "uint256",
          "name": "_id",
          "type": "uint256"
        }
      ],
      "name": "getItem",
      "outputs": [
        {
          "components": [
            {
              "internalType": "address payable",
              "name": "seller",
              "type": "address"
            },
            {
              "internalType": "address",
              "name": "tokenContract",
              "type": "address"
            },
            {
              "internalType": "uint256",
              "name": "tokenId",
              "type": "uint256"
            },
            {
              "internalType": "uint256",
              "name": "price",
              "type": "uint256"
            },
            {
              "internalType": "bytes32",
              "name": "status",
              "type": "bytes32"
            }
          ],
          "internalType": "struct ZMarket.Item",
          "name": "",
          "type": "tuple"
        }
      ],
      "stateMutability": "view",
      "type": "function"
    },
    {
      "inputs": [
        {
          "internalType": "address",
          "name": "_addr",
          "type": "address"
        }
      ],
      "name": "getItemsOfAddress",
      "outputs": [
        {
          "internalType": "uint256[]",
          "name": "",
          "type": "uint256[]"
        }
      ],
      "stateMutability": "view",
      "type": "function"
    },
    {
      "inputs": [
        {
          "internalType": "address",
          "name": "_addr",
          "type": "address"
        }
      ],
      "name": "getItemsOfContract",
      "outputs": [
        {
          "internalType": "uint256[]",
          "name": "",
          "type": "uint256[]"
        }
      ],
      "stateMutability": "view",
      "type": "function"
    },
    {
      "inputs": [],
      "name": "itemsCounter",
      "outputs": [
        {
          "internalType": "uint256",
          "name": "",
          "type": "uint256"
        }
      ],
      "stateMutability": "view",
      "type": "function"
    },
    {
      "inputs": [],
      "name": "marketFee",
      "outputs": [
        {
          "internalType": "uint8",
          "name": "",
          "type": "uint8"
        }
      ],
      "stateMutability": "view",
      "type": "function"
    },
    {
      "inputs": [],
      "name": "minPrice",
      "outputs": [
        {
          "internalType": "uint256",
          "name": "",
          "type": "uint256"
        }
      ],
      "stateMutability": "view",
      "type": "function"
    },
    {
      "inputs": [],
      "name": "owner",
      "outputs": [
        {
          "internalType": "address",
          "name": "",
          "type": "address"
        }
      ],
      "stateMutability": "view",
      "type": "function"
    },
    {
      "inputs": [],
      "name": "paused",
      "outputs": [
        {
          "internalType": "bool",
          "name": "",
          "type": "bool"
        }
      ],
      "stateMutability": "view",
      "type": "function"
    },
    {
      "inputs": [],
      "name": "renounceOwnership",
      "outputs": [],
      "stateMutability": "nonpayable",
      "type": "function"
    },
    {
      "inputs": [
        {
          "internalType": "address",
          "name": "tokenContract",
          "type": "address"
        },
        {
          "internalType": "uint256",
          "name": "tokenId",
          "type": "uint256"
        },
        {
          "internalType": "uint256",
          "name": "price",
          "type": "uint256"
        }
      ],
      "name": "sell",
      "outputs": [],
      "stateMutability": "nonpayable",
      "type": "function"
    },
    {
      "inputs": [
        {
          "internalType": "address",
          "name": "newOwner",
          "type": "address"
        }
      ],
      "name": "transferOwnership",
      "outputs": [],
      "stateMutability": "nonpayable",
      "type": "function"
    },
    {
      "inputs": [
        {
          "internalType": "uint256",
          "name": "_id",
          "type": "uint256"
        },
        {
          "internalType": "uint256",
          "name": "_price",
          "type": "uint256"
        }
      ],
      "name": "update",
      "outputs": [],
      "stateMutability": "nonpayable",
      "type": "function"
    }
  ],
  "bytecode": "0x608060405234801561001057600080fd5b50600160005561001f3361004f565b6001805460ff60a01b191690556000600755678ac7230489e800006002556003805460ff191660041790556100a1565b600180546001600160a01b038381166001600160a01b0319831681179093556040519116919082907f8be0079c531659141344cd1fd0a4f28419497f9722a3daafe3b4186f6b6457e090600090a35050565b611285806100b06000396000f3fe6080604052600436106100e85760003560e01c8063715018a61161008a5780639b836d1a116100595780639b836d1a14610341578063d96a094a14610361578063e45be8eb14610374578063f2fde38b1461038a57600080fd5b8063715018a6146102c05780638c1f6886146102d55780638da5cb5b146102f95780639613201f1461032157600080fd5b80633129e773116100c65780633129e7731461016d57806340e58ee5146102565780635c975abb146102765780636a272462146102a057600080fd5b80630ccf2156146100ed578063218377381461011e5780632fb565e81461014b575b600080fd5b3480156100f957600080fd5b506003546101079060ff1681565b60405160ff90911681526020015b60405180910390f35b34801561012a57600080fd5b5061013e610139366004610f92565b6103aa565b6040516101159190610fb6565b34801561015757600080fd5b5061016b610166366004610ffa565b610416565b005b34801561017957600080fd5b5061020b61018836600461101c565b6040805160a08101825260008082526020820181905291810182905260608101829052608081019190915250600090815260046020818152604092839020835160a08101855281546001600160a01b0390811682526001830154169281019290925260028101549382019390935260038301546060820152910154608082015290565b604051610115919081516001600160a01b0390811682526020808401519091169082015260408083015190820152606080830151908201526080918201519181019190915260a00190565b34801561026257600080fd5b5061016b61027136600461101c565b6105a4565b34801561028257600080fd5b50600154600160a01b900460ff166040519015158152602001610115565b3480156102ac57600080fd5b5061016b6102bb366004611035565b6107d1565b3480156102cc57600080fd5b5061016b6109f0565b3480156102e157600080fd5b506102eb60075481565b604051908152602001610115565b34801561030557600080fd5b506001546040516001600160a01b039091168152602001610115565b34801561032d57600080fd5b5061013e61033c366004610f92565b610a26565b34801561034d57600080fd5b5061016b61035c36600461106a565b610a90565b61016b61036f36600461101c565b610b50565b34801561038057600080fd5b506102eb60025481565b34801561039657600080fd5b5061016b6103a5366004610f92565b610e32565b6001600160a01b03811660009081526005602090815260409182902080548351818402810184019094528084526060939283018282801561040a57602002820191906000526020600020905b8154815260200190600101908083116103f6575b50505050509050919050565b600260005414156104425760405162461bcd60e51b815260040161043990611096565b60405180910390fd5b6002600055600154600160a01b900460ff16156104715760405162461bcd60e51b8152600401610439906110cd565b600082815260046020818152604092839020835160a08101855281546001600160a01b039081168083526001840154909116938201939093526002820154948101949094526003810154606085015290910154608083015233146105225760405162461bcd60e51b815260206004820152602260248201527f4974656d2063616e206f6e6c79206265206368616e6765642062792073656c6c60448201526132b960f11b6064820152608401610439565b80608001516327b832b760e11b1461054c5760405162461bcd60e51b8152600401610439906110f7565b6000838152600460209081526040918290206003018490558251908301518383015192516000805160206112308339815191529361059293889390929091908890611138565b60405180910390a15050600160005550565b600260005414156105c75760405162461bcd60e51b815260040161043990611096565b6002600055600154600160a01b900460ff16156105f65760405162461bcd60e51b8152600401610439906110cd565b600081815260046020818152604092839020835160a08101855281546001600160a01b039081168083526001840154909116938201939093526002820154948101949094526003810154606085015290910154608083015233146106a85760405162461bcd60e51b8152602060048201526024808201527f4974656d2063616e206f6e6c792062652063616e63656c6c6564206279207365604482015263363632b960e11b6064820152608401610439565b80608001516327b832b760e11b146106d25760405162461bcd60e51b8152600401610439906110f7565b6020810151815160408084015190516323b872dd60e01b81523060048201526001600160a01b03928316602482015260448101919091529116906323b872dd90606401600060405180830381600087803b15801561072f57600080fd5b505af1158015610743573d6000803e3d6000fd5b50505060008381526004602081815260408084206810d85b98d95b1b195960ba1b9381018490556003018490558551868301518783015183518a81526001600160a01b03938416958101959095529116918301919091526060820152608081019290925260a0820152600080516020611230833981519152915060c00160405180910390a150506001600055565b600260005414156107f45760405162461bcd60e51b815260040161043990611096565b6002600055600154600160a01b900460ff16156108235760405162461bcd60e51b8152600401610439906110cd565b60025481116108745760405162461bcd60e51b815260206004820152601f60248201527f5072696365206d757374206265206174206c6561737420313020746675656c006044820152606401610439565b6040516323b872dd60e01b8152336004820152306024820152604481018390526001600160a01b038416906323b872dd90606401600060405180830381600087803b1580156108c257600080fd5b505af11580156108d6573d6000803e3d6000fd5b50506040805160a081018252338082526001600160a01b0388811660208085018281528587018b8152606087018b81526327b832b760e11b6080890190815260078054600090815260048088528c82209b518c54908b166001600160a01b0319918216178d5596516001808e01805492909c169190981617909955935160028b0155915160038a015551979095019690965593855260058152858520835481548087018355918752828720909101559084526006815293832081548154808501835591855294842001939093558254909450919250906109b790849061118a565b9091555050600754600080516020611230833981519152906109db906001906111a2565b33858585604051610592959493929190611138565b6001546001600160a01b03163314610a1a5760405162461bcd60e51b8152600401610439906111b9565b610a246000610ecd565b565b6001600160a01b03811660009081526006602090815260409182902080548351818402810184019094528084526060939283018282801561040a57602002820191906000526020600020908154815260200190600101908083116103f65750505050509050919050565b6001546001600160a01b03163314610aba5760405162461bcd60e51b8152600401610439906111b9565b600154600160a01b900460ff1615610ae45760405162461bcd60e51b8152600401610439906110cd565b6000610af08383610f1f565b905080610b4b5760405162461bcd60e51b815260206004820152602360248201527f4661696c656420746f2073656e6420746675656c20746f20746865206164647260448201526265737360e81b6064820152608401610439565b505050565b60026000541415610b735760405162461bcd60e51b815260040161043990611096565b6002600055600154600160a01b900460ff1615610ba25760405162461bcd60e51b8152600401610439906110cd565b600081815260046020818152604092839020835160a08101855281546001600160a01b0390811682526001830154169281019290925260028101549382019390935260038301546060820152910154608082018190526327b832b760e11b14610c455760405162461bcd60e51b815260206004820152601560248201527424ba32b69034b9903737ba103337b91039b0b6329760591b6044820152606401610439565b8060600151341015610c995760405162461bcd60e51b815260206004820152601e60248201527f596f752073686f756c6420706179207468652061736b656420707269636500006044820152606401610439565b600354606082015160009160ff1690610cb4906064906111ee565b610cbe9190611210565b90506000610cdf8360000151838560600151610cda91906111a2565b610f1f565b905080610d395760405162461bcd60e51b815260206004820152602260248201527f4661696c656420746f2073656e6420746675656c20746f207468652073656c6c60448201526132b960f11b6064820152608401610439565b602083015160408085015190516323b872dd60e01b815230600482015233602482015260448101919091526001600160a01b03909116906323b872dd90606401600060405180830381600087803b158015610d9357600080fd5b505af1158015610da7573d6000803e3d6000fd5b50505060008581526004602081815260408084206314dbdb1960e21b9381018490556003018490558751888301518983015183518c81526001600160a01b03938416958101959095529116918301919091526060820152608081019290925260a0820152600080516020611230833981519152915060c00160405180910390a1505060016000555050565b6001546001600160a01b03163314610e5c5760405162461bcd60e51b8152600401610439906111b9565b6001600160a01b038116610ec15760405162461bcd60e51b815260206004820152602660248201527f4f776e61626c653a206e6577206f776e657220697320746865207a65726f206160448201526564647265737360d01b6064820152608401610439565b610eca81610ecd565b50565b600180546001600160a01b038381166001600160a01b0319831681179093556040519116919082907f8be0079c531659141344cd1fd0a4f28419497f9722a3daafe3b4186f6b6457e090600090a35050565b600080836001600160a01b03168360405160006040518083038185875af1925050503d8060008114610f6d576040519150601f19603f3d011682016040523d82523d6000602084013e610f72565b606091505b509095945050505050565b6001600160a01b0381168114610eca57600080fd5b600060208284031215610fa457600080fd5b8135610faf81610f7d565b9392505050565b6020808252825182820181905260009190848201906040850190845b81811015610fee57835183529284019291840191600101610fd2565b50909695505050505050565b6000806040838503121561100d57600080fd5b50508035926020909101359150565b60006020828403121561102e57600080fd5b5035919050565b60008060006060848603121561104a57600080fd5b833561105581610f7d565b95602085013595506040909401359392505050565b6000806040838503121561107d57600080fd5b823561108881610f7d565b946020939093013593505050565b6020808252601f908201527f5265656e7472616e637947756172643a207265656e7472616e742063616c6c00604082015260600190565b60208082526010908201526f14185d5cd8589b194e881c185d5cd95960821b604082015260600190565b60208082526021908201527f4974656d20697320616c726561647920736f6c64206f722063616e63656c6c656040820152601960fa1b606082015260800190565b9485526001600160a01b039384166020860152919092166040840152606083019190915260808201526327b832b760e11b60a082015260c00190565b634e487b7160e01b600052601160045260246000fd5b6000821982111561119d5761119d611174565b500190565b6000828210156111b4576111b4611174565b500390565b6020808252818101527f4f776e61626c653a2063616c6c6572206973206e6f7420746865206f776e6572604082015260600190565b60008261120b57634e487b7160e01b600052601260045260246000fd5b500490565b600081600019048311821515161561122a5761122a611174565b50029056fed0f4d031e712ceec0c5e8985bbf48c6836a73615de99511edf050fc447d249a6a2646970667358221220d964e5cf031e153f2ab2c044ef40bb5b350c2fa178b7f5493841a5160b19f4eb64736f6c634300080c0033",
  "linkReferences": {},
  "deployedLinkReferences": {}
}