{
  "_format": "hh-sol-artifact-1",
  "contractName": "ZMarket",
  "sourceName": "contracts/Market/ZMarket.sol",
  "abi": [
    {
      "inputs": [],
      "stateMutability": "nonpayable",
      "type": "constructor"
    },
    {
      "anonymous": false,
      "inputs": [
        {
          "indexed": false,
          "internalType": "uint256",
          "name": "id",
          "type": "uint256"
        },
        {
          "indexed": false,
          "internalType": "address",
          "name": "seller",
          "type": "address"
        },
        {
          "indexed": false,
          "internalType": "address",
          "name": "buyer",
          "type": "address"
        },
        {
          "indexed": false,
          "internalType": "address",
          "name": "tokenContract",
          "type": "address"
        },
        {
          "indexed": false,
          "internalType": "uint256",
          "name": "tokenId",
          "type": "uint256"
        },
        {
          "indexed": false,
          "internalType": "uint256",
          "name": "price",
          "type": "uint256"
        },
        {
          "indexed": false,
          "internalType": "bytes32",
          "name": "status",
          "type": "bytes32"
        }
      ],
      "name": "MarketChange",
      "type": "event"
    },
    {
      "anonymous": false,
      "inputs": [
        {
          "indexed": true,
          "internalType": "address",
          "name": "previousOwner",
          "type": "address"
        },
        {
          "indexed": true,
          "internalType": "address",
          "name": "newOwner",
          "type": "address"
        }
      ],
      "name": "OwnershipTransferred",
      "type": "event"
    },
    {
      "anonymous": false,
      "inputs": [
        {
          "indexed": false,
          "internalType": "address",
          "name": "account",
          "type": "address"
        }
      ],
      "name": "Paused",
      "type": "event"
    },
    {
      "anonymous": false,
      "inputs": [
        {
          "indexed": false,
          "internalType": "address",
          "name": "account",
          "type": "address"
        }
      ],
      "name": "Unpaused",
      "type": "event"
    },
    {
      "inputs": [
        {
          "internalType": "address payable",
          "name": "to",
          "type": "address"
        },
        {
          "internalType": "uint256",
          "name": "amount",
          "type": "uint256"
        }
      ],
      "name": "_payout",
      "outputs": [],
      "stateMutability": "nonpayable",
      "type": "function"
    },
    {
      "inputs": [
        {
          "internalType": "uint256",
          "name": "_id",
          "type": "uint256"
        }
      ],
      "name": "buy",
      "outputs": [],
      "stateMutability": "payable",
      "type": "function"
    },
    {
      "inputs": [
        {
          "internalType": "uint256",
          "name": "_id",
          "type": "uint256"
        }
      ],
      "name": "cancel",
      "outputs": [],
      "stateMutability": "nonpayable",
      "type": "function"
    },
    {
      "inputs": [
        {
          "internalType": "uint256",
          "name": "_id",
          "type": "uint256"
        }
      ],
      "name": "getItem",
      "outputs": [
        {
          "components": [
            {
              "internalType": "address payable",
              "name": "seller",
              "type": "address"
            },
            {
              "internalType": "address",
              "name": "tokenContract",
              "type": "address"
            },
            {
              "internalType": "uint256",
              "name": "tokenId",
              "type": "uint256"
            },
            {
              "internalType": "uint256",
              "name": "price",
              "type": "uint256"
            },
            {
              "internalType": "bytes32",
              "name": "status",
              "type": "bytes32"
            }
          ],
          "internalType": "struct ZMarket.Item",
          "name": "",
          "type": "tuple"
        }
      ],
      "stateMutability": "view",
      "type": "function"
    },
    {
      "inputs": [
        {
          "internalType": "address",
          "name": "_addr",
          "type": "address"
        }
      ],
      "name": "getItemsOfAddress",
      "outputs": [
        {
          "internalType": "uint256[]",
          "name": "",
          "type": "uint256[]"
        }
      ],
      "stateMutability": "view",
      "type": "function"
    },
    {
      "inputs": [],
      "name": "itemsCounter",
      "outputs": [
        {
          "internalType": "uint256",
          "name": "",
          "type": "uint256"
        }
      ],
      "stateMutability": "view",
      "type": "function"
    },
    {
      "inputs": [],
      "name": "marketFee",
      "outputs": [
        {
          "internalType": "uint8",
          "name": "",
          "type": "uint8"
        }
      ],
      "stateMutability": "view",
      "type": "function"
    },
    {
      "inputs": [],
      "name": "minPrice",
      "outputs": [
        {
          "internalType": "uint256",
          "name": "",
          "type": "uint256"
        }
      ],
      "stateMutability": "view",
      "type": "function"
    },
    {
      "inputs": [],
      "name": "owner",
      "outputs": [
        {
          "internalType": "address",
          "name": "",
          "type": "address"
        }
      ],
      "stateMutability": "view",
      "type": "function"
    },
    {
      "inputs": [],
      "name": "paused",
      "outputs": [
        {
          "internalType": "bool",
          "name": "",
          "type": "bool"
        }
      ],
      "stateMutability": "view",
      "type": "function"
    },
    {
      "inputs": [],
      "name": "renounceOwnership",
      "outputs": [],
      "stateMutability": "nonpayable",
      "type": "function"
    },
    {
      "inputs": [
        {
          "internalType": "address",
          "name": "tokenContract",
          "type": "address"
        },
        {
          "internalType": "uint256",
          "name": "tokenId",
          "type": "uint256"
        },
        {
          "internalType": "uint256",
          "name": "price",
          "type": "uint256"
        }
      ],
      "name": "sell",
      "outputs": [],
      "stateMutability": "nonpayable",
      "type": "function"
    },
    {
      "inputs": [
        {
          "internalType": "bytes4",
          "name": "interfaceID",
          "type": "bytes4"
        }
      ],
      "name": "supportsInterface",
      "outputs": [
        {
          "internalType": "bool",
          "name": "",
          "type": "bool"
        }
      ],
      "stateMutability": "pure",
      "type": "function"
    },
    {
      "inputs": [
        {
          "internalType": "address",
          "name": "newOwner",
          "type": "address"
        }
      ],
      "name": "transferOwnership",
      "outputs": [],
      "stateMutability": "nonpayable",
      "type": "function"
    },
    {
      "inputs": [
        {
          "internalType": "uint256",
          "name": "_id",
          "type": "uint256"
        },
        {
          "internalType": "uint256",
          "name": "_price",
          "type": "uint256"
        }
      ],
      "name": "update",
      "outputs": [],
      "stateMutability": "nonpayable",
      "type": "function"
    }
  ],
  "bytecode": "0x608060405234801561001057600080fd5b50600160005561001f3361004f565b6001805460ff60a01b191690556000600655670de0b6b3a76400006002556003805460ff191660041790556100a1565b600180546001600160a01b038381166001600160a01b0319831681179093556040519116919082907f8be0079c531659141344cd1fd0a4f28419497f9722a3daafe3b4186f6b6457e090600090a35050565b6112e1806100b06000396000f3fe6080604052600436106100e85760003560e01c80636a2724621161008a5780639b836d1a116100595780639b836d1a14610346578063d96a094a14610366578063e45be8eb14610379578063f2fde38b1461038f57600080fd5b80636a272462146102c5578063715018a6146102e55780638c1f6886146102fa5780638da5cb5b1461031e57600080fd5b80632fb565e8116100c65780632fb565e81461017b5780633129e7731461019d57806340e58ee5146102865780635c975abb146102a657600080fd5b806301ffc9a7146100ed5780630ccf215614610122578063218377381461014e575b600080fd5b3480156100f957600080fd5b5061010d610108366004610fa9565b6103af565b60405190151581526020015b60405180910390f35b34801561012e57600080fd5b5060035461013c9060ff1681565b60405160ff9091168152602001610119565b34801561015a57600080fd5b5061016e610169366004610fef565b6103e6565b604051610119919061100c565b34801561018757600080fd5b5061019b610196366004611050565b610452565b005b3480156101a957600080fd5b5061023b6101b8366004611072565b6040805160a08101825260008082526020820181905291810182905260608101829052608081019190915250600090815260046020818152604092839020835160a08101855281546001600160a01b0390811682526001830154169281019290925260028101549382019390935260038301546060820152910154608082015290565b604051610119919081516001600160a01b0390811682526020808401519091169082015260408083015190820152606080830151908201526080918201519181019190915260a00190565b34801561029257600080fd5b5061019b6102a1366004611072565b610630565b3480156102b257600080fd5b50600154600160a01b900460ff1661010d565b3480156102d157600080fd5b5061019b6102e036600461108b565b61087a565b3480156102f157600080fd5b5061019b610a7f565b34801561030657600080fd5b5061031060065481565b604051908152602001610119565b34801561032a57600080fd5b506001546040516001600160a01b039091168152602001610119565b34801561035257600080fd5b5061019b6103613660046110c0565b610ab5565b61019b610374366004611072565b610b75565b34801561038557600080fd5b5061031060025481565b34801561039b57600080fd5b5061019b6103aa366004610fef565b610e5e565b60006001600160e01b031982166301ffc9a760e01b14806103e057506001600160e01b03198216636140a25f60e11b145b92915050565b6001600160a01b03811660009081526005602090815260409182902080548351818402810184019094528084526060939283018282801561044657602002820191906000526020600020905b815481526020019060010190808311610432575b50505050509050919050565b6002600054141561047e5760405162461bcd60e51b8152600401610475906110ec565b60405180910390fd5b6002600055600154600160a01b900460ff16156104ad5760405162461bcd60e51b815260040161047590611123565b6002548110156104ff5760405162461bcd60e51b815260206004820152601e60248201527f5072696365206d757374206265206174206c65617374203320746675656c00006044820152606401610475565b600082815260046020818152604092839020835160a08101855281546001600160a01b039081168083526001840154909116938201939093526002820154948101949094526003810154606085015290910154608083015233146105b05760405162461bcd60e51b815260206004820152602260248201527f4974656d2063616e206f6e6c79206265206368616e6765642062792073656c6c60448201526132b960f11b6064820152608401610475565b80608001516327b832b760e11b146105da5760405162461bcd60e51b81526004016104759061114d565b600083815260046020908152604080832060030185905583519184015184820151915160008051602061128c8339815191529461061e94899490939192899061118e565b60405180910390a15050600160005550565b600260005414156106535760405162461bcd60e51b8152600401610475906110ec565b6002600055600154600160a01b900460ff16156106825760405162461bcd60e51b815260040161047590611123565b600081815260046020818152604092839020835160a08101855281546001600160a01b039081168083526001840154909116938201939093526002820154948101949094526003810154606085015290910154608083015233146107345760405162461bcd60e51b8152602060048201526024808201527f4974656d2063616e206f6e6c792062652063616e63656c6c6564206279207365604482015263363632b960e11b6064820152608401610475565b80608001516327b832b760e11b1461075e5760405162461bcd60e51b81526004016104759061114d565b6020810151815160408084015190516323b872dd60e01b81523060048201526001600160a01b03928316602482015260448101919091529116906323b872dd90606401600060405180830381600087803b1580156107bb57600080fd5b505af11580156107cf573d6000803e3d6000fd5b50505060008381526004602081815260408084206810d85b98d95b1b195960ba1b930192909255845190850151858301516060870151935160008051602061128c8339815191529650610869958995909392919586526001600160a01b039485166020870152928416604086015292166060840152608083019190915260a08201526810d85b98d95b1b195960ba1b60c082015260e00190565b60405180910390a150506001600055565b6002600054141561089d5760405162461bcd60e51b8152600401610475906110ec565b6002600055600154600160a01b900460ff16156108cc5760405162461bcd60e51b815260040161047590611123565b60025481101561091e5760405162461bcd60e51b815260206004820152601e60248201527f5072696365206d757374206265206174206c65617374203320746675656c00006044820152606401610475565b6040516323b872dd60e01b8152336004820152306024820152604481018390526001600160a01b038416906323b872dd90606401600060405180830381600087803b15801561096c57600080fd5b505af1158015610980573d6000803e3d6000fd5b50506040805160a081018252338082526001600160a01b0388811660208085019182528486018a8152606086018a81526327b832b760e11b6080880190815260068054600090815260048087528b82209a518b54908a166001600160a01b0319918216178c5597516001808d01805492909b169190991617909855935160028a0155915160038901555196909401959095559284526005835293832081548154808701835591855292842001919091558054929450925090610a439084906111e6565b909155505060065460008051602061128c83398151915290610a67906001906111fe565b33600086868660405161061e9695949392919061118e565b6001546001600160a01b03163314610aa95760405162461bcd60e51b815260040161047590611215565b610ab36000610ef9565b565b6001546001600160a01b03163314610adf5760405162461bcd60e51b815260040161047590611215565b600154600160a01b900460ff1615610b095760405162461bcd60e51b815260040161047590611123565b6000610b158383610f4b565b905080610b705760405162461bcd60e51b815260206004820152602360248201527f4661696c656420746f2073656e6420746675656c20746f20746865206164647260448201526265737360e81b6064820152608401610475565b505050565b60026000541415610b985760405162461bcd60e51b8152600401610475906110ec565b6002600055600154600160a01b900460ff1615610bc75760405162461bcd60e51b815260040161047590611123565b600081815260046020818152604092839020835160a08101855281546001600160a01b0390811682526001830154169281019290925260028101549382019390935260038301546060820152910154608082018190526327b832b760e11b14610c6a5760405162461bcd60e51b815260206004820152601560248201527424ba32b69034b9903737ba103337b91039b0b6329760591b6044820152606401610475565b8060600151341015610cbe5760405162461bcd60e51b815260206004820152601e60248201527f596f752073686f756c6420706179207468652061736b656420707269636500006044820152606401610475565b600354606082015160009160ff1690610cd99060649061124a565b610ce3919061126c565b90506000610d048360000151838560600151610cff91906111fe565b610f4b565b905080610d5e5760405162461bcd60e51b815260206004820152602260248201527f4661696c656420746f2073656e6420746675656c20746f207468652073656c6c60448201526132b960f11b6064820152608401610475565b602083015160408085015190516323b872dd60e01b815230600482015233602482015260448101919091526001600160a01b03909116906323b872dd90606401600060405180830381600087803b158015610db857600080fd5b505af1158015610dcc573d6000803e3d6000fd5b5050506000858152600460208181526040928390206314dbdb1960e21b9201829055865187820151888501516060808b015187518d81526001600160a01b039586169681019690965233868901529390921691840191909152608083015260a082015260c0810191909152905160008051602061128c83398151915292509081900360e00190a1505060016000555050565b6001546001600160a01b03163314610e885760405162461bcd60e51b815260040161047590611215565b6001600160a01b038116610eed5760405162461bcd60e51b815260206004820152602660248201527f4f776e61626c653a206e6577206f776e657220697320746865207a65726f206160448201526564647265737360d01b6064820152608401610475565b610ef681610ef9565b50565b600180546001600160a01b038381166001600160a01b0319831681179093556040519116919082907f8be0079c531659141344cd1fd0a4f28419497f9722a3daafe3b4186f6b6457e090600090a35050565b600080836001600160a01b03168360405160006040518083038185875af1925050503d8060008114610f99576040519150601f19603f3d011682016040523d82523d6000602084013e610f9e565b606091505b509095945050505050565b600060208284031215610fbb57600080fd5b81356001600160e01b031981168114610fd357600080fd5b9392505050565b6001600160a01b0381168114610ef657600080fd5b60006020828403121561100157600080fd5b8135610fd381610fda565b6020808252825182820181905260009190848201906040850190845b8181101561104457835183529284019291840191600101611028565b50909695505050505050565b6000806040838503121561106357600080fd5b50508035926020909101359150565b60006020828403121561108457600080fd5b5035919050565b6000806000606084860312156110a057600080fd5b83356110ab81610fda565b95602085013595506040909401359392505050565b600080604083850312156110d357600080fd5b82356110de81610fda565b946020939093013593505050565b6020808252601f908201527f5265656e7472616e637947756172643a207265656e7472616e742063616c6c00604082015260600190565b60208082526010908201526f14185d5cd8589b194e881c185d5cd95960821b604082015260600190565b60208082526021908201527f4974656d20697320616c726561647920736f6c64206f722063616e63656c6c656040820152601960fa1b606082015260800190565b9586526001600160a01b039485166020870152928416604086015292166060840152608083019190915260a08201526327b832b760e11b60c082015260e00190565b634e487b7160e01b600052601160045260246000fd5b600082198211156111f9576111f96111d0565b500190565b600082821015611210576112106111d0565b500390565b6020808252818101527f4f776e61626c653a2063616c6c6572206973206e6f7420746865206f776e6572604082015260600190565b60008261126757634e487b7160e01b600052601260045260246000fd5b500490565b6000816000190483118215151615611286576112866111d0565b50029056fe9009be6f47f457304308e1b1c279e4b51f7e0828dd2ddca9df7733b64197cbc2a26469706673582212201eb87453c8a9bf4d7456fa775a720a4492362b6da24b2a3ec7e57fe9ed056c2564736f6c634300080c0033",
  "linkReferences": {},
  "deployedLinkReferences": {}
}