{
  "_format": "hh-sol-artifact-1",
  "contractName": "ZMarket",
  "sourceName": "contracts/Market/OldZMarket.sol",
  "abi": [
    {
      "inputs": [
        {
          "internalType": "uint8",
          "name": "marketFee_",
          "type": "uint8"
        }
      ],
      "stateMutability": "nonpayable",
      "type": "constructor"
    },
    {
      "anonymous": false,
      "inputs": [
        {
          "indexed": true,
          "internalType": "uint256",
          "name": "itemId",
          "type": "uint256"
        },
        {
          "indexed": true,
          "internalType": "address",
          "name": "nftContract",
          "type": "address"
        },
        {
          "indexed": true,
          "internalType": "uint256",
          "name": "tokenId",
          "type": "uint256"
        },
        {
          "indexed": false,
          "internalType": "address",
          "name": "owner",
          "type": "address"
        },
        {
          "indexed": false,
          "internalType": "uint256",
          "name": "price",
          "type": "uint256"
        },
        {
          "indexed": false,
          "internalType": "bool",
          "name": "sold",
          "type": "bool"
        }
      ],
      "name": "Buy",
      "type": "event"
    },
    {
      "anonymous": false,
      "inputs": [
        {
          "indexed": true,
          "internalType": "uint256",
          "name": "itemId",
          "type": "uint256"
        },
        {
          "indexed": true,
          "internalType": "address",
          "name": "nftContract",
          "type": "address"
        },
        {
          "indexed": true,
          "internalType": "uint256",
          "name": "tokenId",
          "type": "uint256"
        },
        {
          "indexed": false,
          "internalType": "address",
          "name": "seller",
          "type": "address"
        },
        {
          "indexed": false,
          "internalType": "uint256",
          "name": "price",
          "type": "uint256"
        },
        {
          "indexed": false,
          "internalType": "bool",
          "name": "sold",
          "type": "bool"
        }
      ],
      "name": "Sell",
      "type": "event"
    },
    {
      "inputs": [
        {
          "internalType": "address",
          "name": "nftContract",
          "type": "address"
        },
        {
          "internalType": "uint256",
          "name": "itemId",
          "type": "uint256"
        }
      ],
      "name": "buy",
      "outputs": [],
      "stateMutability": "payable",
      "type": "function"
    },
    {
      "inputs": [
        {
          "internalType": "uint256",
          "name": "itemId",
          "type": "uint256"
        }
      ],
      "name": "itemById",
      "outputs": [
        {
          "components": [
            {
              "internalType": "uint256",
              "name": "itemId",
              "type": "uint256"
            },
            {
              "internalType": "address",
              "name": "nftContract",
              "type": "address"
            },
            {
              "internalType": "uint256",
              "name": "tokenId",
              "type": "uint256"
            },
            {
              "internalType": "address payable",
              "name": "seller",
              "type": "address"
            },
            {
              "internalType": "uint256",
              "name": "price",
              "type": "uint256"
            },
            {
              "internalType": "bool",
              "name": "sold",
              "type": "bool"
            }
          ],
          "internalType": "struct ZMarket.MarketplaceItem",
          "name": "",
          "type": "tuple"
        }
      ],
      "stateMutability": "view",
      "type": "function"
    },
    {
      "inputs": [],
      "name": "marketFee",
      "outputs": [
        {
          "internalType": "uint256",
          "name": "",
          "type": "uint256"
        }
      ],
      "stateMutability": "view",
      "type": "function"
    },
    {
      "inputs": [],
      "name": "minSalePrice",
      "outputs": [
        {
          "internalType": "uint256",
          "name": "",
          "type": "uint256"
        }
      ],
      "stateMutability": "view",
      "type": "function"
    },
    {
      "inputs": [
        {
          "internalType": "address",
          "name": "nftContract",
          "type": "address"
        },
        {
          "internalType": "uint256",
          "name": "tokenId",
          "type": "uint256"
        },
        {
          "internalType": "uint256",
          "name": "price",
          "type": "uint256"
        }
      ],
      "name": "sell",
      "outputs": [],
      "stateMutability": "payable",
      "type": "function"
    }
  ],
  "bytecode": "0x6080604052600160045534801561001557600080fd5b5060405161084e38038061084e83398101604081905261003491610065565b6001600055600380546001600160a01b031916331790556005805460ff90921660ff1990921691909117905561008f565b60006020828403121561007757600080fd5b815160ff8116811461008857600080fd5b9392505050565b6107b08061009e6000396000f3fe60806040526004361061004a5760003560e01c80630ccf21561461004f5780635ca11c34146100765780636a2724621461008b578063c51a7945146100a0578063cce7ec13146101b1575b600080fd5b34801561005b57600080fd5b5060055460ff165b6040519081526020015b60405180910390f35b34801561008257600080fd5b50600454610063565b61009e610099366004610696565b6101c4565b005b3480156100ac57600080fd5b506101576100bb3660046106c9565b6040805160c081018252600080825260208201819052918101829052606081018290526080810182905260a081019190915250600090815260066020908152604091829020825160c0810184528154815260018201546001600160a01b039081169382019390935260028201549381019390935260038101549091166060830152600481015460808301526005015460ff16151560a082015290565b60405161006d9190815181526020808301516001600160a01b039081169183019190915260408084015190830152606080840151909116908201526080808301519082015260a09182015115159181019190915260c00190565b61009e6101bf3660046106e2565b6103e6565b6002600054141561021c5760405162461bcd60e51b815260206004820152601f60248201527f5265656e7472616e637947756172643a207265656e7472616e742063616c6c0060448201526064015b60405180910390fd5b600260005560045481116102725760405162461bcd60e51b815260206004820152601e60248201527f5072696365206d757374206265206174206c65617374203120746675656c00006044820152606401610213565b610280600180546001019055565b600061028b60015490565b6040805160c0810182528281526001600160a01b0387811660208084018281528486018a81523360608701818152608088018c8152600060a08a018181528c825260069097528a90209851895593516001890180546001600160a01b0319908116928a16929092179055925160028901555160038801805490931696169590951790555160048086019190915590516005909401805460ff19169415159490941790935592516323b872dd60e01b81529182015230602482015260448101869052919250906323b872dd90606401600060405180830381600087803b15801561037357600080fd5b505af1158015610387573d6000803e3d6000fd5b5050604080513381526020810186905260008183015290518693506001600160a01b038816925084917f859fb56742fa36cc282a009aa0048cac707971604c602d2cdc1c767dac5de83b919081900360600190a4505060016000555050565b600260005414156104395760405162461bcd60e51b815260206004820152601f60248201527f5265656e7472616e637947756172643a207265656e7472616e742063616c6c006044820152606401610213565b6002600081815582815260066020526040902060048101549101543482146104cb576040805162461bcd60e51b81526020600482015260248101919091527f506c65617365207375626d6974207468652061736b696e67207072696365206960448201527f6e206f7264657220746f20636f6d706c657465207468652070757263686173656064820152608401610213565b6005546000906064906104e19060ff1685610722565b6104eb9190610741565b6000858152600660205260409020600301549091506001600160a01b03166108fc6105168334610763565b6040518115909202916000818181858888f1935050505015801561053e573d6000803e3d6000fd5b506003546040516001600160a01b039091169082156108fc029083906000818181858888f19350505050158015610579573d6000803e3d6000fd5b506040516323b872dd60e01b8152306004820152336024820152604481018390526001600160a01b038616906323b872dd90606401600060405180830381600087803b1580156105c857600080fd5b505af11580156105dc573d6000803e3d6000fd5b50505060008581526006602052604090206003810180546001600160a01b03191633179055600501805460ff191660011790555061061e600280546001019055565b6040805133815260208101859052600181830152905183916001600160a01b0388169187917fd0759c05bf99066147b558f1329546120f9107b2c4fbc23b65dc7e1eb4c78951919081900360600190a450506001600055505050565b80356001600160a01b038116811461069157600080fd5b919050565b6000806000606084860312156106ab57600080fd5b6106b48461067a565b95602085013595506040909401359392505050565b6000602082840312156106db57600080fd5b5035919050565b600080604083850312156106f557600080fd5b6106fe8361067a565b946020939093013593505050565b634e487b7160e01b600052601160045260246000fd5b600081600019048311821515161561073c5761073c61070c565b500290565b60008261075e57634e487b7160e01b600052601260045260246000fd5b500490565b6000828210156107755761077561070c565b50039056fea264697066735822122053f99b38379958052ae2213478c7f4bffdfd971cd992025732c3be31697c6aa464736f6c634300080c0033",
  "linkReferences": {},
  "deployedLinkReferences": {}
}